:020000040800F2
:1000000068180020250100089501000895010008E6
:100010009501000895010008950100080000000006
:100020000000000000000000000000009501000832
:1000300095010008000000009501000885A6000851
:100040009501000895010008950100089501000838
:100050009501000895010008950100089501000828
:100060006D1700089501000895010008950100082A
:100070009501000895010008950100089501000808
:100080009501000895010008950100080000000096
:1000900000000000000000000000000095010008C2
:1000A00095010008950100089501000895010008D8
:1000B00095010008950100089501000895010008C8
:1000C00095010008950100089501000895010008B8
:1000D00095010008950100089501000895010008A8
:1000E000AD17000895010008950100080000000008
:1000F0000000000000000000000000000000000000
:1001000000000000000000000000000000000000EF
:1001100000000000000000009501000895010008A3
:100120005FF808F180B582B000AF4CF6C803C0F6A6
:1001300000037B6040F20003C2F200033B600BE06F
:100140007B681A683B681A603B6803F104033B60F4
:100150007B6803F104037B603A6840F20003C2F25B
:1001600000039A42ECD3094809494FF00002884243
:10017000B8BF40F8042BFFF6FAAF00F00FF800F01C
:10018000D5F907F10807BD4680BD0000000000203A
:100190006400002080B400AFFEE700BF80B500AF70
:1001A0004FF48053C4F202034FF48052C4F20202AF
:1001B000126842F001021A604FF48052C4F2020247
:1001C0004FF48053C4F2020359684FF00003CFF696
:1001D000FF030B4053604FF48053C4F202034FF40B
:1001E0008052C4F20202126822F0847222F4803239
:1001F0001A604FF48053C4F202034FF48052C4F2E9
:100200000202126822F480221A604FF48053C4F272
:1002100002034FF48052C4F20202526822F4FE023A
:100220005A604FF48053C4F202034FF41F029A60E5
:100230004FF48053C4F202034FF00002DA6200F080
:1002400009F84FF46D43CEF200034FF000629A605C
:1002500080BD00BF80B500AF00F002F880BD00BFD8
:1002600080B483B000AF4FF000037B604FF0000319
:100270003B604FF48053C4F202034FF48052C4F247
:100280000202126842F480321A604FF48053C4F2C2
:1002900002031B6803F400333B607B6803F1010336
:1002A0007B603B68002B03D17B68B3F5A06FECD17A
:1002B0004FF48053C4F202031B6803F40033002B95
:1002C00003D04FF001033B6002E04FF000033B60BE
:1002D0003B68012B6DD14FF48053C4F202034FF4FD
:1002E0008052C4F2020252685A604FF48053C4F242
:1002F00002034FF48052C4F2020252685A604FF473
:100300008053C4F202034FF48052C4F202025268D6
:100310005A604FF48053C4F202034FF48052C4F287
:100320000202526822F47C125A604FF48053C4F2E5
:1003300002034FF48052C4F20202526842F498124F
:100340005A604FF48053C4F202034FF48052C4F257
:100350000202126842F080721A6000BF4FF48053AC
:10036000C4F202031B6803F00073002BF6D04FF4B5
:100370008053C4F202034FF48052C4F20202526866
:1003800022F003025A604FF48053C4F202034FF488
:100390008052C4F20202526842F002025A6000BF68
:1003A0004FF48053C4F202035B6803F00C03082B84
:1003B000F6D107F10C07BD4680BC704790B5F9B087
:1003C00000AF07F110034BF61C32C0F6000207CA5B
:1003D00003C31A8003F102034FEA12421A703A462D
:1003E0004BF62833C0F600031446186859689A681B
:1003F000DB680FC407F5D07318464FF000014FF0CB
:1004000040020BF0F5FA07F1100207F5D073104621
:100410004FF00A011A4601F083F907F1100207F5BF
:10042000D07310464FF00A011A4603F01DF807F189
:10043000100207F5D07310464FF00A011A4607F074
:1004400029FC07F1100207F5D07310464FF00A019E
:100450001A4607F031FC07F1100207F5D073104679
:100460004FF00A011A460AF0E9F807F1100207F501
:10047000D07310464FF00A011A460AF0F1F807F55A
:10048000D07318460AF038FD07F5D07318460AF005
:100490000DFD07F5D07318460AF02EFD07F11C027A
:1004A00007F5D073104619460AF054FD07F11C01F8
:1004B0003A463B46084611461A460AF0D3FD07F174
:1004C0001C0207F5D073104619460AF065FD07F1C6
:1004D0001C013A463B46084611461A460AF0C2FD40
:1004E00007F11C0207F5D073104619460AF076FD95
:1004F00007F11C013A463B46084611461A460AF0E7
:10050000B1FD07F11C0207F5D073104619460AF039
:1005100087FD07F11C013A463B46084611461A463C
:100520000AF0A0FD07F5F277BD4690BD80B500AF9B
:10053000FFF744FFFEE700BF80B483B000AF7860F0
:100540007B684FF000021A607B684FF000025A602F
:100550007A6842F20133C6F2457393607A684AF6CC
:100560008933CEF6CD73D3607A684DF6FE43C9F673
:10057000BA0313617A6845F27643C1F232035361DC
:1005800007F10C07BD4680BC704700BF80B497B030
:1005900000AF786039603B681B781A463B6803F10E
:1005A00001031B784FEA03231A433B6803F102035C
:1005B0001B784FEA03431A433B6803F103031B789C
:1005C0004FEA03631343BB603B6803F104031B78EA
:1005D0001A463B6803F105031B784FEA03231A43CD
:1005E0003B6803F106031B784FEA03431A433B6859
:1005F00003F107031B784FEA03631343FB603B6877
:1006000003F108031B781A463B6803F109031B78C2
:100610004FEA03231A433B6803F10A031B784FEAAE
:1006200003431A433B6803F10B031B784FEA036350
:1006300013433B613B6803F10C031B781A463B688C
:1006400003F10D031B784FEA03231A433B6803F1C0
:100650000E031B784FEA03431A433B6803F10F0371
:100660001B784FEA036313437B613B6803F110037C
:100670001B781A463B6803F111031B784FEA0323EA
:100680001A433B6803F112031B784FEA03431A43F2
:100690003B6803F113031B784FEA03631343BB6109
:1006A0003B6803F114031B781A463B6803F11503FA
:1006B0001B784FEA03231A433B6803F116031B78A8
:1006C0004FEA03431A433B6803F117031B784FEAD1
:1006D00003631343FB613B6803F118031B781A465D
:1006E0003B6803F119031B784FEA03231A433B6865
:1006F00003F11A031B784FEA03431A433B6803F1E3
:100700001B031B784FEA036313433B623B6803F10F
:100710001C031B781A463B6803F11D031B784FEA44
:1007200003231A433B6803F11E031B784FEA03437C
:100730001A433B6803F11F031B784FEA036313431B
:100740007B623B6803F120031B781A463B6803F188
:1007500021031B784FEA03231A433B6803F122036A
:100760001B784FEA03431A433B6803F123031B78CA
:100770004FEA03631343BB623B6803F124031B7816
:100780001A463B6803F125031B784FEA03231A43FB
:100790003B6803F126031B784FEA03431A433B6887
:1007A00003F127031B784FEA03631343FB623B68A3
:1007B00003F128031B781A463B6803F129031B78D1
:1007C0004FEA03231A433B6803F12A031B784FEADD
:1007D00003431A433B6803F12B031B784FEA03637F
:1007E00013433B633B6803F12C031B781A463B68B9
:1007F00003F12D031B784FEA03231A433B6803F1EF
:100800002E031B784FEA03431A433B6803F12F037F
:100810001B784FEA036313437B633B6803F13003A8
:100820001B781A463B6803F131031B784FEA032318
:100830001A433B6803F132031B784FEA03431A4320
:100840003B6803F133031B784FEA03631343BB6335
:100850003B6803F134031B781A463B6803F1350308
:100860001B784FEA03231A433B6803F136031B78D6
:100870004FEA03431A433B6803F137031B784FEAFF
:1008800003631343FB633B6803F138031B781A4689
:100890003B6803F139031B784FEA03231A433B6893
:1008A00003F13A031B784FEA03431A433B6803F111
:1008B0003B031B784FEA036313433B643B6803F13C
:1008C0003C031B781A463B6803F13D031B784FEA53
:1008D00003231A433B6803F13E031B784FEA0343AB
:1008E0001A433B6803F13F031B784FEA036313434A
:1008F0007B647B689B687B657B68DB683B657B68AA
:100900001B69FB647B685B69BB64FA6CBB6C5A4017
:100910003B6D1A40BB6C5A40BB68D2187B6DD21835
:100920004AF27843CDF26A73D3187B657B6D4FEA48
:1009300073623B6DD3187B653A6DFB6C5A407B6DDF
:100940001A40FB6C5A40FB68D218BB6CD2184BF2B1
:100950005673CEF6C703D318BB64BB6C4FEA335251
:100960007B6DD318BB647A6D3B6D5A40BB6C1A40EB
:100970003B6D5A403B69D218FB6CD21847F2DB033F
:10098000C2F22043D318FB64FB6C4FEAF332BB6C1A
:10099000D318FB64BA6C7B6D5A40FB6C1A407B6DBC
:1009A0005A407B69D2183B6DD2184CF6EE63CCF2FC
:1009B000BD13D3183B653B6D4FEAB322FB6CD318D4
:1009C0003B65FA6CBB6C5A403B6D1A40BB6C5A409D
:1009D000BB69D2187B6DD21840F6AF73CFF27C534F
:1009E000D3187B657B6D4FEA73623B6DD3187B65D3
:1009F0003A6DFB6C5A407B6D1A40FB6C5A40FB69A8
:100A0000D218BB6CD2184CF22A63C4F28773D31885
:100A1000BB64BB6C4FEA33527B6DD318BB647A6DF9
:100A20003B6D5A40BB6C1A403B6D5A403B6AD21832
:100A3000FB6CD21844F21363CAF63003D318FB647C
:100A4000FB6C4FEAF332BB6CD318FB64BA6C7B6D62
:100A50005A40FB6C1A407B6D5A407B6AD2183B6D42
:100A6000D21849F20153CFF64653D3183B653B6D7C
:100A70004FEAB322FB6CD3183B65FA6CBB6C5A404F
:100A80003B6D1A40BB6C5A40BB6AD2187B6DD218C2
:100A900049F6D803C6F68013D3187B657B6D4FEA01
:100AA00073623B6DD3187B653A6DFB6C5A407B6D6E
:100AB0001A40FB6C5A40FB6AD218BB6CD2184FF23A
:100AC000AF73C8F64433D318BB64BB6C4FEA3352E0
:100AD0007B6DD318BB647A6D3B6D5A40BB6C1A407A
:100AE0003B6D5A403B6BD218FB6CD318A3F52443E3
:100AF000A3F14F03FB64FB6C4FEAF332BB6CD318DA
:100B0000FB64BA6C7B6D5A40FB6C1A407B6D5A409B
:100B10007B6BD2183B6DD2184DF2BE73C8F65C13D6
:100B2000D3183B653B6D4FEAB322FB6CD3183B6592
:100B3000FA6CBB6C5A403B6D1A40BB6C5A40BB6BA5
:100B4000D2187B6DD21841F22213C6F69033D31817
:100B50007B657B6D4FEA73623B6DD3187B653A6DA5
:100B6000FB6C5A407B6D1A40FB6C5A40FB6BD218F1
:100B7000BB6CD21847F29313CFF69853D318BB64CB
:100B8000BB6C4FEA33527B6DD318BB647A6D3B6DFF
:100B90005A40BB6C1A403B6D5A403B6CD218FB6C00
:100BA000D21844F28E33CAF27963D318FB64FB6C1B
:100BB0004FEAF332BB6CD318FB64BA6C7B6D5A40BE
:100BC000FB6C1A407B6D5A407B6CD2183B6DD2187F
:100BD00040F62103C4F6B413D3183B653B6D4FEACE
:100BE000B322FB6CD3183B653A6DFB6C5A40BB6C6F
:100BF0001A40FB6C5A40FB68D2187B6DD21842F247
:100C00006253CFF21E63D3187B657B6D4FEAF362AC
:100C10003B6DD3187B657A6D3B6D5A40FB6C1A4077
:100C20003B6D5A403B6AD218BB6CD2184BF2403332
:100C3000CCF24003D318BB64BB6C4FEAF3527B6D1C
:100C4000D318BB64BA6C7B6D5A403B6D1A407B6D08
:100C50005A407B6BD218FB6CD21845F65123C2F276
:100C60005E63D318FB64FB6C4FEAB342BB6CD318D2
:100C7000FB64FA6CBB6C5A407B6D1A40BB6C5A40EB
:100C8000BB68D2183B6DD2184CF2AA73CEF6B613DD
:100C9000D3183B653B6D4FEA3332FB6CD3183B6591
:100CA0003A6DFB6C5A40BB6C1A40FB6C5A40FB69B6
:100CB000D2187B6DD21841F25D03CDF22F63D318A9
:100CC0007B657B6D4FEAF3623B6DD3187B657A6D74
:100CD0003B6D5A40FB6C1A403B6D5A403B6BD2183F
:100CE000BB6CD21841F25343C0F24423D318BB6407
:100CF000BB6C4FEAF3527B6DD318BB64BA6C7B6D4F
:100D00005A403B6D1A407B6D5A407B6CD218FB6C8D
:100D1000D2184EF28163CDF6A103D318FB64FB6CAD
:100D20004FEAB342BB6CD318FB64FA6CBB6C5A40FD
:100D30007B6D1A40BB6C5A40BB69D2183B6DD21810
:100D40004FF6C833CEF2D373D3183B653B6D4FEAF1
:100D50003332FB6CD3183B653A6DFB6C5A40BB6C6D
:100D60001A40FB6C5A40FB6AD2187B6DD2184CF6C5
:100D7000E653C2F2E113D3187B657B6D4FEAF36251
:100D80003B6DD3187B657A6D3B6D5A40FB6C1A4006
:100D90003B6D5A403B6CD218BB6CD21840F2D673F4
:100DA000CCF23733D318BB64BB6C4FEAF3527B6D84
:100DB000D318BB64BA6C7B6D5A403B6D1A407B6D97
:100DC0005A407B69D218FB6CD21840F68753CFF299
:100DD000D543D318FB64FB6C4FEAB342BB6CD3180A
:100DE000FB64FA6CBB6C5A407B6D1A40BB6C5A407A
:100DF000BB6AD2183B6DD21841F2ED43C4F25A538C
:100E0000D3183B653B6D4FEA3332FB6CD3183B651F
:100E10003A6DFB6C5A40BB6C1A40FB6C5A40FB6B42
:100E2000D2187B6DD2184EF60513CAF6E313D31809
:100E30007B657B6D4FEAF3623B6DD3187B657A6D02
:100E40003B6D5A40FB6C1A403B6D5A403B69D218CF
:100E5000BB6CD2184AF2F833CFF6EF43D318BB6419
:100E6000BB6C4FEAF3527B6DD318BB64BA6C7B6DDD
:100E70005A403B6D1A407B6D5A407B6AD218FB6C1E
:100E8000D21840F2D923C6F26F73D318FB64FB6CFF
:100E90004FEAB342BB6CD318FB64FA6CBB6C5A408C
:100EA0007B6D1A40BB6C5A40BB6BD2183B6DD2189D
:100EB00044F68A43C8F62A53D3183B653B6D4FEA84
:100EC0003332FB6CD3183B653A6DFB6C5A40BB6CFC
:100ED0005A40FB69D2187B6DD318A3F5B823A3F24F
:100EE000BE637B657B6D4FEA33723B6DD3187B65C8
:100EF0007A6D3B6D5A40FB6C5A40BB6AD218BB6C92
:100F0000D2184FF28163C8F27173D318BB64BB6C03
:100F10004FEA73527B6DD318BB64BA6C7B6D5A4039
:100F20003B6D5A407B6BD218FB6CD21846F22213F1
:100F3000C6F69D53D318FB64FB6C4FEA3342BB6C7F
:100F4000D318FB64FA6CBB6C5A407B6D5A403B6C07
:100F5000D2183B6DD21843F60C03CFF6E553D318E5
:100F60003B653B6D4FEA7322FB6CD3183B653A6DD2
:100F7000FB6C5A40BB6C5A40FB68D2187B6DD21890
:100F80004EF64423CAF2BE43D3187B657B6D4FEA0D
:100F900033723B6DD3187B657A6D3B6D5A40FB6CA9
:100FA0005A40BB69D218BB6CD2184CF6A973C4F670
:100FB000DE33D318BB64BB6C4FEA73527B6DD3181E
:100FC000BB64BA6C7B6D5A403B6D5A407B6AD21849
:100FD000FB6CD21844F66033CFF2BB63D318FB64CA
:100FE000FB6C4FEA3342BB6CD318FB64FA6CBB6CEE
:100FF0005A407B6D5A403B6BD2183B6DD2184BF672
:101000007043CBF6BF63D3183B653B6D4FEA732249
:10101000FB6CD3183B653A6DFB6C5A40BB6C5A4075
:10102000FB6BD2187B6DD21847F6C663C2F69B03E2
:10103000D3187B657B6D4FEA33723B6DD3187B65AC
:101040007A6D3B6D5A40FB6C5A40BB68D218BB6C42
:10105000D21842F2FA73CEF6A123D318BB64BB6C4C
:101060004FEA73527B6DD318BB64BA6C7B6D5A40E8
:101070003B6D5A407B69D218FB6CD21843F2850352
:10108000CDF2EF43D318FB64FB6C4FEA3342BB6CE9
:10109000D318FB64FA6CBB6C5A407B6D5A403B6AB8
:1010A000D2183B6DD21841F60553C0F28843D318CD
:1010B0003B653B6D4FEA7322FB6CD3183B653A6D81
:1010C000FB6C5A40BB6C5A40FB6AD2187B6DD2183D
:1010D0004DF23903CDF6D413D3187B657B6D4FEAFF
:1010E00033723B6DD3187B657A6D3B6D5A40FB6C58
:1010F0005A40BB6BD218BB6CD21849F6E513CEF23E
:10110000DB63D318BB64BB6C4FEA73527B6DD3189F
:10111000BB64BA6C7B6D5A403B6D5A407B6CD218F5
:10112000FB6CD21847F6F843C1F6A273D318FB64E0
:10113000FB6C4FEA3342BB6CD318FB64FA6CBB6C9C
:101140005A407B6D5A403B69D2183B6DD21845F22C
:101150006563CCF2AC43D3183B653B6D4FEA732219
:10116000FB6CD3183B65BB6C6FEA03023B6D1A4303
:10117000FB6C5A40BB68D2187B6DD21842F24423F4
:10118000CFF22943D3187B657B6D4FEAB3623B6D89
:10119000D3187B65FB6C6FEA03027B6D1A433B6DD2
:1011A0005A407B6AD218BB6CD2184FF69773C4F2C0
:1011B0002A33D318BB64BB6C4FEAB3527B6DD31890
:1011C000BB643B6D6FEA0302BB6C1A437B6D5A40F4
:1011D0003B6CD218FB6CD21842F2A733CAF6943398
:1011E000D318FB64FB6C4FEA7342BB6CD318FB64EF
:1011F0007B6D6FEA0302FB6C1A43BB6C5A40FB69C0
:10120000D2183B6DD2184AF23903CFF69343D31864
:101210003B653B6D4FEAF322FB6CD3183B65BB6C1F
:101220006FEA03023B6D1A43FB6C5A40BB6BD2184A
:101230007B6DD21845F6C313C6F25B53D3187B659A
:101240007B6D4FEAB3623B6DD3187B65FB6C6FEA35
:1012500003027B6D1A433B6D5A407B69D218BB6C0D
:10126000D2184CF69243C8F60C73D318BB64BB6C0F
:101270004FEAB3527B6DD318BB643B6D6FEA030238
:10128000BB6C1A437B6D5A403B6BD218FB6CD31876
:10129000A3F58013A3F68333FB64FB6C4FEA734220
:1012A000BB6CD318FB647B6D6FEA0302FB6C1A43C3
:1012B000BB6C5A40FB68D2183B6DD21845F6D1532F
:1012C000C8F28453D3183B653B6D4FEAF322FB6CA5
:1012D000D3183B65BB6C6FEA03023B6D1A43FB6C92
:1012E0005A40BB6AD2187B6DD21847F64F63C6F6D8
:1012F000A873D3187B657B6D4FEAB3623B6DD3183F
:101300007B65FB6C6FEA03027B6D1A433B6D5A40B1
:101310007B6CD218BB6CD2184EF2E063CFF62C6314
:10132000D318BB64BB6C4FEAB3527B6DD318BB645C
:101330003B6D6FEA0302BB6C1A437B6D5A403B6AFC
:10134000D218FB6CD21844F21433CAF20133D3180A
:10135000FB64FB6C4FEA7342BB6CD318FB647B6D80
:101360006FEA0302FB6C1A43BB6C5A40FB6BD2184A
:101370003B6DD21841F2A113C4F60863D3183B6544
:101380003B6D4FEAF322FB6CD3183B65BB6C6FEAF5
:1013900003023B6D1A43FB6C5A40BB69D2187B6D4C
:1013A000D21847F68263CFF25373D3187B657B6DF7
:1013B0004FEAB3623B6DD3187B65FB6C6FEA0302A7
:1013C0007B6D1A433B6D5A407B6BD218BB6CD218B5
:1013D0004FF23523CBF63A53D318BB64BB6C4FEABC
:1013E000B3527B6DD318BB643B6D6FEA0302BB6CD9
:1013F0001A437B6D5A403B69D218FB6CD2184DF2F0
:10140000BB23C2F6D723D318FB64FB6C4FEA7342AD
:10141000BB6CD318FB647B6D6FEA0302FB6C1A4351
:10142000BB6C5A40FB6AD2183B6DD2184DF2913317
:10143000CEF68633D3183B653B6D4FEAF322FB6C47
:10144000D3183B657B689A687B6DD2187B689A607D
:101450007B68DA683B6DD2187B68DA607B681A6952
:10146000FB6CD2187B681A617B685A69BB6CD21816
:101470007B685A6107F15C07BD4680BC704700BFBE
:1014800080B586B000AFF860B9607A607B68002BE9
:101490005ED0FB681B6803F03F037B617B69C3F18F
:1014A00040033B61FB681A687B68D218FB681A60CE
:1014B000FB681A68FB681A60FB681A687B689A42C6
:1014C00005D2FB685B6803F10102FB685A607B6927
:1014D000002B2CD07A683B699A4228D37B6903F1B0
:1014E0001803FA68D3181846B9683A690AF0D2F9AD
:1014F000FB6803F11803F8681946FFF747F8BA6864
:101500003B69D318BB607A683B69D31A7B604FF0A4
:1015100000037B610BE0F868B968FFF737F8BB6838
:1015200003F14003BB607B68A3F140037B607B68F1
:101530003F2BF0D87B68002B0BD07B6903F118039D
:10154000FA68D3181846B9687A680AF0A3F900E077
:1015500000BF07F11807BD4680BD00BF80B588B049
:1015600000AF786039607B681B684FEA53727B6814
:101570005B684FEAC3031343FB617B681B684FEA58
:10158000C303BB61BB69DBB23B72BB694FEA132388
:10159000DBB27B72BB694FEA1343DBB2BB72BB6940
:1015A0004FEA1363DBB2FB72FB69DBB23B73FB698F
:1015B0004FEA1323DBB27B73FB694FEA1343DBB2C1
:1015C000BB73FB694FEA1363DBB2FB737B681B6879
:1015D00003F03F037B617B69372B03D87B69C3F141
:1015E000380302E07B69C3F178033B6178684BF60E
:1015F0008431C0F600013A69FFF742FF07F10803A2
:10160000786819464FF00802FFF73AFF7B689B683D
:10161000DAB23B681A703B6803F101037A6892689A
:101620004FEA1222D2B21A703B6803F102037A68C1
:1016300092684FEA1242D2B21A703B6803F1030378
:101640007A6892684FEA1262D2B21A703B6803F16C
:1016500004037A68D268D2B21A703B6803F10503BA
:101660007A68D2684FEA1222D2B21A703B6803F14C
:1016700006037A68D2684FEA1242D2B21A703B6807
:1016800003F107037A68D2684FEA1262D2B21A7085
:101690003B6803F108037A681269D2B21A703B689A
:1016A00003F109037A6812694FEA1222D2B21A7062
:1016B0003B6803F10A037A6812694FEA1242D2B218
:1016C0001A703B6803F10B037A6812694FEA1262E1
:1016D000D2B21A703B6803F10C037A685269D2B235
:1016E0001A703B6803F10D037A6852694FEA1222BF
:1016F000D2B21A703B6803F10E037A6852694FEA5E
:101700001242D2B21A703B6803F10F037A68526931
:101710004FEA1262D2B21A7007F12007BD4680BDAF
:1017200080B59AB000AFF860B9607A6007F1100335
:101730001846FEF701FF07F110031846F968BA686A
:10174000FFF79EFE07F1100318467968FFF706FFC2
:1017500007F1100318464FF000014FF058020AF04D
:1017600047F907F16807BD4680BD00BF80B400AFF0
:101770004FF43053C4F201034FF43052C4F201026B
:10178000128892B242F0010292B21A804FF4806342
:10179000C4F201034FF48062C4F20102526942F0C4
:1017A00004025A61BD4680BC704700BF80B400AFE0
:1017B0004FF48053C4F200039B8C9BB2B3F57A7F45
:1017C0000AD94FF48053C4F200039B8C9AB240F2C2
:1017D0000003C2F20003DA804FF48053C4F2000326
:1017E0004FF000029A844FF48053C4F200034FF488
:1017F0008052C4F20002128A92B222F0010292B226
:101800001A824FF48063C4F201034FF48062C4F281
:101810000102526942F480425A61BD4680BC704761
:1018200080B483B000AF78607B684FF000021A602C
:101830007B684FF000025A607A6842F20133C6F2C8
:10184000457393607A684AF68933CEF6CD73D360D8
:101850007A684DF6FE43C9F6BA0313617A6845F219
:101860007643C1F2320353617A684EF2F013CCF240
:10187000D233936107F10C07BD4680BC704700BFAF
:1018800080B499B000AF786039603B681B784FEA4C
:1018900003623B6803F101031B784FEA03431A43D9
:1018A0003B6803F102031B784FEA03231A433B68AA
:1018B00003F103031B781343BB603B6803F104038C
:1018C0001B784FEA03623B6803F105031B784FEA7C
:1018D00003431A433B6803F106031B784FEA0323D3
:1018E0001A433B6803F107031B781343FB603B6813
:1018F00003F108031B784FEA03623B6803F1090315
:101900001B784FEA03431A433B6803F10A031B7831
:101910004FEA03231A433B6803F10B031B7813437D
:101920003B613B6803F10C031B784FEA03623B68A1
:1019300003F10D031B784FEA03431A433B6803F19D
:101940000E031B784FEA03231A433B6803F10F038E
:101950001B7813437B613B6803F110031B784FEA4C
:1019600003623B6803F111031B784FEA03431A43F8
:101970003B6803F112031B784FEA03231A433B68C9
:1019800003F113031B781343BB613B6803F114039A
:101990001B784FEA03623B6803F115031B784FEA9B
:1019A00003431A433B6803F116031B784FEA0323F2
:1019B0001A433B6803F117031B781343FB613B6831
:1019C00003F118031B784FEA03623B6803F1190324
:1019D0001B784FEA03431A433B6803F11A031B7851
:1019E0004FEA03231A433B6803F11B031B7813439D
:1019F0003B623B6803F11C031B784FEA03623B68C0
:101A000003F11D031B784FEA03431A433B6803F1BC
:101A10001E031B784FEA03231A433B6803F11F039D
:101A20001B7813437B623B6803F120031B784FEA6A
:101A300003623B6803F121031B784FEA03431A4317
:101A40003B6803F122031B784FEA03231A433B68E8
:101A500003F123031B781343BB623B6803F12403A8
:101A60001B784FEA03623B6803F125031B784FEABA
:101A700003431A433B6803F126031B784FEA032311
:101A80001A433B6803F127031B781343FB623B684F
:101A900003F128031B784FEA03623B6803F1290333
:101AA0001B784FEA03431A433B6803F12A031B7870
:101AB0004FEA03231A433B6803F12B031B781343BC
:101AC0003B633B6803F12C031B784FEA03623B68DE
:101AD00003F12D031B784FEA03431A433B6803F1DC
:101AE0002E031B784FEA03231A433B6803F12F03AD
:101AF0001B7813437B633B6803F130031B784FEA89
:101B000003623B6803F131031B784FEA03431A4336
:101B10003B6803F132031B784FEA03231A433B6807
:101B200003F133031B781343BB633B6803F13403B6
:101B30001B784FEA03623B6803F135031B784FEAD9
:101B400003431A433B6803F136031B784FEA032330
:101B50001A433B6803F137031B781343FB633B686D
:101B600003F138031B784FEA03623B6803F1390342
:101B70001B784FEA03431A433B6803F13A031B788F
:101B80004FEA03231A433B6803F13B031B781343DB
:101B90003B643B6803F13C031B784FEA03623B68FC
:101BA00003F13D031B784FEA03431A433B6803F1FB
:101BB0003E031B784FEA03231A433B6803F13F03BC
:101BC0001B7813437B647B689B68FB657B68DB68E1
:101BD000BB657B681B697B657B685B693B657B6874
:101BE0009B69FB64FB6D4FEAF362796D3B6D594075
:101BF000BB6D19403B6D4B40D218BB68D218FB6CD3
:101C0000D21847F69913C5F68223D318FB64BB6D2F
:101C10004FEAB303BB65FB6C4FEAF362B96D7B6DB2
:101C20005940FB6D19407B6D4B40D218FB68D218B0
:101C30003B6DD21847F69913C5F68223D3183B653E
:101C4000FB6D4FEAB303FB653B6D4FEAF362F96D41
:101C5000BB6D5940FB6C1940BB6D4B40D2183B69C2
:101C6000D2187B6DD21847F69913C5F68223D31884
:101C70007B65FB6C4FEAB303FB647B6D4FEAF36259
:101C8000F96CFB6D59403B6D1940FB6D4B40D21810
:101C90007B69D218BB6DD21847F69913C5F682231B
:101CA000D318BB653B6D4FEAB3033B65BB6D4FEA91
:101CB000F362396DFB6C59407B6D1940FB6C4B40F6
:101CC000D218BB69D218FB6DD21847F69913C5F626
:101CD0008223D318FB657B6D4FEAB3037B65FB6DF5
:101CE0004FEAF362796D3B6D5940BB6D19403B6D16
:101CF0004B40D218FB69D218FB6CD21847F69913E7
:101D0000C5F68223D318FB64BB6D4FEAB303BB65F2
:101D1000FB6C4FEAF362B96D7B6D5940FB6D194066
:101D20007B6D4B40D2183B6AD2183B6DD21847F6F8
:101D30009913C5F68223D3183B65FB6D4FEAB303B5
:101D4000FB653B6D4FEAF362F96DBB6D5940FB6C6F
:101D50001940BB6D4B40D2187B6AD2187B6DD218EC
:101D600047F69913C5F68223D3187B65FB6C4FEABF
:101D7000B303FB647B6D4FEAF362F96CFB6D594072
:101D80003B6D1940FB6D4B40D218BB6AD218BB6D3E
:101D9000D21847F69913C5F68223D318BB653B6D5D
:101DA0004FEAB3033B65BB6D4FEAF362396DFB6CE1
:101DB00059407B6D1940FB6C4B40D218FB6AD2181E
:101DC000FB6DD21847F69913C5F68223D318FB652D
:101DD0007B6D4FEAB3037B65FB6D4FEAF362796D70
:101DE0003B6D5940BB6D19403B6D4B40D2183B6B6E
:101DF000D218FB6CD21847F69913C5F68223D31874
:101E0000FB64BB6D4FEAB303BB65FB6C4FEAF36247
:101E1000B96D7B6D5940FB6D19407B6D4B40D218FD
:101E20007B6BD2183B6DD21847F69913C5F6822307
:101E3000D3183B65FB6D4FEAB303FB653B6D4FEA7F
:101E4000F362F96DBB6D5940FB6C1940BB6D4B40A3
:101E5000D218BB6BD2187B6DD21847F69913C5F612
:101E60008223D3187B65FB6C4FEAB303FB647B6D65
:101E70004FEAF362F96CFB6D59403B6D1940FB6D05
:101E80004B40D218FB6BD218BB6DD21847F6991392
:101E9000C5F68223D318BB653B6D4FEAB3033B65A0
:101EA000BB6D4FEAF362396DFB6C59407B6D194095
:101EB000FB6C4B40D2183B6CD218FB6DD21847F626
:101EC0009913C5F68223D318FB657B6D4FEAB303E4
:101ED0007B65FB6D4FEAF362796D3B6D5940BB6DDD
:101EE00019403B6D4B40D2187B6CD218FB6CD2185A
:101EF00047F69913C5F68223D318FB64BB6D4FEAEE
:101F0000B303BB65FA6BBB6A5A403B695A40BB6876
:101F10005340BB64FB6C4FEAF362B96D7B6D594073
:101F2000FB6D19407B6D4B40D218BB6C4FEAF373CD
:101F3000BB60BB68D2183B6DD21847F69913C5F643
:101F40008223D3183B65FB6D4FEAB303FB653A6C04
:101F5000FB6A5A407B695A40FB685340BB643B6D47
:101F60004FEAF362F96DBB6D5940FB6C1940BB6DD4
:101F70004B40D218BB6C4FEAF373FB60FB68D2187E
:101F80007B6DD21847F69913C5F68223D3187B656B
:101F9000FB6C4FEAB303FB647A6C3B6B5A40BB6942
:101FA0005A403B695340BB647B6D4FEAF362F96C66
:101FB000FB6D59403B6D1940FB6D4B40D218BB6C1B
:101FC0004FEAF3733B613B69D218BB6DD21847F6F9
:101FD0009913C5F68223D318BB653B6D4FEAB30353
:101FE0003B65BA687B6B5A40FB695A407B6953403A
:101FF000BB64BB6D4FEAF362396DFB6C59407B6D7E
:102000001940FB6C4B40D218BB6C4FEAF3737B61F9
:102010007B69D218FB6DD21847F69913C5F6822357
:10202000D318FB657B6D4FEAB3037B65FA68BB6B26
:102030005A403B6A5A40BB695340BB64FB6D4FEA50
:10204000F362B96D7B6D59403B6D4B40D218BB6C50
:102050004FEAF373BB61BB69D218FB6CD2184EF622
:10206000A133C6F6D963D318FB64BB6D4FEAB30343
:10207000BB653A69FB6B5A407B6A5A40FB69534027
:10208000BB64FB6C4FEAF362F96DBB6D59407B6D2D
:102090004B40D218BB6C4FEAF373FB61FB69D2185B
:1020A0003B6DD2184EF6A133C6F6D963D3183B6503
:1020B000FB6D4FEAB303FB657A693B6C5A40BB6A20
:1020C0005A403B6A5340BB643B6D4FEAF362F96C84
:1020D000FB6D5940BB6D4B40D218BB6C4FEAF3739C
:1020E0003B623B6AD2187B6DD2184EF6A133C6F61E
:1020F000D963D3187B65FB6C4FEAB303FB64BA6901
:102100007B6C5A40FB6A5A407B6A5340BB647B6DD0
:102110004FEAF362396DFB6C5940FB6D4B40D218AE
:10212000BB6C4FEAF3737B627B6AD218BB6DD2182B
:102130004EF6A133C6F6D963D318BB653B6D4FEAA3
:10214000B3033B65FA69BB685A403B6B5A40BB6AB4
:102150005340BB64BB6D4FEAF362796D3B6D5940F0
:10216000FB6C4B40D218BB6C4FEAF373BB62BB6A8B
:10217000D218FB6DD2184EF6A133C6F6D963D31828
:10218000FB657B6D4FEAB3037B653A6AFB685A4097
:102190007B6B5A40FB6A5340BB64FB6D4FEAF362B2
:1021A000B96D7B6D59403B6D4B40D218BB6C4FEA0B
:1021B000F373FB62FB6AD218FB6CD2184EF6A133A4
:1021C000C6F6D963D318FB64BB6D4FEAB303BB6596
:1021D0007A6A3B695A40BB6B5A403B6B5340BB64C5
:1021E000FB6C4FEAF362F96DBB6D59407B6D4B4060
:1021F000D218BB6C4FEAF3733B633B6BD2183B6D59
:10220000D2184EF6A133C6F6D963D3183B65FB6DE1
:102210004FEAB303FB65BA6A7B695A40FB6B5A40CD
:102220007B6B5340BB643B6D4FEAF362F96CFB6D13
:102230005940BB6D4B40D218BB6C4FEAF3737B63C4
:102240007B6BD2187B6DD2184EF6A133C6F6D963DC
:10225000D3187B65FB6C4FEAB303FB64FA6ABB6976
:102260005A403B6C5A40BB6B5340BB647B6D4FEA9A
:10227000F362396DFB6C5940FB6D4B40D218BB6C5F
:102280004FEAF373BB63BB6BD218BB6DD2184EF62B
:10229000A133C6F6D963D318BB653B6D4FEAB303D0
:1022A0003B653A6BFB695A407B6C5A40FB6B534071
:1022B000BB64BB6D4FEAF362796D3B6D5940FB6CBB
:1022C0004B40D218BB6C4FEAF373FB63FB6BD21825
:1022D000FB6DD2184EF6A133C6F6D963D318FB6551
:1022E0007B6D4FEAB3037B657A6B3B6A5A40BB68F0
:1022F0005A403B6C5340BB64FB6D4FEAF362B96DCF
:102300007B6D59403B6D4B40D218BB6C4FEAF37369
:102310003B643B6CD218FB6CD2184EF6A133C6F668
:10232000D963D318FB64BB6D4FEAB303BB65BA6BCB
:102330007B6A5A40FB685A407B6C5340BB64FB6C21
:102340004FEAF362F96DBB6D59407B6D4B40D2187B
:10235000BB6C4FEAF3737B647B6CD2183B6DD21875
:102360004EF6A133C6F6D963D3183B65FB6D4FEA31
:10237000B303FB65FA6BBB6A5A403B695A40BB68C2
:102380005340BB643B6D4FEAF362F96CFB6D5940FF
:10239000BB6D4B40D218BB6C4FEAF373BB60BB689C
:1023A000D2187B6DD2184EF6A133C6F6D963D31876
:1023B0007B65FB6C4FEAB303FB643A6CFB6A5A40E3
:1023C0007B695A40FB685340BB647B6D4FEAF36204
:1023D000396DFB6C5940FB6D4B40D218BB6C4FEA1A
:1023E000F373FB60FB68D218BB6DD2184EF6A133B5
:1023F000C6F6D963D318BB653B6D4FEAB3033B65A3
:102400007A6C3B6B5A40BB695A403B695340BB6492
:10241000BB6D4FEAF362796D3B6D5940FB6C4B40ED
:10242000D218BB6C4FEAF3733B613B69D218FB6D6A
:10243000D2184EF6A133C6F6D963D318FB657B6D6F
:102440004FEAB3037B65BA687B6B5A40FB695A401D
:102450007B695340BB64FB6D4FEAF362B96D7B6DE2
:1024600059403B6D4B40D218BB6C4FEAF3737B6114
:102470007B69D218FB6CD2184EF6A133C6F6D9632D
:10248000D318FB64BB6D4FEAB303BB65FA68BB6B43
:102490005A403B6A5A40BB695340BB64FB6C4FEAED
:1024A000F362F96DBB6D59407B6D4B40D218BB6C2C
:1024B0004FEAF373BB61BB69D2183B6DD2184EF67D
:1024C000A133C6F6D963D3183B65FB6D4FEAB3035E
:1024D000FB653A69FB6B5A407B6A5A40FB69534083
:1024E000BB643B6D4FEAF362F96CFB6D5940BB6D09
:1024F0004B40D218BB6C4FEAF373FB61FB69D218F7
:102500007B6DD2184EF6A133C6F6D963D3187B651E
:10251000FB6C4FEAB303FB647A693B6C5A40BB6ABD
:102520005A403B6A5340BB647B6D4FEAF362396D9E
:10253000FB6C5940FB6D4B40D218BB6C4FEAF373F8
:102540003B623B6AD218BB6DD2184EF6A133C6F679
:10255000D963D318BB653B6D4FEAB3033B65BA69DA
:102560007B6C5A40FB6A5A407B6A5340BB64BB6D2C
:102570004FEAF362796D3B6D5940FB6C4B40D218CA
:10258000BB6C4FEAF3737B627B6AD218FB6DD21887
:102590004EF6A133C6F6D963D318FB657B6D4FEABF
:1025A000B3037B65FA69BB685A403B6B5A40BB6A10
:1025B0005340BB64FB6D4FEAF362B96D7B6D19400C
:1025C000B86D7B6D18433B6D03400B43D218BB6C59
:1025D0004FEAF373BB62BB6AD218FB6CD2184BF69E
:1025E000DC43C8F61B73D318FB64BB6D4FEAB3031F
:1025F000BB653A6AFB685A407B6B5A40FB6A5340A2
:10260000BB64FB6C4FEAF362F96DBB6D1940F86D6A
:10261000BB6D18437B6D03400B43D218BB6C4FEA74
:10262000F373FB62FB6AD2183B6DD2184BF6DC43A6
:10263000C8F61B73D3183B65FB6D4FEAB303FB650C
:102640007A6A3B695A40BB6B5A403B6B5340BB6450
:102650003B6D4FEAF362F96CFB6D1940F86CFB6D52
:102660001843BB6D03400B43D218BB6C4FEAF373A6
:102670003B633B6BD2187B6DD2184BF6DC43C8F63C
:102680001B73D3187B65FB6C4FEAB303FB64BA6A18
:102690007B695A40FB6B5A407B6B5340BB647B6D3C
:1026A0004FEAF362396DFB6C1940386DFB6C1843CF
:1026B000FB6D03400B43D218BB6C4FEAF3737B6393
:1026C0007B6BD218BB6DD2184BF6DC43C8F61B737C
:1026D000D318BB653B6D4FEAB3033B65FA6ABB6930
:1026E0005A403B6C5A40BB6B5340BB64BB6D4FEAD6
:1026F000F362796D3B6D1940786D3B6D1843FB6C4F
:1027000003400B43D218BB6C4FEAF373BB63BB6B44
:10271000D218FB6DD2184BF6DC43C8F61B73D318E6
:10272000FB657B6D4FEAB3037B653A6BFB695A40EF
:102730007B6C5A40FB6B5340BB64FB6D4FEAF3620A
:10274000B96D7B6D1940B86D7B6D18433B6D0340CF
:102750000B43D218BB6C4FEAF373FB63FB6BD218CD
:10276000FB6CD2184BF6DC43C8F61B73D318FB6422
:10277000BB6D4FEAB303BB657A6B3B6A5A40BB68DB
:102780005A403B6C5340BB64FB6C4FEAF362F96DFB
:10279000BB6D1940F86DBB6D18437B6D03400B4357
:1027A000D218BB6C4FEAF3733B643B6CD2183B6DA1
:1027B000D2184BF6DC43C8F61B73D3183B65FB6D90
:1027C0004FEAB303FB65BA6B7B6A5A40FB685A4019
:1027D0007B6C5340BB643B6D4FEAF362F96CFB6D5D
:1027E0001940F86CFB6D1843BB6D03400B43D218C6
:1027F000BB6C4FEAF3737B647B6CD2187B6DD21891
:102800004BF6DC43C8F61B73D3187B65FB6C4FEAB1
:10281000B303FB64FA6BBB6A5A403B695A40BB681E
:102820005340BB647B6D4FEAF362396DFB6C19401A
:10283000386DFB6C1843FB6D03400B43D218BB6C27
:102840004FEAF373BB60BB68D218BB6DD2184BF66E
:10285000DC43C8F61B73D318BB653B6D4FEAB3036B
:102860003B653A6CFB6A5A407B695A40FB685340AF
:10287000BB64BB6D4FEAF362796D3B6D1940786DB7
:102880003B6D1843FB6C03400B43D218BB6C4FEA03
:10289000F373FB60FB68D218FB6DD2184BF6DC4378
:1028A000C8F61B73D318FB657B6D4FEAB3037B65DA
:1028B0007A6C3B6B5A40BB695A403B695340BB64DE
:1028C000FB6D4FEAF362B96D7B6D1940B86D7B6D9E
:1028D00018433B6D03400B43D218BB6C4FEAF373B4
:1028E0003B613B69D218FB6CD2184BF6DC43C8F64F
:1028F0001B73D318FB64BB6D4FEAB303BB65BA68A7
:102900007B6B5A40FB695A407B695340BB64FB6C4C
:102910004FEAF362F96DBB6D1940F86DBB6D18435A
:102920007B6D03400B43D218BB6C4FEAF3737B61A2
:102930007B69D2183B6DD2184BF6DC43C8F61B738B
:10294000D3183B65FB6D4FEAB303FB65FA68BB6BBD
:102950005A403B6A5A40BB695340BB643B6D4FEAE7
:10296000F362F96CFB6D1940F86CFB6D1843BB6D9D
:1029700003400B43D218BB6C4FEAF373BB61BB69D6
:10298000D2187B6DD2184BF6DC43C8F61B73D318F4
:102990007B65FB6C4FEAB303FB643A69FB6B5A40FF
:1029A0007B6A5A40FB695340BB647B6D4FEAF3621C
:1029B000396DFB6C1940386DFB6C1843FB6D03409F
:1029C0000B43D218BB6C4FEAF373FB61FB69D2185F
:1029D000BB6DD2184BF6DC43C8F61B73D318BB652E
:1029E0003B6D4FEAB3033B657A693B6C5A40BB6A67
:1029F0005A403B6A5340BB64BB6D4FEAF362796D4A
:102A00003B6D1940786D3B6D1843FB6C03400B43E5
:102A1000D218BB6C4FEAF3733B623B6AD218FB6D72
:102A2000D2184BF6DC43C8F61B73D318FB657B6DDD
:102A30004FEAB3037B65BA697B6C5A40FB6A5A4024
:102A40007B6A5340BB64FB6D4FEAF362B96D7B6DEB
:102A50001940B86D7B6D18433B6D03400B43D21892
:102A6000BB6C4FEAF3737B627B6AD218FB6CD218A3
:102A70004BF6DC43C8F61B73D318FB64BB6D4FEAFF
:102A8000B303BB65FA69BB685A403B6B5A40BB6AEB
:102A90005340BB64FB6C4FEAF362F96DBB6D1940A8
:102AA000F86DBB6D18437B6D03400B43D218BB6CB4
:102AB0004FEAF373BB62BB6AD2183B6DD2184BF678
:102AC000DC43C8F61B73D3183B65FB6D4FEAB303B9
:102AD000FB653A6AFB685A407B6B5A40FB6A53407D
:102AE000BB643B6D4FEAF362F96CFB6D1940F86C07
:102AF000FB6D1843BB6D03400B43D218BB6C4FEA10
:102B0000F373FB62FB6AD2187B6DD2184BF6DC4381
:102B1000C8F61B73D3187B65FB6C4FEAB303FB64E9
:102B20007A6A3B695A40BB6B5A403B6B5340BB646B
:102B30007B6D4FEAF362396DFB6C1940386DFB6CAD
:102B40001843FB6D03400B43D218BB6C4FEAF37381
:102B50003B633B6BD218BB6DD2184BF6DC43C8F617
:102B60001B73D318BB653B6D4FEAB3033B65BA6A71
:102B70007B695A40FB6B5A407B6B5340BB64BB6D17
:102B80004FEAF362796D3B6D1940786D3B6D1843E8
:102B9000FB6C03400B43D218BB6C4FEAF3737B63AF
:102BA0007B6BD218FB6DD2184BF6DC43C8F61B7357
:102BB000D318FB657B6D4FEAB3037B65FA6ABB698B
:102BC0005A403B6C5A40BB6B5340BB64FB6D4FEAB1
:102BD000F362B96D7B6D59403B6D4B40D218BB6CB5
:102BE0004FEAF373BB63BB6BD218FB6CD2184CF289
:102BF000D613CCF66223D318FB64BB6D4FEAB30344
:102C0000BB653A6BFB695A407B6C5A40FB6B534087
:102C1000BB64FB6C4FEAF362F96DBB6D59407B6D91
:102C20004B40D218BB6C4FEAF373FB63FB6BD218BB
:102C30003B6DD2184CF2D613CCF66223D3183B6509
:102C4000FB6D4FEAB303FB657A6B3B6A5A40BB6886
:102C50005A403B6C5340BB643B6D4FEAF362F96CE6
:102C6000FB6D5940BB6D4B40D218BB6C4FEAF37300
:102C70003B643B6CD2187B6DD2184CF2D613CCF669
:102C80006223D3187B65FB6C4FEAB303FB64BA6B1A
:102C90007B6A5A40FB685A407B6C5340BB647B6D37
:102CA0004FEAF362396DFB6C5940FB6D4B40D21813
:102CB000BB6C4FEAF3737B647B6CD218BB6DD2188C
:102CC0004CF2D613CCF66223D318BB653B6D4FEAAA
:102CD000B3033B65FA6BBB6A5A403B695A40BB6819
:102CE0005340BB64BB6D4FEAF362796D3B6D594055
:102CF000FB6C4B40D218BB6C4FEAF373BB60BB68F4
:102D0000D218FB6DD2184CF2D613CCF66223D3182E
:102D1000FB657B6D4FEAB3037B653A6CFB6A5A40F7
:102D20007B695A40FB685340BB64FB6D4FEAF3621A
:102D3000B96D7B6D59403B6D4B40D218BB6C4FEA6F
:102D4000F373FB60FB68D218FB6CD2184CF2D613FD
:102D5000CCF66223D318FB64BB6D4FEAB303BB65AB
:102D60007A6C3B6B5A40BB695A403B695340BB6429
:102D7000FB6C4FEAF362F96DBB6D59407B6D4B40C4
:102D8000D218BB6C4FEAF3733B613B69D2183B6DC1
:102D9000D2184CF2D613CCF66223D3183B65FB6DE8
:102DA0004FEAB303FB65BA687B6B5A40FB695A4034
:102DB0007B695340BB643B6D4FEAF362F96CFB6D7A
:102DC0005940BB6D4B40D218BB6C4FEAF3737B612B
:102DD0007B69D2187B6DD2184CF2D613CCF66223E5
:102DE000D3187B65FB6C4FEAB303FB64FA68BB6BDB
:102DF0005A403B6A5A40BB695340BB647B6D4FEA03
:102E0000F362396DFB6C5940FB6D4B40D218BB6CC3
:102E10004FEAF373BB61BB69D218BB6DD2184CF299
:102E2000D613CCF66223D318BB653B6D4FEAB303D0
:102E30003B653A69FB6B5A407B6A5A40FB695340D9
:102E4000BB64BB6D4FEAF362796D3B6D5940FB6C1F
:102E50004B40D218BB6C4FEAF373FB61FB69D2188D
:102E6000FB6DD2184CF2D613CCF66223D318FB6557
:102E70007B6D4FEAB3037B657A693B6C5A40BB6A52
:102E80005A403B6A5340BB64FB6D4FEAF362B96D35
:102E90007B6D59403B6D4B40D218BB6C4FEAF373CE
:102EA0003B623B6AD218FB6CD2184CF2D613CCF6BC
:102EB0006223D318FB64BB6D4FEAB303BB65BA69E9
:102EC0007B6C5A40FB6A5A407B6A5340BB64FB6C84
:102ED0004FEAF362F96DBB6D59407B6D4B40D218E0
:102EE000BB6C4FEAF3737B627B6AD2183B6DD218DE
:102EF0004CF2D613CCF66223D3183B65FB6D4FEA38
:102F0000B303FB65FA69BB685A403B6B5A40BB6A26
:102F10005340BB643B6D4FEAF362F96CFB6D594063
:102F2000BB6D4B40D218BB6C4FEAF373BB62BB6AFC
:102F3000D2187B6DD2184CF2D613CCF66223D3187C
:102F40007B65FB6C4FEAB303FB643A6AFB685A404B
:102F50007B6B5A40FB6A5340BB647B6D4FEAF36264
:102F6000396DFB6C5940FB6D4B40D218BB6C4FEA7E
:102F7000F373FB62FB6AD218BB6DD2184CF2D61306
:102F8000CCF66223D318BB653B6D4FEAB3033B65B8
:102F90007A6A3B695A40BB6B5A403B6B5340BB64F7
:102FA000BB6D4FEAF362796D3B6D5940FB6C4B4052
:102FB000D218BB6C4FEAF3733B633B6BD218FB6DCB
:102FC000D2184CF2D613CCF66223D318FB657B6D76
:102FD0004FEAB3037B65BA6A7B695A40FB6B5A4080
:102FE0007B6B5340BB64FB6D4FEAF362B96D7B6D45
:102FF00059403B6D4B40D218BB6C4FEAF3737B6377
:103000007B6BD218FB6CD2184CF2D613CCF6622331
:10301000D318FB64BB6D4FEAB303BB65FA6ABB69A7
:103020005A403B6C5A40BB6B5340BB64FB6C4FEA4D
:10303000F362F96DBB6D59407B6D4B40D218BB6C90
:103040004FEAF373BB63BB6BD2183B6DD2184CF2E3
:10305000D613CCF66223D3183B65FB6D4FEAB3035E
:10306000FB653A6BFB695A407B6C5A40FB6B5340E3
:10307000BB643B6D4FEAF362F96CFB6D5940BB6D6D
:103080004B40D218BB6C4FEAF373FB63FB6BD21857
:103090007B6DD2184CF2D613CCF66223D3187B6525
:1030A000FB6C4FEAB303FB647A6B3B6A5A40BB6824
:1030B0005A403B6C5340BB647B6D4FEAF362396D01
:1030C000FB6C5940FB6D4B40D218BB6C4FEAF3735D
:1030D0003B643B6CD218BB6DD2184CF2D613CCF6C5
:1030E0006223D318BB653B6D4FEAB3033B65BA6BF4
:1030F0007B6A5A40FB685A407B6C5340BB64BB6D93
:103100004FEAF362796D3B6D5940FB6C4B40D2182E
:10311000BB6C4FEAF3737B647B6CD218FB6DD218E7
:103120004CF2D613CCF66223D318FB657B6D4FEAC5
:10313000B3037B657B689A68FB6DD2187B689A60E5
:103140007B68DA68BB6DD2187B68DA607B681A69C5
:103150007B6DD2187B681A617B685A693B6DD21807
:103160007B685A617B689A69FB6CD2187B689A61AC
:1031700007F16407BD4680BC704700BF80B586B0CC
:1031800000AFF860B9607A607B68002B62D0FB68A2
:103190001B6803F03F037B617B69C3F140033B6124
:1031A000FB681A687B68D218FB681A60FB681A68AB
:1031B000FB681A60FB681A687B689A4205D2FB6854
:1031C0005B6803F10102FB685A607B69002B2ED01B
:1031D0007A683B699A422AD37B6903F11803FA683B
:1031E000D31803F104031846B9683A6908F052FB92
:1031F000FB6803F11C03F8681946FEF741FBBA6847
:103200003B69D318BB607A683B69D31A7B604FF087
:1032100000037B610BE0F868B968FEF731FBBB681F
:1032200003F14003BB607B68A3F140037B607B68D4
:103230003F2BF0D87B68002B0DD07B6903F118037E
:10324000FA68D31803F104031846B9687A6808F0DD
:1032500021FB00E000BF07F11807BD4680BD00BF9D
:1032600080B588B000AF786039607B681B684FEA32
:1032700053727B685B684FEAC3031343FB617B684F
:103280001B684FEAC303BB61FB694FEA1363DBB200
:103290003B72FB694FEA1343DBB27B72FB694FEA77
:1032A0001323DBB2BB72FB69DBB2FB72BB694FEA73
:1032B0001363DBB23B73BB694FEA1343DBB27B732F
:1032C000BB694FEA1323DBB2BB73BB69DBB2FB7391
:1032D0007B681B6803F03F037B617B69372B03D856
:1032E0007B69C3F1380302E07B69C3F178033B617A
:1032F00078684BF6C431C0F600013A69FFF73EFF2B
:1033000007F10803786819464FF00802FFF736FF07
:103310007B689B684FEA1363DAB23B681A703B68BC
:1033200003F101037A6892684FEA1242D2B21A702E
:103330003B6803F102037A6892684FEA1222D2B224
:103340001A703B6803F103037A689268D2B21A706C
:103350003B6803F104037A68D2684FEA1262D2B282
:103360001A703B6803F105037A68D2684FEA12428B
:10337000D2B21A703B6803F106037A68D2684FEA4A
:103380001222D2B21A703B6803F107037A68D2683E
:10339000D2B21A703B6803F108037A6812694FEAE7
:1033A0001262D2B21A703B6803F109037A6812699B
:1033B0004FEA1242D2B21A703B6803F10A037A68EC
:1033C00012694FEA1222D2B21A703B6803F10B0362
:1033D0007A681269D2B21A703B6803F10C037A68FA
:1033E00052694FEA1262D2B21A703B6803F10D03C0
:1033F0007A6852694FEA1242D2B21A703B6803F1FE
:103400000E037A6852694FEA1222D2B21A703B68F0
:1034100003F10F037A685269D2B21A703B6803F164
:1034200010037A6892694FEA1262D2B21A703B684E
:1034300003F111037A6892694FEA1242D2B21A700C
:103440003B6803F112037A6892694FEA1222D2B202
:103450001A703B6803F113037A689269D2B21A704A
:1034600007F12007BD4680BD80B59CB000AFF86075
:10347000B9607A6007F114031846FEF7D1F907F135
:1034800014031846F968BA68FFF778FE07F11403C9
:1034900018467968FFF7E4FE07F1140318464FF069
:1034A00000014FF05C0208F0A3FA07F17007BD4677
:1034B00080BD00BF80B483B000AF78600B46FB7066
:1034C0007B68FA7883F868207B684FF000025A60C6
:1034D0007B685A687B681A60FB78002B02D0012B4E
:1034E00031D061E07A6849F6D863CCF20513936075
:1034F0007A684DF20753C3F27C63D3607A684DF665
:103500001753C3F2700313617A6845F63913CFF28B
:103510000E7353617A6840F63133CFF6C07393610E
:103520007A6841F21153C6F65803D3617A6848F6B7
:10353000A773C6F2F94313627A6844F6A473CBF614
:10354000FA63536231E07A684EF26763C6F6092384
:1035500093607A684AF68563CBF66733D3607A68FE
:103560004FF27233C3F66E4313617A684FF23A53E7
:10357000CAF24F5353617A6845F27F23C5F20E13A6
:1035800093617A6846F68C03C9F60533D3617A688D
:103590004DF6AB13C1F6837313627A684CF6195378
:1035A000C5F6E033536200E000BF07F10C07BD46EB
:1035B00080BC704780B4CDB000AF07F10403186041
:1035C0003B4619603B461B681B784FEA03623B464B
:1035D0001B6803F101031B784FEA03431A433B4680
:1035E0001B6803F102031B784FEA03231A433B468F
:1035F0001B6803F103031B781A4307F108031A60E1
:103600003B461B6803F104031B784FEA03623B4609
:103610001B6803F105031B784FEA03431A433B463B
:103620001B6803F106031B784FEA03231A433B464A
:103630001B6803F107031B781A4307F108035A605C
:103640003B461B6803F108031B784FEA03623B46C5
:103650001B6803F109031B784FEA03431A433B46F7
:103660001B6803F10A031B784FEA03231A433B4606
:103670001B6803F10B031B781A4307F108039A60D8
:103680003B461B6803F10C031B784FEA03623B4681
:103690001B6803F10D031B784FEA03431A433B46B3
:1036A0001B6803F10E031B784FEA03231A433B46C2
:1036B0001B6803F10F031B781A4307F10803DA6054
:1036C0003B461B6803F110031B784FEA03623B463D
:1036D0001B6803F111031B784FEA03431A433B466F
:1036E0001B6803F112031B784FEA03231A433B467E
:1036F0001B6803F113031B781A4307F108031A61CF
:103700003B461B6803F114031B784FEA03623B46F8
:103710001B6803F115031B784FEA03431A433B462A
:103720001B6803F116031B784FEA03231A433B4639
:103730001B6803F117031B781A4307F108035A614A
:103740003B461B6803F118031B784FEA03623B46B4
:103750001B6803F119031B784FEA03431A433B46E6
:103760001B6803F11A031B784FEA03231A433B46F5
:103770001B6803F11B031B781A4307F108039A61C6
:103780003B461B6803F11C031B784FEA03623B4670
:103790001B6803F11D031B784FEA03431A433B46A2
:1037A0001B6803F11E031B784FEA03231A433B46B1
:1037B0001B6803F11F031B781A4307F10803DA6142
:1037C0003B461B6803F120031B784FEA03623B462C
:1037D0001B6803F121031B784FEA03431A433B465E
:1037E0001B6803F122031B784FEA03231A433B466D
:1037F0001B6803F123031B781A4307F108031A62BD
:103800003B461B6803F124031B784FEA03623B46E7
:103810001B6803F125031B784FEA03431A433B4619
:103820001B6803F126031B784FEA03231A433B4628
:103830001B6803F127031B781A4307F108035A6238
:103840003B461B6803F128031B784FEA03623B46A3
:103850001B6803F129031B784FEA03431A433B46D5
:103860001B6803F12A031B784FEA03231A433B46E4
:103870001B6803F12B031B781A4307F108039A62B4
:103880003B461B6803F12C031B784FEA03623B465F
:103890001B6803F12D031B784FEA03431A433B4691
:1038A0001B6803F12E031B784FEA03231A433B46A0
:1038B0001B6803F12F031B781A4307F10803DA6230
:1038C0003B461B6803F130031B784FEA03623B461B
:1038D0001B6803F131031B784FEA03431A433B464D
:1038E0001B6803F132031B784FEA03231A433B465C
:1038F0001B6803F133031B781A4307F108031A63AB
:103900003B461B6803F134031B784FEA03623B46D6
:103910001B6803F135031B784FEA03431A433B4608
:103920001B6803F136031B784FEA03231A433B4617
:103930001B6803F137031B781A4307F108035A6326
:103940003B461B6803F138031B784FEA03623B4692
:103950001B6803F139031B784FEA03431A433B46C4
:103960001B6803F13A031B784FEA03231A433B46D3
:103970001B6803F13B031B781A4307F108039A63A2
:103980003B461B6803F13C031B784FEA03623B464E
:103990001B6803F13D031B784FEA03431A433B4680
:1039A0001B6803F13E031B784FEA03231A433B468F
:1039B0001B6803F13F031B781A4307F10803DA631E
:1039C00007F104031B689B68C7F82C3107F1040357
:1039D0001B68DB68C7F8283107F104031B681B6903
:1039E000C7F8243107F104031B685B69C7F820316D
:1039F00007F104031B689B69C7F81C3107F1040336
:103A00001B68DB69C7F8183107F104031B681B6AE0
:103A1000C7F8143107F104031B685B6AC7F810315B
:103A2000D7F81C314FEAB312D7F81C314FEAF32311
:103A30005A40D7F81C314FEA73635A40D7F8103117
:103A4000D218D7F81811D7F814315940D7F81C31CB
:103A50001940D7F814314B40D21807F108031B68FE
:103A6000D21842F69873C4F28A23D318C7F80C31DF
:103A7000D7F82C314FEAB302D7F82C314FEA733321
:103A80005A40D7F82C314FEAB3535A40D7F82C118B
:103A9000D7F828311940D7F82C01D7F82831184326
:103AA000D7F8243103400B43D318C7F80831D7F8AF
:103AB0002021D7F80C31D318C7F82031D7F80C21C2
:103AC000D7F80831D318C7F81031D7F820314FEAAA
:103AD000B312D7F820314FEAF3235A40D7F82031F8
:103AE0004FEA73635A40D7F81431D218D7F81C1133
:103AF000D7F818315940D7F820311940D7F8183184
:103B00004B40D21807F108035B68D21844F2914386
:103B1000C7F23713D318C7F80C31D7F810314FEA72
:103B2000B302D7F810314FEA73335A40D7F8103147
:103B30004FEAB3535A40D7F81011D7F82C31194037
:103B4000D7F81001D7F82C311843D7F828310340A3
:103B50000B43D318C7F80831D7F82421D7F80C3114
:103B6000D318C7F82431D7F80C21D7F80831D31867
:103B7000C7F81431D7F824314FEAB312D7F82431FB
:103B80004FEAF3235A40D7F824314FEA73635A407F
:103B9000D7F81831D218D7F82011D7F81C3159406E
:103BA000D7F824311940D7F81C314B40D21807F10F
:103BB00008039B68D2184FF6CF33CBF2C053D3180B
:103BC000C7F80C31D7F814314FEAB302D7F81431E3
:103BD0004FEA73335A40D7F814314FEAB3535A407F
:103BE000D7F81411D7F810311940D7F81401D7F8C5
:103BF00010311843D7F82C3103400B43D318C7F8C2
:103C00000831D7F82821D7F80C31D318C7F8283154
:103C1000D7F80C21D7F80831D318C7F81831D7F8DE
:103C200028314FEAB312D7F828314FEAF3235A402C
:103C3000D7F828314FEA73635A40D7F81C31D218AD
:103C4000D7F82411D7F820315940D7F82831194036
:103C5000D7F820314B40D21807F10803DB68D2189F
:103C60004DF6A533CEF6B513D318C7F80C31D7F8F7
:103C700018314FEAB302D7F818314FEA73335A407C
:103C8000D7F818314FEAB3535A40D7F81811D7F87C
:103C900014311940D7F81801D7F814311843D7F860
:103CA000103103400B43D318C7F80831D7F82C2143
:103CB000D7F80C31D318C7F82C31D7F80C21D7F826
:103CC0000831D318C7F81C31D7F82C314FEAB3129A
:103CD000D7F82C314FEAF3235A40D7F82C314FEA6A
:103CE00073635A40D7F82031D218D7F82811D7F883
:103CF00024315940D7F82C311940D7F824314B40A2
:103D0000D21807F108031B69D2184CF25B23C3F6E3
:103D10005613D318C7F80C31D7F81C314FEAB30249
:103D2000D7F81C314FEA73335A40D7F81C314FEAA9
:103D3000B3535A40D7F81C11D7F818311940D7F8A7
:103D40001C01D7F818311843D7F8143103400B433E
:103D5000D318C7F80831D7F81021D7F80C31D31889
:103D6000C7F81031D7F80C21D7F80831D318C7F8A5
:103D70002031D7F810314FEAB312D7F810314FEA9B
:103D8000F3235A40D7F810314FEA73635A40D7F8FB
:103D90002431D218D7F82C11D7F828315940D7F848
:103DA00010311940D7F828314B40D21807F10803D9
:103DB0005B69D21841F2F113C5F6F113D318C7F8B5
:103DC0000C31D7F820314FEAB302D7F820314FEA4F
:103DD00073335A40D7F820314FEAB3535A40D7F8DB
:103DE0002011D7F81C311940D7F82001D7F81C3121
:103DF0001843D7F8183103400B43D318C7F80831DC
:103E0000D7F81421D7F80C31D318C7F81431D7F8E4
:103E10000C21D7F80831D318C7F82431D7F814315A
:103E20004FEAB312D7F814314FEAF3235A40D7F8C8
:103E300014314FEA73635A40D7F82831D218D7F8B3
:103E40001011D7F82C315940D7F814311940D7F850
:103E50002C314B40D21807F108039B69D21848F265
:103E6000A423C9F23F23D318C7F80C31D7F8243163
:103E70004FEAB302D7F824314FEA73335A40D7F8E8
:103E800024314FEAB3535A40D7F82411D7F82031E0
:103E90001940D7F82401D7F820311843D7F81C313E
:103EA00003400B43D318C7F80831D7F81821D7F8C7
:103EB0000C31D318C7F81831D7F80C21D7F80831CE
:103EC000D318C7F82831D7F818314FEAB312D7F80A
:103ED00018314FEAF3235A40D7F818314FEA736389
:103EE0005A40D7F82C31D218D7F81411D7F810311E
:103EF0005940D7F818311940D7F810314B40D21833
:103F000007F10803DB69D21845F6D563CAF61C33FE
:103F1000D318C7F80C31D7F828314FEAB302D7F8D5
:103F200028314FEA73335A40D7F828314FEAB35358
:103F30005A40D7F82811D7F824311940D7F828016A
:103F4000D7F824311843D7F8203103400B43D31856
:103F5000C7F80831D7F81C21D7F80C31D318C7F8A7
:103F60001C31D7F80C21D7F80831D318C7F82C31F9
:103F7000D7F81C314FEAB312D7F81C314FEAF323BC
:103F80005A40D7F81C314FEA73635A40D7F81031C2
:103F9000D218D7F81811D7F814315940D7F81C3176
:103FA0001940D7F814314B40D21807F108031B6AA7
:103FB000D2184AF69823CDF60703D318C7F80C3168
:103FC000D7F82C314FEAB302D7F82C314FEA7333CC
:103FD0005A40D7F82C314FEAB3535A40D7F82C1136
:103FE000D7F828311940D7F82C01D7F828311843D1
:103FF000D7F8243103400B43D318C7F80831D7F85A
:104000002021D7F80C31D318C7F82031D7F80C216C
:10401000D7F80831D318C7F81031D7F820314FEA54
:10402000B312D7F820314FEAF3235A40D7F82031A2
:104030004FEA73635A40D7F81431D218D7F81C11DD
:10404000D7F818315940D7F820311940D7F818312E
:104050004B40D21807F108035B6AD21845F60133CA
:10406000C1F28323D318C7F80C31D7F810314FEAC7
:10407000B302D7F810314FEA73335A40D7F81031F2
:104080004FEAB3535A40D7F81011D7F82C311940E2
:10409000D7F81001D7F82C311843D7F8283103404E
:1040A0000B43D318C7F80831D7F82421D7F80C31BF
:1040B000D318C7F82431D7F80C21D7F80831D31812
:1040C000C7F81431D7F824314FEAB312D7F82431A6
:1040D0004FEAF3235A40D7F824314FEA73635A402A
:1040E000D7F81831D218D7F82011D7F81C31594019
:1040F000D7F824311940D7F81C314B40D21807F1BA
:1041000008039B6AD21848F2BE53C2F23143D31857
:10411000C7F80C31D7F814314FEAB302D7F814318D
:104120004FEA73335A40D7F814314FEAB3535A4029
:10413000D7F81411D7F810311940D7F81401D7F86F
:1041400010311843D7F82C3103400B43D318C7F86C
:104150000831D7F82821D7F80C31D318C7F82831FF
:10416000D7F80C21D7F80831D318C7F81831D7F889
:1041700028314FEAB312D7F828314FEAF3235A40D7
:10418000D7F828314FEA73635A40D7F81C31D21858
:10419000D7F82411D7F820315940D7F828311940E1
:1041A000D7F820314B40D21807F10803DB6AD21848
:1041B00047F6C353C5F20C53D318C7F80C31D7F8E0
:1041C00018314FEAB302D7F818314FEA73335A4027
:1041D000D7F818314FEAB3535A40D7F81811D7F827
:1041E00014311940D7F81801D7F814311843D7F80B
:1041F000103103400B43D318C7F80831D7F82C21EE
:10420000D7F80C31D318C7F82C31D7F80C21D7F8D0
:104210000831D318C7F81C31D7F82C314FEAB31244
:10422000D7F82C314FEAF3235A40D7F82C314FEA14
:1042300073635A40D7F82031D218D7F82811D7F82D
:1042400024315940D7F82C311940D7F824314B404C
:10425000D21807F108031B6BD21845F67453C7F246
:10426000BE23D318C7F80C31D7F81C314FEAB3027C
:10427000D7F81C314FEA73335A40D7F81C314FEA54
:10428000B3535A40D7F81C11D7F818311940D7F852
:104290001C01D7F818311843D7F8143103400B43E9
:1042A000D318C7F80831D7F81021D7F80C31D31834
:1042B000C7F81031D7F80C21D7F80831D318C7F850
:1042C0002031D7F810314FEAB312D7F810314FEA46
:1042D000F3235A40D7F810314FEA73635A40D7F8A6
:1042E0002431D218D7F82C11D7F828315940D7F8F3
:1042F00010311940D7F828314B40D21807F1080384
:104300005B6BD2184BF2FE13C8F2DE03D318C7F86A
:104310000C31D7F820314FEAB302D7F820314FEAF9
:1043200073335A40D7F820314FEAB3535A40D7F885
:104330002011D7F81C311940D7F82001D7F81C31CB
:104340001843D7F8183103400B43D318C7F8083186
:10435000D7F81421D7F80C31D318C7F81431D7F88F
:104360000C21D7F80831D318C7F82431D7F8143105
:104370004FEAB312D7F814314FEAF3235A40D7F873
:1043800014314FEA73635A40D7F82831D218D7F85E
:104390001011D7F82C315940D7F814311940D7F8FB
:1043A0002C314B40D21807F108039B6BD21840F216
:1043B000A763C9F6DC33D318C7F80C31D7F824311A
:1043C0004FEAB302D7F824314FEA73335A40D7F893
:1043D00024314FEAB3535A40D7F82411D7F820318B
:1043E0001940D7F82401D7F820311843D7F81C31E9
:1043F00003400B43D318C7F80831D7F81821D7F872
:104400000C31D318C7F81831D7F80C21D7F8083178
:10441000D318C7F82831D7F818314FEAB312D7F8B4
:1044200018314FEAF3235A40D7F818314FEA736333
:104430005A40D7F82C31D218D7F81411D7F81031C8
:104440005940D7F818311940D7F810314B40D218DD
:1044500007F10803DB6BD2184FF27413CCF29B13F5
:10446000D318C7F80C31D7F828314FEAB302D7F880
:1044700028314FEA73335A40D7F828314FEAB35303
:104480005A40D7F82811D7F824311940D7F8280115
:10449000D7F824311843D7F8203103400B43D31801
:1044A000C7F80831D7F81C21D7F80C31D318C7F852
:1044B0001C31D7F80C21D7F80831D318C7F82C31A4
:1044C000D7F81C314FEAB312D7F81C314FEAF32367
:1044D0005A40D7F81C314FEA73635A40D7F810316D
:1044E000D218D7F81811D7F814315940D7F81C3121
:1044F0001940D7F814314B40D21807F108039B6BD1
:104500004FEA734107F108039B6B4FEAF3435940AD
:1045100007F108039B6B4FEA9323594007F1080307
:104520005B6AC91807F108035B684FEAF31007F1EB
:1045300008035B684FEAB343584007F108035B6820
:104540004FEAD3034340C91807F108031B68C91891
:1045500007F10803196407F108031B6CD21846F62B
:10456000C113CEF29B43D318C7F80C31D7F82C31C6
:104570004FEAB302D7F82C314FEA73335A40D7F8D9
:104580002C314FEAB3535A40D7F82C11D7F82831C1
:104590001940D7F82C01D7F828311843D7F824311F
:1045A00003400B43D318C7F80831D7F82021D7F8B8
:1045B0000C31D318C7F82031D7F80C21D7F80831BF
:1045C000D318C7F81031D7F820314FEAB312D7F813
:1045D00020314FEAF3235A40D7F820314FEA736372
:1045E0005A40D7F81431D218D7F81C11D7F818311F
:1045F0005940D7F820311940D7F818314B40D2181C
:1046000007F10803DB6B4FEA734107F10803DB6B2B
:104610004FEAF343594007F10803DB6B4FEA93235A
:10462000594007F108039B6AC91807F108039B6802
:104630004FEAF31007F108039B684FEAB343584071
:1046400007F108039B684FEAD3034340C91807F1F9
:1046500008035B68C91807F10803596407F10803E8
:104660005B6CD21844F28673CEF6BE73D318C7F8CB
:104670000C31D7F810314FEAB302D7F810314FEAB6
:1046800073335A40D7F810314FEAB3535A40D7F832
:104690001011D7F82C311940D7F81001D7F82C3168
:1046A0001843D7F8283103400B43D318C7F8083113
:1046B000D7F82421D7F80C31D318C7F82431D7F80C
:1046C0000C21D7F80831D318C7F81431D7F82431A2
:1046D0004FEAB312D7F824314FEAF3235A40D7F800
:1046E00024314FEA73635A40D7F81831D218D7F8FB
:1046F0002011D7F81C315940D7F824311940D7F888
:104700001C314B40D21807F108031B6C4FEA734170
:1047100007F108031B6C4FEAF343594007F1080304
:104720001B6C4FEA9323594007F10803DB6AC91851
:1047300007F10803DB684FEAF31007F10803DB68B1
:104740004FEAB343584007F10803DB684FEAD3034D
:104750004340C91807F108039B68C91807F108030B
:10476000996407F108039B6CD21849F6C653C0F64A
:10477000C173D318C7F80C31D7F814314FEAB3021C
:10478000D7F814314FEA73335A40D7F814314FEA4F
:10479000B3535A40D7F81411D7F810311940D7F84D
:1047A0001401D7F810311843D7F82C3103400B43CC
:1047B000D318C7F80831D7F82821D7F80C31D31807
:1047C000C7F82831D7F80C21D7F80831D318C7F823
:1047D0001831D7F828314FEAB312D7F828314FEA09
:1047E000F3235A40D7F828314FEA73635A40D7F879
:1047F0001C31D218D7F82411D7F820315940D7F8F6
:1048000028311940D7F820314B40D21807F108035E
:104810005B6C4FEA734107F108035B6C4FEAF343AB
:10482000594007F108035B6C4FEA9323594007F1A5
:1048300008031B6BC91807F108031B694FEAF31043
:1048400007F108031B694FEAB343584007F1080317
:104850001B694FEAD3034340C91807F10803DB681B
:10486000C91807F10803D96407F10803DB6CD218F3
:104870004AF2CC13C2F20C43D318C7F80C31D7F864
:1048800018314FEAB302D7F818314FEA73335A4060
:10489000D7F818314FEAB3535A40D7F81811D7F860
:1048A00014311940D7F81801D7F814311843D7F844
:1048B000103103400B43D318C7F80831D7F82C2127
:1048C000D7F80C31D318C7F82C31D7F80C21D7F80A
:1048D0000831D318C7F81C31D7F82C314FEAB3127E
:1048E000D7F82C314FEAF3235A40D7F82C314FEA4E
:1048F00073635A40D7F82031D218D7F82811D7F867
:1049000024315940D7F82C311940D7F824314B4085
:10491000D21807F108039B6C4FEA734107F10803B3
:104920009B6C4FEAF343594007F108039B6C4FEA35
:104930009323594007F108035B6BC91807F108037B
:104940005B694FEAF31007F108035B694FEAB34371
:10495000584007F108035B694FEAD3034340C91885
:1049600007F108031B69C91807F10803196507F166
:1049700008031B6DD21842F66F43C2F6E953D318F1
:10498000C7F80C31D7F81C314FEAB302D7F81C3105
:104990004FEA73335A40D7F81C314FEAB3535A40A9
:1049A000D7F81C11D7F818311940D7F81C01D7F8DF
:1049B00018311843D7F8143103400B43D318C7F804
:1049C0000831D7F81021D7F80C31D318C7F81031B7
:1049D000D7F80C21D7F80831D318C7F82031D7F809
:1049E00010314FEAB312D7F810314FEAF3235A408F
:1049F000D7F810314FEA73635A40D7F82431D218F0
:104A0000D7F82C11D7F828315940D7F81031194070
:104A1000D7F828314B40D21807F10803DB6C4FEA76
:104A2000734107F10803DB6C4FEAF343594007F188
:104A30000803DB6C4FEA9323594007F108039B6B93
:104A4000C91807F108039B694FEAF31007F108033F
:104A50009B694FEAB343584007F108039B694FEA4B
:104A6000D3034340C91807F108035B69C91807F16C
:104A70000803596507F108035B6DD21848F2AA4391
:104A8000C4F67423D318C7F80C31D7F820314FEA95
:104A9000B302D7F820314FEA73335A40D7F82031A8
:104AA0004FEAB3535A40D7F82011D7F81C311940B8
:104AB000D7F82001D7F81C311843D7F81831034034
:104AC0000B43D318C7F80831D7F81421D7F80C31A5
:104AD000D318C7F81431D7F80C21D7F80831D318F8
:104AE000C7F82431D7F814314FEAB312D7F814318C
:104AF0004FEAF3235A40D7F814314FEA73635A4010
:104B0000D7F82831D218D7F81011D7F82C315940DE
:104B1000D7F814311940D7F82C314B40D21807F18F
:104B200008031B6D4FEA734107F108031B6D4FEA41
:104B3000F343594007F108031B6D4FEA9323594093
:104B400007F10803DB6BC91807F10803DB694FEABB
:104B5000F31007F10803DB694FEAB343584007F14C
:104B60000803DB694FEAD3034340C91807F1080380
:104B70009B69C91807F10803996507F108039B6D44
:104B8000D2184AF6DC13C5F6B043D318C7F80C3177
:104B9000D7F824314FEAB302D7F824314FEA733300
:104BA0005A40D7F824314FEAB3535A40D7F824116A
:104BB000D7F820311940D7F82401D7F8203118430D
:104BC000D7F81C3103400B43D318C7F80831D7F886
:104BD0001821D7F80C31D318C7F81831D7F80C21A1
:104BE000D7F80831D318C7F82831D7F818314FEA69
:104BF000B312D7F818314FEAF3235A40D7F81831D7
:104C00004FEA73635A40D7F82C31D218D7F81411F1
:104C1000D7F810315940D7F818311940D7F810316A
:104C20004B40D21807F108035B6D4FEA734107F15F
:104C300008035B6D4FEAF343594007F108035B6DCE
:104C40004FEA9323594007F108031B6CC91807F179
:104C500008031B6A4FEAF31007F108031B6A4FEAC7
:104C6000B343584007F108031B6A4FEAD30343409C
:104C7000C91807F10803DB69C91807F10803D965EA
:104C800007F10803DB6DD21848F6DA03C7F2F963BF
:104C9000D318C7F80C31D7F828314FEAB302D7F848
:104CA00028314FEA73335A40D7F828314FEAB353CB
:104CB0005A40D7F82811D7F824311940D7F82801DD
:104CC000D7F824311843D7F8203103400B43D318C9
:104CD000C7F80831D7F81C21D7F80C31D318C7F81A
:104CE0001C31D7F80C21D7F80831D318C7F82C316C
:104CF000D7F81C314FEAB312D7F81C314FEAF3232F
:104D00005A40D7F81C314FEA73635A40D7F8103134
:104D1000D218D7F81811D7F814315940D7F81C31E8
:104D20001940D7F814314B40D21807F108039B6D96
:104D30004FEA734107F108039B6D4FEAF343594073
:104D400007F108039B6D4FEA9323594007F10803CD
:104D50005B6CC91807F108035B6A4FEAF31007F1AF
:104D600008035B6A4FEAB343584007F108035B6AE4
:104D70004FEAD3034340C91807F108031B6AC91857
:104D800007F10803196607F108031B6ED21845F2F4
:104D90005213C9F63E03D318C7F80C31D7F82C319B
:104DA0004FEAB302D7F82C314FEA73335A40D7F8A1
:104DB0002C314FEAB3535A40D7F82C11D7F8283189
:104DC0001940D7F82C01D7F828311843D7F82431E7
:104DD00003400B43D318C7F80831D7F82021D7F880
:104DE0000C31D318C7F82031D7F80C21D7F8083187
:104DF000D318C7F81031D7F820314FEAB312D7F8DB
:104E000020314FEAF3235A40D7F820314FEA736339
:104E10005A40D7F81431D218D7F81C11D7F81831E6
:104E20005940D7F820311940D7F818314B40D218E3
:104E300007F10803DB6D4FEA734107F10803DB6DEF
:104E40004FEAF343594007F10803DB6D4FEA932320
:104E5000594007F108039B6CC91807F108039B6AC6
:104E60004FEAF31007F108039B6A4FEAB343584037
:104E700007F108039B6A4FEAD3034340C91807F1BF
:104E800008035B6AC91807F10803596607F10803AC
:104E90005B6ED2184CF26D63CAF63103D318C7F8B3
:104EA0000C31D7F810314FEAB302D7F810314FEA7E
:104EB00073335A40D7F810314FEAB3535A40D7F8FA
:104EC0001011D7F82C311940D7F81001D7F82C3130
:104ED0001843D7F8283103400B43D318C7F80831DB
:104EE000D7F82421D7F80C31D318C7F82431D7F8D4
:104EF0000C21D7F80831D318C7F81431D7F824316A
:104F00004FEAB312D7F824314FEAF3235A40D7F8C7
:104F100024314FEA73635A40D7F81831D218D7F8C2
:104F20002011D7F81C315940D7F824311940D7F84F
:104F30001C314B40D21807F108031B6E4FEA734136
:104F400007F108031B6E4FEAF343594007F10803CA
:104F50001B6E4FEA9323594007F10803DB6CC91815
:104F600007F10803DB6A4FEAF31007F10803DB6A75
:104F70004FEAB343584007F10803DB6A4FEAD30313
:104F80004340C91807F108039B6AC91807F10803D1
:104F9000996607F108039B6ED21842F2C873CBF2F0
:104FA0000303D318C7F80C31D7F814314FEAB30212
:104FB000D7F814314FEA73335A40D7F814314FEA17
:104FC000B3535A40D7F81411D7F810311940D7F815
:104FD0001401D7F810311843D7F82C3103400B4394
:104FE000D318C7F80831D7F82821D7F80C31D318CF
:104FF000C7F82831D7F80C21D7F80831D318C7F8EB
:105000001831D7F828314FEAB312D7F828314FEAD0
:10501000F3235A40D7F828314FEA73635A40D7F840
:105020001C31D218D7F82411D7F820315940D7F8BD
:1050300028311940D7F820314B40D21807F1080326
:105040005B6E4FEA734107F108035B6E4FEAF3436F
:10505000594007F108035B6E4FEA9323594007F16B
:1050600008031B6DC91807F108031B6B4FEAF31007
:1050700007F108031B6B4FEAB343584007F10803DD
:105080001B6B4FEAD3034340C91807F10803DB6ADF
:10509000C91807F10803D96607F10803DB6ED218B7
:1050A00047F6C773CBF65973D318C7F80C31D7F846
:1050B00018314FEAB302D7F818314FEA73335A4028
:1050C000D7F818314FEAB3535A40D7F81811D7F828
:1050D00014311940D7F81801D7F814311843D7F80C
:1050E000103103400B43D318C7F80831D7F82C21EF
:1050F000D7F80C31D318C7F82C31D7F80C21D7F8D2
:105100000831D318C7F81C31D7F82C314FEAB31245
:10511000D7F82C314FEAF3235A40D7F82C314FEA15
:1051200073635A40D7F82031D218D7F82811D7F82E
:1051300024315940D7F82C311940D7F824314B404D
:10514000D21807F108039B6E4FEA734107F1080379
:105150009B6E4FEAF343594007F108039B6E4FEAF9
:105160009323594007F108035B6DC91807F1080341
:105170005B6B4FEAF31007F108035B6B4FEAB34335
:10518000584007F108035B6B4FEAD3034340C9184B
:1051900007F108031B6BC91807F10803196707F12A
:1051A00008031B6FD21840F6F333CCF2E063D31838
:1051B000C7F80C31D7F81C314FEAB302D7F81C31CD
:1051C0004FEA73335A40D7F81C314FEAB3535A4071
:1051D000D7F81C11D7F818311940D7F81C01D7F8A7
:1051E00018311843D7F8143103400B43D318C7F8CC
:1051F0000831D7F81021D7F80C31D318C7F810317F
:10520000D7F80C21D7F80831D318C7F82031D7F8D0
:1052100010314FEAB312D7F810314FEAF3235A4056
:10522000D7F810314FEA73635A40D7F82431D218B7
:10523000D7F82C11D7F828315940D7F81031194038
:10524000D7F828314B40D21807F10803DB6E4FEA3C
:10525000734107F10803DB6E4FEAF343594007F14E
:105260000803DB6E4FEA9323594007F108039B6D57
:10527000C91807F108039B6B4FEAF31007F1080305
:105280009B6B4FEAB343584007F108039B6B4FEA0F
:10529000D3034340C91807F108035B6BC91807F132
:1052A0000803596707F108035B6FD21849F24713E7
:1052B000CDF2A753D318C7F80C31D7F820314FEAF5
:1052C000B302D7F820314FEA73335A40D7F8203170
:1052D0004FEAB3535A40D7F82011D7F81C31194080
:1052E000D7F82001D7F81C311843D7F818310340FC
:1052F0000B43D318C7F80831D7F81421D7F80C316D
:10530000D318C7F81431D7F80C21D7F80831D318BF
:10531000C7F82431D7F814314FEAB312D7F8143153
:105320004FEAF3235A40D7F814314FEA73635A40D7
:10533000D7F82831D218D7F81011D7F82C315940A6
:10534000D7F814311940D7F82C314B40D21807F157
:1053500008031B6F4FEA734107F108031B6F4FEA05
:10536000F343594007F108031B6F4FEA9323594059
:1053700007F10803DB6DC91807F10803DB6B4FEA7F
:10538000F31007F10803DB6B4FEAB343584007F112
:105390000803DB6B4FEAD3034340C91807F1080346
:1053A0009B6BC91807F10803996707F108039B6F06
:1053B000D21846F25133C0F2CA63D318C7F80C3181
:1053C000D7F824314FEAB302D7F824314FEA7333C8
:1053D0005A40D7F824314FEAB3535A40D7F8241132
:1053E000D7F820311940D7F82401D7F820311843D5
:1053F000D7F81C3103400B43D318C7F80831D7F84E
:105400001821D7F80C31D318C7F81831D7F80C2168
:10541000D7F80831D318C7F82831D7F818314FEA30
:10542000B312D7F818314FEAF3235A40D7F818319E
:105430004FEA73635A40D7F82C31D218D7F81411B9
:10544000D7F810315940D7F818311940D7F8103132
:105450004B40D21807F108035B6F4FEA734107F125
:1054600008035B6F4FEAF343594007F108035B6F92
:105470004FEA9323594007F108031B6EC91807F13F
:1054800008031B6C4FEAF31007F108031B6C4FEA8B
:10549000B343584007F108031B6C4FEAD303434062
:1054A000C91807F10803DB6BC91807F10803D967AE
:1054B00007F10803DB6FD21842F66713C1F22943E4
:1054C000D318C7F80C31D7F828314FEAB302D7F810
:1054D00028314FEA73335A40D7F828314FEAB35393
:1054E0005A40D7F82811D7F824311940D7F82801A5
:1054F000D7F824311843D7F8203103400B43D31891
:10550000C7F80831D7F81C21D7F80C31D318C7F8E1
:105510001C31D7F80C21D7F80831D318C7F82C3133
:10552000D7F81C314FEAB312D7F81C314FEAF323F6
:105530005A40D7F81C314FEA73635A40D7F81031FC
:10554000D218D7F81811D7F814315940D7F81C31B0
:105550001940D7F814314B40D21807F108039B6F5C
:105560004FEA734107F108039B6F4FEAF343594039
:1055700007F108039B6F4FEA9323594007F1080393
:105580005B6EC91807F108035B6C4FEAF31007F173
:1055900008035B6C4FEAB343584007F108035B6CA8
:1055A0004FEAD3034340C91807F108031B6CC9181D
:1055B00007F10803C3F8801007F10803D3F880301F
:1055C000D21840F68523C2F2B773D318C7F80C314E
:1055D000D7F82C314FEAB302D7F82C314FEA7333A6
:1055E0005A40D7F82C314FEAB3535A40D7F82C1110
:1055F000D7F828311940D7F82C01D7F828311843AB
:10560000D7F8243103400B43D318C7F80831D7F833
:105610002021D7F80C31D318C7F82031D7F80C2146
:10562000D7F80831D318C7F81031D7F820314FEA2E
:10563000B312D7F820314FEAF3235A40D7F820317C
:105640004FEA73635A40D7F81431D218D7F81C11B7
:10565000D7F818315940D7F820311940D7F8183108
:105660004B40D21807F10803DB6F4FEA734107F193
:105670000803DB6F4FEAF343594007F10803DB6F80
:105680004FEA9323594007F108039B6EC91807F1AD
:1056900008039B6C4FEAF31007F108039B6C4FEA79
:1056A000B343584007F108039B6C4FEAD3034340D0
:1056B000C91807F108035B6CC91807F10803C3F8A0
:1056C000841007F10803D3F88430D21842F238135B
:1056D000C2F61B63D318C7F80C31D7F810314FEA64
:1056E000B302D7F810314FEA73335A40D7F810316C
:1056F0004FEAB3535A40D7F81011D7F82C3119405C
:10570000D7F81001D7F82C311843D7F828310340C7
:105710000B43D318C7F80831D7F82421D7F80C3138
:10572000D318C7F82431D7F80C21D7F80831D3188B
:10573000C7F81431D7F824314FEAB312D7F824311F
:105740004FEAF3235A40D7F824314FEA73635A40A3
:10575000D7F81831D218D7F82011D7F81C31594092
:10576000D7F824311940D7F81C314B40D21807F133
:105770000803D3F880304FEA734107F10803D3F8E8
:1057800080304FEAF343594007F10803D3F88030E3
:105790004FEA9323594007F10803DB6EC91807F15C
:1057A0000803DB6C4FEAF31007F10803DB6C4FEAE8
:1057B000B343584007F10803DB6C4FEAD30343407F
:1057C000C91807F108039B6CC91807F10803C3F84F
:1057D000881007F10803D3F88830D21846F6FC5336
:1057E000C4F62C53D318C7F80C31D7F814314FEA4C
:1057F000B302D7F814314FEA73335A40D7F8143153
:105800004FEAB3535A40D7F81411D7F81031194062
:10581000D7F81401D7F810311843D7F82C310340CA
:105820000B43D318C7F80831D7F82821D7F80C3123
:10583000D318C7F82831D7F80C21D7F80831D31876
:10584000C7F81831D7F828314FEAB312D7F8283102
:105850004FEAF3235A40D7F828314FEA73635A408E
:10586000D7F81C31D218D7F82411D7F82031594075
:10587000D7F828311940D7F820314B40D21807F11A
:105880000803D3F884304FEA734107F10803D3F8D3
:1058900084304FEAF343594007F10803D3F88430CA
:1058A0004FEA9323594007F108031B6FC91807F10A
:1058B00008031B6D4FEAF31007F108031B6D4FEA55
:1058C000B343584007F108031B6D4FEAD30343402D
:1058D000C91807F10803DB6CC91807F10803C3F8FE
:1058E0008C1007F10803D3F88C30D21840F613530C
:1058F000C5F23833D318C7F80C31D7F818314FEA4E
:10590000B302D7F818314FEA73335A40D7F8183139
:105910004FEAB3535A40D7F81811D7F81431194049
:10592000D7F81801D7F814311843D7F810310340CD
:105930000B43D318C7F80831D7F82C21D7F80C310E
:10594000D318C7F82C31D7F80C21D7F80831D31861
:10595000C7F81C31D7F82C314FEAB312D7F82C31E5
:105960004FEAF3235A40D7F82C314FEA73635A4079
:10597000D7F82031D218D7F82811D7F82431594058
:10598000D7F82C311940D7F824314B40D21807F101
:105990000803D3F888304FEA734107F10803D3F8BE
:1059A00088304FEAF343594007F10803D3F88830B1
:1059B0004FEA9323594007F108035B6FC91807F1B9
:1059C00008035B6D4FEAF31007F108035B6D4FEAC4
:1059D000B343584007F108035B6D4FEAD3034340DC
:1059E000C91807F108031B6DC91807F10803C3F8AC
:1059F000901007F10803D3F89030D21847F25433CF
:105A0000C6F20A53D318C7F80C31D7F81C314FEA45
:105A1000B302D7F81C314FEA73335A40D7F81C3120
:105A20004FEAB3535A40D7F81C11D7F81831194030
:105A3000D7F81C01D7F818311843D7F814310340B0
:105A40000B43D318C7F80831D7F81021D7F80C3119
:105A5000D318C7F81031D7F80C21D7F80831D3186C
:105A6000C7F82031D7F810314FEAB312D7F8103108
:105A70004FEAF3235A40D7F810314FEA73635A4084
:105A8000D7F82431D218D7F82C11D7F8283159403B
:105A9000D7F810311940D7F828314B40D21807F108
:105AA0000803D3F88C304FEA734107F10803D3F8A9
:105AB0008C304FEAF343594007F10803D3F88C3098
:105AC0004FEA9323594007F108039B6FC91807F168
:105AD00008039B6D4FEAF31007F108039B6D4FEA33
