:020000040800F2
:10000000C82500206D040008D9040008D9040008A0
:10001000D9040008D9040008D90400080000000031
:10002000000000000000000000000000D9040008EB
:10003000D904000800000000D9040008F1240008D9
:10004000D9040008D9040008D9040008D90400081C
:10005000D9040008D9040008D9040008D90400080C
:10006000D9040008D9040008D9040008D9040008FC
:10007000D9040008D9040008D9040008D9040008EC
:10008000D9040008D9040008D9040008D9040008DC
:10009000D9040008D9040008D9040008D9040008CC
:1000A000D9040008D9040008D9040008D9040008BC
:1000B000D9040008D9040008D9040008D9040008AC
:1000C000D9040008D9040008D9040008D90400089C
:1000D000D9040008D9040008D9040008D90400088C
:1000E000D9040008D9040008D9040008D90400087C
:1000F000D9040008D9040008D9040008D90400086C
:10010000D9040008D9040008D9040008D90400085B
:10011000D9040008D9040008D9040008D90400084B
:10012000D9040008D9040008D9040008D90400083B
:10013000D9040008D9040008D9040008D90400082B
:10014000D9040008D9040008D9040008D90400081B
:10015000D9040008D9040008D9040008D90400080B
:10016000D9040008D9040008D9040008D9040008FB
:10017000D9040008D9040008D9040008D9040008EB
:10018000D9040008D904000880B500AF02F004F8D3
:100190004FF020004FF0010100F038FB80BD00BFA0
:1001A00080B582B000AF786001F0F6FF4FF4A05345
:1001B000C4F2000340F20022C2F2000211684DF6C0
:1001C0008362C4F21B32A2FB01024FEA924292B256
:1001D00002F1FF3292B21A854FF4A053C4F2000329
:1001E00044F24022C0F20F027968B2FBF1F2DA6207
:1001F0004FF4A053C4F200034FF4A052C4F2000223
:10020000128892B242F0010292B21A804FF4A053C7
:10021000C4F20003DB6A184607F10807BD4680BD3B
:1002200080B582B000AF4FF006004FF0010100F042
:10023000C3FA4FF480633B604FF001033B714FF012
:100240000003BB714FF000037B714FF00003FB71A3
:100250003B464FF48060C4F20200194601F0FAFEFA
:100260004FF008033B604FF001033B714FF0000378
:10027000BB714FF000037B714FF00003FB713B46F5
:100280004FF40060C4F20200194601F0E3FE4FF49F
:1002900080533B604FF001033B714FF00003BB7193
:1002A0004FF000037B714FF00003FB713B464FF4AE
:1002B0008060C4F20200194601F0CCFE4FF0040346
:1002C0003B604FF000033B714FF00103FB713B4675
:1002D0004FF40060C4F20200194601F0BBFE4FF477
:1002E00000633B604FF001033B714FF00003BB71B3
:1002F0004FF000037B714FF00003FB713B464FF45E
:100300000060C4F20200194601F0A4FE4FF002039F
:100310003B604FF000033B714FF00103FB713B4624
:100320004FF40060C4F20200194601F093FE07F199
:100330000807BD4680BD00BF80B483B000AF034650
:10034000FB71FB79002B07D04FF48063C4F20203EA
:100350004FF480621A8306E04FF48063C4F2020314
:100360004FF480625A8307F10C07BD4680BC70478A
:1003700080B483B000AF0346FB71FB79002B07D03C
:100380004FF40063C4F202034FF008021A8306E040
:100390004FF40063C4F202034FF008025A8307F1DE
:1003A0000C07BD4680BC704780B483B000AF0346E5
:1003B000FB71FB79002B07D04FF48063C4F202037A
:1003C0004FF480525A8306E04FF48063C4F2020374
:1003D0004FF480521A8307F10C07BD4680BC70476A
:1003E00080B400AF4FF40063C4F202031B69DBB2B8
:1003F00003F00403DBB21846BD4680BC704700BF63
:1004000080B400AF4FF40063C4F202031B6903F031
:100410000203002B14BF00230123DBB21846BD46A4
:1004200080BC704780B483B000AF0346FB71FB799A
:10043000002B07D04FF40063C4F202034FF40062B4
:100440005A8306E04FF40063C4F202034FF40062E3
:100450001A8307F10C07BD4680BC704780B500AF1A
:10046000FFF7DEFEFFF790FE80BD00BF80B582B0D3
:1004700000AF42F61473C0F600037B6040F2000345
:10048000C2F200033B600BE07B681A683B681A60AD
:100490003B6803F104033B607B6803F104037B606A
:1004A0003A6840F21423C2F200039A42ECD308489F
:1004B00008494FF000028842B8BF40F8042BFFF60D
:1004C000FAAF00F061F907F10807BD4680BD0000F2
:1004D00014020020C405002080B400AFFEE700BF76
:1004E000B0B590B000AF4FF40043C4F2BF43FB631C
:1004F0004FF00003C4F22733BB6342F60043C0F65B
:10050000000307F108041D460FCD0FC40FCD0FC423
:1005100095E8070084E8070040F2A453C2F2000304
:100520004FF000021A754FF0000040F20141C0F692
:10053000000100F071FD4FF0000040F2A931C0F65B
:10054000000100F089FD4FF0000040F22541C0F6A7
:10055000000100F0A3FD4FF0000040F2A451C2F2F0
:10056000000100F001FE4FF0000042F6D101C0F69C
:10057000000100F0D7FD4FF0000042F62921C0F63F
:10058000000100F0ADFD40F2A450C2F2000040F2C4
:10059000E131C0F6000102F09FF840F2A450C2F22F
:1005A000000040F27131C0F6000102F087F840F21D
:1005B000A450C2F2000040F23931C0F6000102F04E
:1005C00099F840F2A450C2F200004FF0000102F08E
:1005D000CFF840F2A450C2F200004FF0000102F048
:1005E000B3F840F2A450C2F200004FF0000102F054
:1005F000D3F840F2A450C2F2000048F2A061C0F269
:10060000010102F085F802F001F8044601F0FEFF56
:1006100002464CF6CD43CCF6CC43A3FB02134FEA83
:10062000D303B4FBF3F341F2AD10C0F6000019465A
:1006300001F0F8FF07F107034FF000004FF002014F
:100640001A4601F04BFA034687F837304FF00000A6
:100650004FF00A0140F2DC22C2F200024FF0010327
:1006600001F0C8F84FF000004FF00A0140F200021C
:10067000C2F200024FF0010301F064F94FF00000F4
:100680004FF00A0140F20002C2F200024FF00103F3
:1006900001F0B0F84FF000004FF00A0140F2DC2208
:1006A000C2F200024FF0010301F04CF907F14007DC
:1006B000BD46B0BD80B400AF4FF001031846BD4643
:1006C00080BC704780B400AF4FF001031846BD46B0
:1006D00080BC704780B400AF4FF001031846BD46A0
:1006E00080BC704780B400AF4FF001031846BD4690
:1006F00080BC704780B400AF4FF001031846BD4680
:1007000080BC704780B400AF4FF001031846BD466F
:1007100080BC704780B400AF4FF001031846BD465F
:1007200080BC704780B400AF4FF001031846BD464F
:1007300080BC704780B400AF4FF001031846BD463F
:1007400080BC704780B400AF4FF001031846BD462F
:1007500080BC704780B500AFFFF780FE4FF47A7021
:1007600001F028FF40F2A110C0F6000001F0D2FD18
:1007700041F22440C4F2000001F0DEFD4FF47A7033
:1007800001F0FAFD80BD00BF90B583B000AFFFF768
:10079000E1FFFFF7A5FE4FF0000001F075FF786064
:1007A00000BF7B6803F101044FF0000001F06CFF13
:1007B00003469C42F5DCEEE780B483B000AF78607E
:1007C0000B46FB70FB78002B0CD04FF46053C4F247
:1007D00002034FF46052C4F20202116B7A680A43BA
:1007E0001A630DE04FF46053C4F202034FF46052F9
:1007F000C4F20202116B7A686FEA02020A401A63BD
:1008000007F10C07BD4680BC704700BF80B483B0C1
:1008100000AF78600B46FB70FB78002B0CD04FF4D8
:100820006053C4F202034FF46052C4F20202116C2E
:100830007A680A431A640DE04FF46053C4F202036D
:100840004FF46052C4F20202116C7A686FEA02023D
:100850000A401A6407F10C07BD4680BC704700BF10
:1008600080B485B000AF78604FF00003FB7348F2AE
:10087000A063C0F20103BB607B6803F103031B7834
:1008800003F00703FB7307E0BA6813464FEA8303DC
:100890009B184FEA4303BB60FB7B002B0CBF00237C
:1008A0000123DBB2FA7B02F1FF32FA73002BEBD1AA
:1008B000BB68184607F11407BD4680BC704700BFEF
:1008C00080B582B000AF786040F21422C2F200021C
:1008D00079680B464FEAC3035B1A4FEA8303D318C8
:1008E0005B68002B02D14FF0010315E040F21422A7
:1008F000C2F2000279680B464FEAC3035B1A4FEA63
:100900008303D3185B6898470346002B02D04FF04F
:10091000010301E04FF00003184607F10807BD4648
:1009200080BD00BF80B582B000AF786040F2142275
:10093000C2F2000279680B464FEAC3035B1A4FEA22
:100940008303D3181B68002B02D14FF0000315E07E
:1009500040F21422C2F2000279680B464FEAC30348
:100960005B1A4FEA8303D3181B6898470346002B92
:1009700002D04FF0010301E04FF00003184607F1E9
:100980000807BD4680BD00BF80B483B000AF78606B
:1009900040F21423C2F200037A684FEA02129B1855
:1009A00003F138035B79DBB2184607F10C07BD464B
:1009B00080BC704780B582B000AF78600B46FB709A
:1009C00040F21423C2F200037A684FEA02129B1825
:1009D00003F13803FA785A7140F21422C2F200028D
:1009E00079680B464FEAC3035B1A4FEA8303D318B7
:1009F00003F108035B68002B11D040F21422C2F20D
:100A0000000279680B464FEAC3035B1A4FEA83037F
:100A1000D31803F108035B68FA781046984707F18A
:100A20000807BD4680BD00BF80B582B000AF7860CA
:100A30000B46FB7040F21422C2F2000279680B46AA
:100A40004FEAC3035B1A4FEA8303D31803F1080389
:100A50001B68002B11D040F21422C2F20002796808
:100A60000B464FEAC3035B1A4FEA8303D31803F123
:100A700008031B68FA781046984707F10807BD4637
:100A800080BD00BF90B583B000AF78600B46FB70AF
:100A900040F21422C2F2000279680B464FEAC30307
:100AA0005B1A4FEA8303D31803F118031C6840F262
:100AB0001422C2F2000279680B464FEAC3035B1AA4
:100AC0004FEA8303D31803F110031A68FB7810462A
:100AD0001946A0470346184607F10C07BD4690BDCE
:100AE00080B582B000AF786078684FF0FF01FFF703
:100AF000C9FF0346184607F10807BD4680BD00BF81
:100B000080B584B000AF786040F21423C2F20003D5
:100B10007A6802F104024FEA02129B184FF0320287
:100B20005A607868FFF7DCFF0346FB73FB7BFF2B03
:100B30000CD040F21423C2F200037A6802F10402DE
:100B40004FEA02129B185B68002BEAD1FB7B184628
:100B500007F11007BD4680BD80B582B000AF786058
:100B600078684FF00001FFF75FFF7868FFF7B8FF84
:100B700007F10807BD4680BD90B583B000AF78602F
:100B800040F21422C2F2000279680B464FEAC30316
:100B90005B1A4FEA8303D31803F110035B68002B41
:100BA00025D040F21422C2F2000279680B464FEAC7
:100BB000C3035B1A4FEA8303D31803F110035C6885
:100BC00040F21422C2F2000279680B464FEAC303D6
:100BD0005B1A4FEA8303D31803F110031B6818460E
:100BE0004FF001014FF00002A047034601E04FF033
:100BF00003035BB2184607F10C07BD4690BD00BF6A
:100C000090B583B000AF786040F21422C2F20002C7
:100C100079680B464FEAC3035B1A4FEA8303D31884
:100C200003F110035B68002B25D040F21422C2F2BE
:100C3000000279680B464FEAC3035B1A4FEA83034D
:100C4000D31803F110035C6840F21422C2F20002D0
:100C500079680B464FEAC3035B1A4FEA8303D31844
:100C600003F110031B6818464FF002014FF0000219
:100C7000A047034601E04FF003035BB2184607F1BB
:100C80000C07BD4690BD00BF80B582B000AF786054
:100C90000B46FB70FB78002B52D078684FF00101B7
:100CA000FFF788FE40F21423C2F200037A6802F1D3
:100CB00004024FEA02129B184FF019025A6000BF5B
:100CC00040F21423C2F200037A6802F104024FEAF0
:100CD00002129B185B68002BF2D178684FF000017C
:100CE000FFF7A2FE7868FFF78BFF0346012B14D0B5
:100CF00078684FF00001FFF75DFE40F21423C2F266
:100D000000037A684FEA02129B1803F138034FF090
:100D100003029A714FF0030343E078684FF0FF013C
:100D2000FFF7B0FE40F21423C2F200037A684FEAE4
:100D300002129B1803F138034FF001029A712EE062
:100D400040F21423C2F200037A684FEA02129B18A1
:100D500003F138039B79DBB25BB2022B07D07868D2
:100D60004FF00101FFF760FE7868FFF7C9FE786871
:100D7000FFF7F2FE7868FFF7FFFE78684FF000019A
:100D8000FFF718FE40F21423C2F200037A684FEA1C
:100D900002129B1803F138034FF000029A714FF0D2
:100DA00001035BB2184607F10807BD4680BD00BFCE
:100DB00080B586B000AFF860B9607A6040F2142365
:100DC000C2F20003FA6802F104024FEA02129B1811
:100DD0004FF00A025A60F868FFF782FE0346FB757F
:100DE000FB7DFF2B0CD140F21423C2F20003FA6802
:100DF00002F104024FEA02129B185B68002BEAD151
:100E0000FB7DFE2B02D04FF0000330E07B6803F047
:100E10000303002B05D07B6803F00303C3F1040335
:100E200001E04FF000037A68D3187B6010E0F868A7
:100E30004FF0FF01FFF726FE03461A46BB681A7003
:100E4000BB6803F10103BB607B6803F1FF337B6088
:100E50007B68002BEBD1F8684FF0FF01FFF712FE23
:100E6000F8684FF0FF01FFF70DFE4FF00103184641
:100E700007F11807BD4680BD80B586B000AFF860A9
:100E8000B9601346FB714FF400737B61F868FFF79C
:100E900037FE0346FF2B02D04FF0000331E0FB7911
:100EA000F8681946FFF7EEFDFB79FD2B27D0BB68EC
:100EB0001B78BA6802F10102BA60F8681946FFF7B8
:100EC000E1FD7B6903F1FF337B617B69002BEED190
:100ED000F8684FF0FF01FFF7D5FDF8684FF0FF010C
:100EE000FFF7D0FDF868FFF7FBFD0346FB74FB7CC2
:100EF00003F01F03052B02D04FF0000301E04FF079
:100F00000103184607F11807BD4680BD80B586B0BD
:100F100000AFF8600B467A60FB72FB7A5BB2002B85
:100F200011DAFB7A03F07F03FB72F8684FF0770168
:100F30004FF00002FFF7EAFF0346BB75BB7D012BB4
:100F400001D9BB7D63E0F8684FF00001FFF76CFD4D
:100F5000F8684FF00101FFF767FDF868FFF7D0FD73
:100F60000346FF2B02D04FF0FF0350E0FB7AF868F6
:100F70001946FFF787FD7B684FEA1363DBB2F86819
:100F80001946FFF77FFD7B684FEA1343DBB2F86831
:100F90001946FFF777FD7B684FEA1323DBB2F86849
:100FA0001946FFF76FFD7B68DBB2F8681946FFF75B
:100FB00069FD4FF00103FB75FB7A402B02D14FF026
:100FC0009503FB75FB7A482B02D14FF08703FB7525
:100FD000FB7DF8681946FFF755FDFB7A4C2B02D1D3
:100FE000F868FFF77DFD4FF00A03FB75F868FFF71F
:100FF00077FD0346BB75BB7D5BB2002B06DAFB7D3C
:1010000003F1FF33FB75FB7D002BEFD1BB7D184651
:1010100007F11807BD4680BD80B483B000AF78608B
:1010200039607B68002B11DB7B68012B0EDC40F202
:101030001422C2F2000279680B464FEAC3035B1A1E
:101040004FEA8303D3183A685A6000E000BF07F103
:101050000C07BD4680BC704780B483B000AF786099
:1010600039607B68002B13DB7B68012B10DC40F2BE
:101070001422C2F2000279680B464FEAC3035B1ADE
:101080004FEA8303D31803F108033A681A6000E0BB
:1010900000BF07F10C07BD4680BC704780B483B029
:1010A00000AF786039607B68002B13DB7B68012B15
:1010B00010DC40F21422C2F2000279680B464FEABB
:1010C000C3035B1A4FEA8303D31803F108033A689A
:1010D0005A6000E000BF07F10C07BD4680BC7047B6
:1010E00080B483B000AF786039607B68002B13DB7D
:1010F0007B68012B10DC40F21422C2F200027968F6
:101100000B464FEAC3035B1A4FEA8303D31803F17C
:1011100010033A685A6000E000BF07F10C07BD46B3
:1011200080BC704780B483B000AF786039607B6862
:10113000002B13DB7B68012B10DC40F21422C2F27F
:10114000000279680B464FEAC3035B1A4FEA830338
:10115000D31803F118033A681A6000E000BF07F1E2
:101160000C07BD4680BC704780B483B000AF786088
:1011700039607B68002B13DB7B68012B10DC40F2AD
:101180001422C2F2000279680B464FEAC3035B1ACD
:101190004FEA8303D31803F110033A681A6000E0A2
:1011A00000BF07F10C07BD4680BC704780B582B018
:1011B00000AF4FF000037B6097E040F21423C2F2CF
:1011C00000037A6802F104024FEA02129B181B68BE
:1011D000002B17D040F21423C2F200037A6802F108
:1011E00004024FEA02129B181B6803F1FF3240F21F
:1011F0001423C2F20003796801F104014FEA0111DE
:101200005B181A6040F21423C2F200037A6802F1FC
:1012100004024FEA02129B185B68002B17D040F2C1
:101220001423C2F200037A6802F104024FEA0212A8
:101230009B185B6803F1FF3240F21423C2F20003F3
:10124000796801F104014FEA01115B185A6040F21C
:101250006C23C2F200037A689B181B78012B1BD108
:101260007868FFF72DFB0346002B15D140F21423BD
:10127000C2F200037A684FEA02129B1803F13803A6
:101280004FF0FF029A7140F26C23C2F200037A68B9
:101290009B184FF000021A7040F26C23C2F2000358
:1012A0007A689B181B78002B1BD17868FFF708FB26
:1012B0000346002B15D040F21423C2F200037A68D3
:1012C0004FEA02129B1803F138034FF000029A71A3
:1012D00040F26C23C2F200037A689B184FF00102BF
:1012E0001A707B6803F101037B607B68012B7FF739
:1012F00064AF07F10807BD4680BD00BF80B582B06E
:1013000000AF78607B68002B2CDB7B68012B29DC2D
:1013100078684FF00001FFF7B7FC7A6813464FEA90
:10132000C3039B1A4FEA830340F21422C2F2000265
:101330009B1818464FF000014FF01C0201F0BCFB57
:101340007B684FEA031303F1380240F21423C2F220
:101350000003D31818464FF000014FF0100201F0BF
:10136000ABFB00E000BF07F10807BD4680BD00BF32
:1013700090B58BB000AF78607B68002B02DB7B6898
:10138000012B02DD4FF003032DE240F21422C2F2E2
:10139000000279680B464FEAC3035B1A4FEA8303E6
:1013A000D31803F108031B68002B02D14FF003038D
:1013B00019E240F21422C2F2000279680B464FEAA9
:1013C000C3035B1A4FEA8303D31803F110031B68AE
:1013D000002B02D14FF0030305E240F21422C2F2C7
:1013E000000279680B464FEAC3035B1A4FEA830396
:1013F000D31803F110035B68002B02D14FF00303F5
:10140000F1E140F21422C2F2000279680B464FEA81
:10141000C3035B1A4FEA8303D31803F118031B6855
:10142000002B02D14FF00303DDE178684FF000019B
:10143000FFF7C0FA7868FFF743FA0346002B0FD195
:1014400040F21423C2F200037A684FEA02129B189A
:1014500003F138034FF0FF029A714FF00303C2E12A
:1014600040F21423C2F200037A684FEA02129B187A
:1014700003F138034FF002029A7178684FF00101CE
:10148000FFF702FC0346032B02D14FF00303AAE14E
:101490004FF4D453C0F206033B6240F21422C2F26E
:1014A000000279680B464FEAC3035B1A4FEA8303D5
:1014B000D31803F110035C6840F21422C2F2000258
:1014C00079680B464FEAC3035B1A4FEA8303D318CC
:1014D00003F110031A6807F1200310464FF054017E
:1014E0001A46A0474FF00A0387F8273008E07868CB
:1014F000FFF7F6FA97F8273003F1FF3387F8273024
:1015000097F82730002BF2D14FF0000387F82530F1
:1015100078684FF040014FF00002FFF7F7FC0346F8
:10152000012B40F0EC8078684FF048014FF4D57201
:10153000FFF7ECFC0346012B40F0858011E097F8A3
:1015400027407868FFF7CCFA03461A4607F12801CE
:101550000B1903F80C2C97F8273003F1010387F8D7
:10156000273097F82730032BE9D9BB7F012B40F0B8
:10157000C680FB7FAA2B40F0C28040F21423C2F247
:1015800000037A6802F104024FEA02129B184FF03E
:10159000C8021A6000BF40F21423C2F200037A6846
:1015A00002F104024FEA02129B181B68002B09D0BB
:1015B00078684FF0E9014FF08042FFF7A7FC03463F
:1015C000002BE8D140F21423C2F200037A6802F142
:1015D00004024FEA02129B181B68002B00F08F8058
:1015E00078684FF07A014FF00002FFF78FFC034656
:1015F000002B40F084804FF0000387F8273011E083
:1016000097F827407868FFF76BFA03461A4607F108
:1016100028010B1903F80C2C97F8273003F101036C
:1016200087F8273097F82730032BE9D93B7F03F061
:101630004003002B02D04FF00C0301E04FF00403F5
:1016400087F825305BE078684FF0E9014FF0000241
:10165000FFF75CFC0346012B08D84FF0020387F824
:1016600025304FF0E90387F8263007E04FF00103FB
:1016700087F825304FF0410387F8263040F21423D5
:10168000C2F200037A6802F104024FEA02129B18C8
:101690004FF0C8021A6000BF40F21423C2F20003E8
:1016A0007A6802F104024FEA02129B181B68002BB1
:1016B0000AD097F82630786819464FF00002FFF7F5
:1016C00025FC0346002BE7D140F21423C2F20003AD
:1016D0007A6802F104024FEA02129B181B68002B81
:1016E00009D078684FF050014FF40072FFF70EFCFC
:1016F0000346002B03D04FF0000387F8253040F25B
:101700001423C2F200037A684FEA02129B1803F115
:10171000380397F825201A717868FFF71DFA97F8B3
:101720002530002B41D040F21423C2F200037A6826
:101730004FEA02129B1803F138034FF001029A712D
:1017400007F10C0378684FF031011A4600F0C6F932
:1017500007F10C031846FFF783F803463B6240F29B
:101760001422C2F2000279680B464FEAC3035B1AE7
:101770004FEA8303D31803F110035C6840F214228C
:10178000C2F2000279680B464FEAC3035B1A4FEAC4
:101790008303D31803F110031A6807F120031046DE
:1017A0004FF054011A46A04711E078684FF000014D
:1017B000FFF76AFA40F21423C2F200037A684FEA94
:1017C00002129B1803F138034FF003029A7140F2A2
:1017D0001423C2F200037A684FEA02129B1803F145
:1017E00038039B79DBB25BB2184607F12C07BD4684
:1017F00090BD00BF80B584B000AFF860B9607A607A
:101800003B60FB68002B02DBFB68012B02DD4FF025
:10181000030390E03B68002B02D14FF003038AE002
:1018200040F21423C2F20003FA684FEA02129B1836
:1018300003F138039B79DBB25BB2012B02D04FF08E
:10184000030378E040F21423C2F20003FA684FEA7F
:1018500002129B1803F138034FF002029A7140F212
:101860001423C2F20003FA684FEA02129B1803F134
:1018700038031B79DBB203F00803002B03D1BB68EC
:101880004FEA4323BB603B68012B15D1F8684FF04A
:101890005101BA68FFF73AFB0346002B32D1F868D2
:1018A00079684FF40072FFF783FA0346002B29D0C2
:1018B0004FF000033B6025E0F8684FF05201BA6832
:1018C000FFF724FB0346002B1CD1F86879684FF41E
:1018D0000072FFF76DFA0346002B0BD07B6803F50F
:1018E00000737B603B6803F1FF333B603B68002B78
:1018F000EBD100E000BFF8684FF04C014FF0000260
:10190000FFF704FBF868FFF727F93B68002B02D0CC
:101910004FF0030301E04FF00103DAB240F2142369
:10192000C2F20003F9684FEA01115B1803F13803B2
:1019300011469971D3B25BB2184607F11007BD4644
:1019400080BD00BF80B584B000AFF860B9607A6038
:101950003B60FB68002B02DBFB68012B02DD4FF0D4
:101960000303B5E0F868FEF7DDFF0346002B02D065
:101970004FF00303ACE03B68002B02D14FF00303B0
:10198000A6E040F21423C2F20003FA684FEA021202
:101990009B1803F138039B79DBB25BB2012B02D0B9
:1019A0004FF0030394E040F21423C2F20003FA68FC
:1019B0004FEA02129B1803F138034FF002029A71AA
:1019C00040F21423C2F20003FA684FEA02129B1895
:1019D00003F138031B79DBB203F00803002B03D1BA
:1019E000BB684FEA4323BB603B68012B15D1F86805
:1019F0004FF05801BA68FFF789FA0346002B4ED121
:101A0000F86879684FF0FE02FFF736FA0346002BBC
:101A100045D04FF000033B6041E040F21423C2F296
:101A20000003FA684FEA02129B1803F138031B798E
:101A3000DBB203F00603002B05D0F8684FF0D701A6
:101A40003A68FFF763FAF8684FF05901BA68FFF790
:101A50005DFA0346002B22D1F86879684FF0FC024A
:101A6000FFF70AFA0346002B0BD07B6803F50073DF
:101A70007B603B6803F1FF333B603B68002BEBD19D
:101A800000E000BFF8684FF000014FF0FD02FFF7E3
:101A9000F3F90346002B02D14FF001033B60F868D5
:101AA000FFF75AF83B68002B02D04FF0030301E028
:101AB0004FF00103DAB240F21423C2F20003F968D6
:101AC0004FEA01115B1803F1380311469971D3B243
:101AD0005BB2184607F11007BD4680BD90B58DB0CA
:101AE00000AFF8600B467A60FB724FF0030387F893
:101AF0002F307B68BB62FB68002B02DBFB68012B8D
:101B000002DD4FF003039EE240F21423C2F2000311
:101B1000FA684FEA02129B1803F138039B79DBB293
:101B20005BB2012B10D040F21423C2F20003FA681A
:101B30004FEA02129B1803F138039B79DBB2002BAA
:101B400002D04FF003037EE2FB7A03F1FF33332B25
:101B500000F2778201A252F823F000BF9D1C00081A
:101B6000A91C000843200008432000084320000867
:101B700043200008432000084320000843200008B9
:101B800043200008432000084320000843200008A9
:101B90004320000843200008C91C0008051D000858
:101BA000CB1D0008D91D0008432000084320000871
:101BB0004320000843200008432000084320000879
:101BC0004320000843200008432000084320000869
:101BD00043200008432000082D1C00084320000873
:101BE0004320000843200008432000084320000849
:101BF0004320000843200008432000084320000839
:101C00004320000843200008432000084320000828
:101C10004320000843200008291F00084B1F00082C
:101C20007F1F0008B31F000809200008BB6A1B784B
:101C3000012B17D0022B23D0002B2CD1F868FEF7F4
:101C4000A3FE0346002B0AD0BB6A03F10104F86827
:101C50004FF00001FFF718F80346DBB223704FF096
:101C60000103F0E1BB6A03F10104F8684FF00101E0
:101C7000FFF70AF80346DBB223704FF00103E2E1FD
:101C8000BB6A03F10104F868FEF77EFE0346237089
:101C90004FF00103D7E14FF00303D4E1F868FFF7F9
:101CA0002DFB4FF00103CEE1F868FFF761FB03461F
:101CB00087F82F307B68002B03D07B6897F82F20A4
:101CC0001A7097F82F30BEE1F8684FF00101FEF767
:101CD000ABFEF868FEF714FF0346FF2B04D14FF06C
:101CE000010387F82F3003E04FF0020387F82F300D
:101CF0007B68002B03D07B6897F82F201A7097F829
:101D00002F30A0E1F8684FF049014FF00002FFF7D3
:101D1000FDF80346002B55D107F11403F868194666
:101D20004FF01002FFF744F80346002B4AD03B7DEA
:101D30004FEA9313DBB2012B0ED17B7F1A463B7F18
:101D40004FEA0323D31803F101037B627B6A4FEA56
:101D500083227B681A6031E07B7E03F00F03DAB2E6
:101D6000BB7F4FEAD313DBB2D318DAB27B7F03F029
:101D70000303DBB24FEA4303DBB2D318DBB203F158
:101D8000020387F82E303B7F4FEA9313DBB21A46EB
:101D9000FB7E4FEA8303D218BB7E03F003034FEAB6
:101DA0008323D31803F101037B6297F82E30A3F14C
:101DB00009037A6A02FA03F27B681A604FF00103A2
:101DC00087F82F3097F82F303DE17B684FF4007291
:101DD0001A804FF0010336E140F21423C2F20003EF
:101DE000FA684FEA02129B1803F138031B79DBB241
:101DF00003F00403002B39D0F8684FF0CD014FF009
:101E00000002FFF783F80346002B40F08A80F86851
:101E1000FEF766FE07F11403F86819464FF010024A
:101E2000FEF7C6FF0346002B7BD04FF0300387F848
:101E30002E3008E0F868FEF753FE97F82E3003F1D5
:101E4000FF3387F82E3097F82E30002BF2D1BB7F6E
:101E50004FEA1313DBB24FF0100202FA03F27B6871
:101E60001A604FF0010387F82F305AE0F8684FF0FE
:101E700049014FF00002FFF749F80346002B50D10B
:101E800007F11403F86819464FF01002FEF790FFAF
:101E90000346002B45D040F21423C2F20003FA6837
:101EA0004FEA02129B1803F138031B79DBB203F0EF
:101EB0000203002B18D0BB7F03F03F034FEA43021D
:101EC000FB7F4FEAD313DBB2D31803F1010297F87B
:101ED00021304FEA9313DBB203F1FF3302FA03F32D
:101EE0001A467B681A6018E0BB7F03F07C034FEA58
:101EF000A3039BB203F10103FA7F02F003024FEA4E
:101F0000C201FA7F4FEA5212D2B28A1802F10102DC
:101F100002FB03F31A467B681A604FF0010387F84F
:101F20002F3097F82F308EE040F21423C2F20003D6
:101F3000FA684FEA02129B1803F138031B79DAB2F0
:101F4000BB6A1A704FF001037DE0F8684FF0490159
:101F50004FF00002FEF7DAFF0346002B0CD1F868C1
:101F6000B96A4FF01002FEF723FF0346002B03D09F
:101F70004FF0010387F82F3097F82F3063E0F868AF
:101F80004FF04A014FF00002FEF7C0FF0346002B5E
:101F90000CD1F868B96A4FF01002FEF709FF03464A
:101FA000002B03D04FF0010387F82F3097F82F3024
:101FB00049E0F8684FF07A014FF00002FEF7A6FF03
:101FC0000346002B1DD14FF0040387F82E3010E09C
:101FD000F868FEF785FD03461A46BB6A1A70BB6AAD
:101FE00003F10103BB6297F82E3003F1FF3387F84A
:101FF0002E3097F82E30002BEAD14FF0010387F8EE
:102000002F3097F82F301EE0F8684FF0CD014FF0D9
:102010000002FEF77BFF0346002B0FD1F868FEF7A6
:102020005FFDF868B96A4FF04002FEF7C1FE034653
:10203000002B03D04FF0010387F82F3097F82F3093
:1020400001E04FF003035BB2184607F13407BD46C9
:1020500090BD00BF80B487B000AF786039604FF0AA
:1020600000037B614FF000033B614FF00003FB6016
:102070004FF000037B6186E07B694FF0010202FABA
:1020800003F33B613B681A683B691340FB60FA68E5
:102090003B699A4273D17B681A687B694FEA4303B4
:1020A0004FF0030101FA03F36FEA03031A407B6860
:1020B0001A607B681A683B681B7919467B694FEA8E
:1020C000430301FA03F31A437B681A603B681B79E8
:1020D000012B03D03B681B79022B34D17B689A68B3
:1020E0007B694FEA43034FF0030101FA03F36FEA00
:1020F00003031A407B689A607B689A683B685B7947
:1021000019467B694FEA430301FA03F31A437B68DC
:102110009A607B685A687B699BB24FF0010101FAB3
:1021200003F36FEA03031A407B685A607B685A68BE
:102130003B689B7919467B699BB201FA03F39BB21A
:102140001A437B685A607B68DA687B699BB24FEA06
:1021500043034FF0030101FA03F36FEA03031A404C
:102160007B68DA607B68DA683B68DB7919467B69F3
:102170004FEA430301FA03F31A437B68DA607B6991
:1021800003F101037B617B690F2B7FF675AF07F1CC
:102190001C07BD4680BC704780B487B000AF4FF0CD
:1021A00000033B614FF000037B614FF00203FB60D3
:1021B0004FF00003BB604FF002037B604FF46053AD
:1021C000C4F202039B6803F00C033B613B69042BE0
:1021D0000DD0082B15D0002B69D140F20023C2F29C
:1021E00000034FF41052C0F2F4021A6069E040F2AA
:1021F0000023C2F2000347F64002C0F27D121A60CB
:102200005FE04FF46053C4F202035B6803F48003A1
:102210004FEA9353BB604FF46053C4F202035B6810
:1022200003F03F037B60BB68002B14D047F64003EC
:10223000C0F27D137A68B3FBF2F24FF46053C4F23C
:102240000203596847F6C0730B404FEA931303FB30
:1022500002F37B6113E04FF41053C0F2F4037A6889
:10226000B3FBF2F24FF46053C4F20203596847F62D
:10227000C0730B404FEA931303FB02F37B614FF4EF
:102280006053C4F202035B6803F440334FEA134324
:1022900003F101034FEA4303FB607A69FB68B2FB79
:1022A000F3F240F20023C2F200031A6009E040F2A8
:1022B0000023C2F200034FF41052C0F2F4021A607D
:1022C00000BF4FF46053C4F202039B6803F0F003B5
:1022D0004FEA131240F20423C2F200039B5CDBB20C
:1022E0003B6140F20023C2F200031A683B6922FA04
:1022F00003F240F20023C2F200031A6040F200230E
:10230000C2F200031B68184607F11C07BD4680BCDB
:10231000704700BF80B483B000AF78607B68002B4B
:1023200005D040F27023C2F200037A681A6007F108
:102330000C07BD4680BC704780B483B000AF7860A6
:102340007B68002B05D040F27023C2F200037A684C
:102350005A6007F10C07BD4680BC704780B400AFDF
:1023600040F27023C2F200031B7DDBB25BB2184661
:10237000BD4680BC704700BF80B582B000AF7860BA
:1023800040F27023C2F200031B68002B2BD040F2F6
:102390007023C2F200034FF000021A7540F270235E
:1023A000C2F200031B6878689847024640F2702327
:1023B000C2F20003DA6040F27023C2F200037A68CE
:1023C0009A6000F01FF8024640F27023C2F2000348
:1023D0001A6140F27023C2F200034FF001021A7535
:1023E0004FF0000308E040F27023C2F200034FF008
:1023F000FF021A754FF00103184607F10807BD46A2
:1024000080BD00BF80B400AF40F27023C2F2000371
:102410009A6844F24023C0F20F039A4214D840F263
:102420007023C2F20003DA6840F27023C2F20003A4
:102430009B6803FB02F24DF68363C4F21B33A3FBDC
:1024400002134FEA934301E04FF000031846BD46E4
:1024500080BC704780B485B000AF786040F27023D4
:10246000C2F200035B681B68FB6040F27023C2F29B
:1024700000031A697B6802FB03F37B6040F2702360
:10248000C2F200035B681A68FB68D21A7B689A4242
:1024900026DD28E040F27023C2F200035B681B686F
:1024A000BB60BA68FB689A4208DDFA68BB68D31A59
:1024B0007A68D3187B60BB68FB6011E0BA68FB6880
:1024C0009A420DDAFA6840F27023C2F20003DB6828
:1024D000D21ABB68D21A7B68D3187B60BB68FB60DA
:1024E0007B68002BD6DC07F11407BD4680BC704723
:1024F00080B582B000AF40F2BC53C2F200031B684B
:1025000003F1010240F2BC53C2F200031A6040F230
:10251000BC53C2F200031A6840F28823C2F20003DF
:102520001B68B2FBF3F103FB01F3D31A002B0BD1B1
:1025300040F2C053C2F200031B6803F1010240F2F3
:10254000C053C2F200031A604FF000037B6029E021
:1025500040F28C23C2F200037A6853F83230002B29
:102560001CD040F2BC53C2F20003196840F28C2226
:10257000C2F200027B684FEAC303D3185B68B1FB69
:10258000F3F203FB02F3CB1A002B07D140F28C23AA
:10259000C2F200037A6853F8323098477B6803F13F
:1025A00001037B607B68092BD2DD07F10807BD467C
:1025B00080BD00BF80B582B000AF7860FFF7ECFD52
:1025C00040F28823C2F200037A681A604EF21003C8
:1025D000CEF2000340F20022C2F2000212684FEA7B
:1025E000D2017A68B1FBF2F25A604EF21003CEF2D9
:1025F00000034EF21002CEF20002126842F0030213
:102600001A6007F10807BD4680BD00BF80B400AF67
:1026100040F28823C2F200031B681846BD4680BC06
:10262000704700BF80B485B000AF786039604FF06C
:102630000003FB601FE040F28C23C2F20003FA6843
:1026400053F83230002B12D140F28C23C2F2000337
:10265000FA68796843F8321040F28C22C2F2000224
:10266000FB684FEAC303D3183A685A6006E0FB6878
:1026700003F10103FB60FB68092BDCDD07F11407A4
:10268000BD4680BC704700BF80B483B000AF7860A7
:102690007B68002B06D040F2C053C2F200031A68D8
:1026A0007B681A6040F2C053C2F200031B681846F0
:1026B00007F10C07BD4680BC704700BF80B483B0F3
:1026C00000AF786039607B683A681A6007F10C07E0
:1026D000BD4680BC704700BF80B483B000AF786057
:1026E00039607B683A685A6007F10C07BD4680BCC8
:1026F000704700BF80B483B000AF786039607B68FA
:102700003A689A6007F10C07BD4680BC704700BF6D
:1027100080B483B000AF786039604AF22013C0F211
:1027200007033A68B3FBF2F27B681A617B681B69A6
:10273000002B03D17B684FF001021A6107F10C07EF
:10274000BD4680BC704700BF80B483B000AF7860E6
:102750000B46FB70FB7803F00103D9B27A68537D16
:1027600061F30003537507F10C07BD4680BC704749
:1027700080B483B000AF78600B46FB70FB7803F049
:102780000103D9B27A68537D61F34103537507F1B0
:102790000C07BD4680BC704780B483B000AF786042
:1027A0000B46FB70FB7803F00103D9B27A68537DC6
:1027B00061F38203537507F10C07BD4680BC704777
:1027C00080B582B000AF78607B689B68002B08D032
:1027D0007B689B687A68527DC2F30002D2B21046D1
:1027E00098477B685B7DDBB203F00403DBB2002B10
:1027F00008D07B68DB68002B04D07B68DB684FF077
:102800000000984778684FF000014FF0180200F080
:1028100053F907F10807BD4680BD00BF80B582B0FF
:1028200000AF78607B681B68002B02D14FF0030378
:1028300048E07B685B68002B02D14FF0030341E066
:102840007B689B68002B02D14FF003033AE07B6862
:102850005B7DDBB203F00403DBB2002B06D07B68A8
:10286000DB68002B02D14FF003032BE0FFF776FD6E
:102870000346012B06D07B684FF003021A754FF018
:1028800003031FE07B684FF002021A757B689B68A8
:102890007A68527DC2F30002D2B2104698477B6834
:1028A0005B7DDBB203F00403DBB2002B04D07B685A
:1028B000DB684FF0000098477B684FF001021A7503
:1028C0004FF001035BB2184607F10807BD4680BD13
:1028D00080B584B000AF78600B46FB704FF000030A
:1028E000FB727B689B687A68527DC2F30002D2B2A9
:1028F000104698477B685B7DDBB203F00403DBB2D4
:10290000002B04D07B68DB684FF0010098474FF044
:102910000003FB6071E07B685B7DDBB203F00203C8
:10292000DBB2002B1DD17B681B68FA7822F07F0296
:10293000D2B210469847FB784FEA4303FB70FB7A0C
:102940004FEA4303FB727B685B6898470346002BA2
:102950000CBF00230123DBB2DAB2FB7A1343DBB2F4
:10296000FB727B681B691846FFF774FD7B689B68E8
:102970007A68527DD2B202F00102D2B2002A14BFAC
:1029800000220122D2B2104698477B685B7DDBB201
:1029900003F00203DBB2002B1DD07B681B68FA78C2
:1029A00022F07F02D2B210469847FB784FEA4303E9
:1029B000FB70FB7A4FEA4303FB727B685B689847C6
:1029C0000346002B0CBF00230123DBB2DAB2FB7AF3
:1029D0001343DBB2FB727B681B691846FFF73AFDB5
:1029E0007B689B687A68527DC2F30002D2B21046BF
:1029F0009847FB6803F10103FB60FB68072B8ADD46
:102A00007B685B7DDBB203F00403DBB2002B04D0F8
:102A10007B68DB684FF000009847FB7A184607F1A7
:102A20001007BD4680BD00BF80B584B000AFF86020
:102A30000B467A60FB72FB7A012B14D0012B02DC6F
:102A4000002B05D02FE0022B13D0542B22D02AE0EC
:102A50007B68002B04D0FB681B7DDAB27B681A70A0
:102A60004FF0010321E0F868FFF7AAFE4FF00103E1
:102A70001BE07B68002B07D0F868FFF7CFFE03460A
:102A80001A467B681A7002E0F868FFF7C7FE4FF03D
:102A900001030AE07B681B68F8681946FFF738FEF7
:102AA0004FF0010301E04FF003035BB2184607F15A
:102AB0001007BD4680BD00BFF0B48407034600F098
:102AC0008E80541E002A00F08880E507CEB211D413
:102AD0001A46671E02F8016B1346154692070FD07F
:102AE000002C7AD003F8016B9A073C461D4607D0AC
:102AF000013CEDE7034603F8016B9A071D46F7D149
:102B0000032C52D9CEB246EA06270F2C47EA0743D8
:102B10002DD9A4F1100217460F2FC2F300162B6017
:102B20006B60AB60EB6005F1100216D93EB1103F4F
:102B3000136053609360D36010320F2F0DD9203F84
:102B400002F11006136053609360D3601361536108
:102B50009361D36120320F2FF1D8A4F1100222F03B
:102B60000F0204F00F041032032C15441DD9271F47
:102B70003E462A46032E42F8043BC7F380070DD990
:102B800027B1043E032E42F8043B07D91746083EFE
:102B900047F8043B53603A1D032EF7D8231F23F058
:102BA0000302131D04F00304ED18B4B12B46C9B29F
:102BB00003F8011B2C19ED436219A34202F0010531
:102BC0000BD01DB103F8011BA34206D01A4602F830
:102BD000011B5970531CA342F8D1F0BC7047054645
:102BE00014468DE7612D70617373776F7264000016
:102BF0000102030405060708090A0B0C0D0E0F104D
:102C00005468657365206172656E27742074686509
:102C10002064726F69647320796F75277265206C08
:102C20006F6F6B696E6720666F72210025303464A8
:102C30002D253032642D2530326420253032643A1F
:102C4000253032643A253032642200004D454E551D
:102C5000000000005461736B2061000041756667DD
:102C600061626520610000005461736B20620000A6
:102C7000417566676162652062000000566965778C
:102C800020496E666F000000496E666F20616E7AA3
:102C9000656967656E0000005461736B2063000016
:102CA0004175666761626520630000005461736B63
:102CB0002064000041756667616265206400000061
:102CC0004241434B000000005A555255434B00000F
:102CD0004C2C00084C2C000800000000007F7F7F77
:102CE00000000000542C00085C2C0008B506000809
:102CF000027F7F7F00000000682C0008702C000815
:102D0000C5060008027F7F7F000000007C2C0008C1
:102D1000882C0008B42D0008037F7F7F000000008E
:102D2000982C0008A02C0008D5060008027F7F7FA1
:102D300000000000AC2C0008B42C0008E5060008D8
:102D4000027F7F7F00000000C02C0008C82C000814
:102D500001000000017F7F7F0000000000000000F4
:102D60000000000000000000007F7F7F00000000E6
:102D7000496E666F726D6174696F6E73000000005A
:102D8000496E666F726D6174696F6E00496E666F31
:102D900020610000496E666F20620000496E666F18
:102DA00020630000496E666F20640000496E666F04
:102DB00020650000702D0008802D0008F506000831
:102DC000027F7F7F000000008C2D00088C2D000802
:102DD00005070008027F7F7F00000000942D000897
:102DE000942D000815070008027F7F7F0000000077
:102DF0009C2D00089C2D000825070008027F7F7F7E
:102E000000000000A42D0008A42D000835070008CC
:102E1000027F7F7F00000000AC2D0008AC2D000871
:102E200045070008027F7F7F00000000C02C0008DB
:102E3000C82C000801000000017F7F7F0000000017
:102E4000000000000000000000000000007F7F7F05
:102E5000000000004954454D53000000414E5449C4
:102E60004B45494D454E41006974656D2031000068
:102E7000616E74696B2031006974656D20320000E9
:102E8000616E74696B2032006974656D20330000D7
:102E9000616E74696B2033006974656D20340000C5
:102EA000616E74696B2034006974656D20350000B3
:102EB000616E74696B203500542E00085C2E00088A
:102EC00000000000682E0008702E000801000000BD
:102ED000782E0008802E000802000000882E0008CE
:102EE000902E000803000000982E0008A02E000875
:102EF00004000000A82E0008B02E00080500000005
:102F00000000000000000000000000003030303001
:042F100000000000BD
:102F14005468657365206172656E277420746865F2
:102F24002064726F69647320796F75277265206CF1
:102F34006F6F6B696E6720666F722100000000007E
:102F4400000000000000000000000000000000007D
:102F5400000000000000000000000000000000006D
:102F6400000000000000000000000000000000005D
:102F7400000000000000000000000000000000004D
:102F8400000000000000000000000000000000003D
:102F9400000000000000000000000000000000002D
:102FA400000000000000000000000000000000001D
:102FB400000000000000000000000000000000000D
:102FC40000000000000000000000000000000000FD
:102FD40000000000000000000000000000000000ED
:102FE40000000000000000000000000000000000DD
:102FF40000000000000000000000000000000000CD
:1030040000000000000000000000000000000000BC
:1030140000000000000000000000000000000000AC
:10302400000000000000000000000000000000009C
:10303400000000000000000000000000000000008C
:10304400000000000000000000000000000000007C
:10305400000000000000000000000000000000006C
:10306400000000000000000000000000000000005C
:10307400000000000000000000000000000000004C
:10308400000000000000000000000000000000003C
:10309400000000000000000000000000000000002C
:1030A400000000000000000000000000000000001C
:1030B400000000000000000000000000000000000C
:1030C40000000000000000000000000000000000FC
:1030D40000000000000000000000000000000000EC
:1030E40000000000000000000000000000000000DC
:1030F40000000000000000000000000000000000CC
:1031040000000000000000000000000000000000BB
:10311400007A030A0000000000000000010203041A
:043124000607080989
:0400000508000000EF
:00000001FF
