:020000040800F2
:1000000020350020890C0008E10C0008E10C0008F4
:10001000E10C0008E10C0008E10C00080000000001
:10002000000000000000000000000000E10C0008DB
:10003000E10C000800000000E10C0008391B00087A
:10004000E10C0008E10C0008E10C0008E10C0008DC
:10005000E10C0008E10C0008E10C0008E10C0008CC
:10006000E10C0008E10C0008E10C0008E10C0008BC
:10007000E10C0008E10C0008E10C0008E10C0008AC
:10008000E10C0008E10C0008E10C0008E10C00089C
:10009000E10C0008E10C0008E10C0008E10C00088C
:1000A000E10C0008E10C0008E10C0008E10C00087C
:1000B000E10C0008E10C0008E10C0008E10C00086C
:1000C000E10C0008E10C0008E10C0008E10C00085C
:1000D000E10C0008E10C0008E10C0008E10C00084C
:1000E000E10C0008E10C0008E10C0008E10C00083C
:1000F000E10C0008E10C0008E10C0008E10C00082C
:10010000E10C0008E10C0008E10C0008E10C00081B
:10011000E10C0008E10C0008E10C0008E10C00080B
:10012000E10C0008E10C0008E10C0008E10C0008FB
:10013000E10C0008E10C0008E10C0008E10C0008EB
:10014000E10C0008E10C0008E10C0008E10C0008DB
:10015000E10C0008E10C0008E10C0008E10C0008CB
:10016000E10C0008E10C0008E10C0008E10C0008BB
:10017000E10C0008E10C0008E10C0008E10C0008AB
:10018000E10C0008E10C000882B0B0B586B000AF09
:10019000786007F1280181E80C0007F128037B61F2
:1001A0007B69D3E90023C7E902237B69D3E9000116
:1001B0007B69D3E9002303F0BBFC02460B461446DF
:1001C0001D467B690833D3E900017B690833D3E915
:1001D000002303F0ADFC02460B462046294603F0FF
:1001E000F5FA02460B461046194601F035FE024666
:1001F0000B467968C1E900237B6803F108047B6939
:100200000833D3E9002310461946D7E9022301F049
:1002100021FE02460B46C4E900231837BD46BDE85F
:10022000B04002B0704700BF80B485B000AF7860C6
:100230000123FB6005E07B685B107B60FB6801339A
:10024000FB607B68012BF6DCFB68013B184614372A
:10025000BD465DF8047B704780B485B000AF786020
:100260000123FB607B68002B01D101230AE005E03C
:10027000FB685B00FB607B68013B7B607B68002B5D
:10028000F6D1FB6818461437BD465DF8047B70470D
:1002900090B48CB000AFF860B9607A607B685B089E
:1002A0003B620123FB623B6ABB6240E0FA6ABB6AC5
:1002B0009A4227D8FB6A1B01FA68D118D1E90023BA
:1002C000C7E90423D1E90223C7E90623FB6A1B011E
:1002D000BA68D418BB6A1B01FA681344D3E9000159
:1002E000D3E90223C4E90001C4E90223BB6A1B016C
:1002F000BA68D118D7E90423C1E90023D7E9062356
:10030000C1E902233B6A7B6206E0BA6A7B6AD31AC0
:10031000BB627B6A5B087B627A6ABB6A9A42F4D9E9
:10032000BA6A7B6A1344BB62FB6A0133FB627B6877
:100330005A1EFB6A9A42B9D8FB68D3E90001D3E997
:100340000223BC68C4E90001C4E902237B6803F10D
:100350008053013B1B01BA68D4187B6803F18053BA
:10036000013B1B01FA681344D3E90001D3E90223DE
:10037000C4E90001C4E902233037BD4690BC704790
:100380002DE9B04FB0B006AFF861B9617A61F86994
:10039000B9697A69FFF77CFF7B691846FFF744FF6C
:1003A000C7F898000123C7F89C3014E14FF0000211
:1003B000914BC7E922234FF000024FF00003C7E939
:1003C0002423D7F89C00FFF747FFC7F88400D7F82D
:1003D00084305B08C7F88030D7F8800003F032FB28
:1003E00002460B4682A1D1E9000103F0CBFC024694
:1003F0000B46C7E91E23D7E91E0101F0E1FC0446C4
:100400000D46D7E91E0101F067FC8046894620466B
:1004100029464FF000024FF0000303F089FB02462B
:100420000B464046494603F0CFF902460B46C7E962
:100430001C232346BB6685F00043FB66D7E91A23DD
:10044000D7E91C01C7E91601C7E918230023C7F83B
:10045000A0304FF000024FF00003C7E90C234FF02B
:100460000002654BC7E90E23A9E0D7F8A030C7F812
:10047000A43077E0D7F8A420D7F8803013447B6508
:100480007B6D1B01BA691344D3E90045D3E902230C
:100490003946CDE90023D7E90E23CDE90223D7E978
:1004A0000C23CDE90423084622462B4603F022FE06
:1004B000D7E90023C7E91023D7E90223C7E91223AC
:1004C000D7E91023C7E90A23D7E91223C7E908238C
:1004D0007B6D1B01BA69D418D7F8A4301B01BA6927
:1004E0001344D3E90001D3E902ABD7E90A2303F0AF
:1004F0006BF902460B469046994650465946D7E955
:10050000082303F061F902460B46C4E90089C4E9F7
:100510000223D7F8A4301B01BA69D418D7F8A43045
:100520001B01BA691344D3E90001D3E902ABD7E94F
:100530000A2303F04BF902460B4690469946504673
:100540005946D7E9082303F041F902460B46C4E9AE
:100550000089C4E90223D7F8A420D7F884301344D3
:10056000C7F8A4307B695A1ED7F8A4309A4281D8C4
:100570003946D7E90C23CDE90023D7E91C23CDE97F
:100580000223D7E91A23CDE904230846D7E90E232D
:1005900003F0B0FDD7E90023C7E92223D7E90223FE
:1005A000C7E92423D7E92223C7E90E23D7E9242367
:1005B000C7E90C23D7F8A0300133C7F8A030D7F82B
:1005C000A020D7F880309A42FFF44FAFD7F89C3084
:1005D0000133C7F89C30D7F89C20D7F898309A425E
:1005E0007FF6E4AEA837BD46BDE8B08FAFF300801C
:1005F000182D4454FB2109400000F03FAFF3008068
:100600002DE9F04FB5B006AFF861B9617A617B6949
:100610005B08C7F8AC30D7F8AC305B08C7F8A83037
:10062000D7F8A82013465B001344C7F8A430F86934
:10063000B969D7F8AC20FFF7A3FE0123C7F8B4309F
:10064000F0E0D7F8AC20D7F8B430D31AC7F8A03010
:10065000D7F8AC20D7F8B4301344C7F89C30D7F89B
:10066000AC20D7F8A0301344C7F89830D7F89C30A6
:100670001B01BA69D618D7F8B4301B010833BA6920
:100680001344D3E90001D7F8A0301B010833BA693D
:100690001344D3E9002303F099F802460B461046B1
:1006A00019464FF000024FF0804303F06BFB024607
:1006B0000B46C6E90023D7F898301B01BA69D11858
:1006C000D7F89C301B01BA691344D3E90023C1E970
:1006D0000023D7F89C301B010833BA69D618D7F825
:1006E000B4301B01BA691344D3E90001D7F8A03034
:1006F0001B01BA691344D3E9002303F065F80246ED
:100700000B46924683F0004B504659464FF000028C
:100710004FF0804303F036FB02460B46C6E9002348
:10072000D7F898301B010833BA69D118D7F89C3034
:100730001B010833BA691344D3E90023144683F03C
:100740000045C1E90045D7F8B4301B01BA69D61895
:10075000D7F8B4301B01BA691344D3E90001D7F8C4
:10076000A0301B01BA691344D3E9002303F02EF82B
:1007700002460B46104619464FF000024FF08043E8
:1007800003F000FB02460B46C6E90023D7F8A03071
:100790001B01BA69D118D7F8B4301B01BA691344E8
:1007A000D3E90023C1E90023D7F8B4301B01083393
:1007B000BA69D618D7F8B4301B010833BA691344A4
:1007C000D3E90001D7F8A0301B010833BA691344FC
:1007D000D3E9002302F0F8FF02460B461046194603
:1007E0004FF000024FF0804303F0CCFA02460B4674
:1007F000C6E90023D7F8A0301B010833BA69D11825
:10080000D7F8B4301B010833BA691344D3E9002385
:10081000904683F00049C1E90089D7F8B43001332C
:10082000C7F8B430D7F8B420D7F8A8309A42FFF40C
:1008300008AFD7F8A4301B01BA69D118D7F8A8308F
:100840001B010833BA691344D3E90023C1E900232B
:10085000D7F8AC301B01BA69D118BB69D3E90223C0
:10086000C1E90023BB6903F10806D7F8A8301B01D2
:100870000833BA69D118D7F8AC301B010833BA690C
:10088000D018D7F8A4301B010833BA6913444FF0CD
:1008900000044FF00005C3E90045D3E90023C0E997
:1008A0000023D0E90023C1E90023D1E90023C6E9F0
:1008B00000234FF000028E4BC7E922234FF00002C5
:1008C0004FF00003C7E924237B691846FFF7ACFC0F
:1008D00003461846FFF7C0FCC7F88400D7F88430F9
:1008E0005B08C7F88030D7F8800003F0ABF8024609
:1008F0000B467DA1D1E9000103F044FA02460B4604
:10090000C7E91E23D7E91E0101F05AFA04460D4635
:10091000D7E91E0101F0E0F98046894620462946C4
:100920004FF000024FF0000303F002F902460B46BD
:100930004046494602F048FF02460B46C7E91C23E1
:100940002346BB6685F00043FB66D7E91A23D7E947
:100950001C01C7E91601C7E918230023C7F8B03006
:100960004FF000024FF00003C7E90C234FF00002E4
:100970005F4BC7E90E23A9E0D7F8B030C7F8B43011
:1009800077E0D7F8B420D7F8803013447B657B6DCF
:100990001B01BA691344D3E90045D3E90223394660
:1009A000CDE90023D7E90E23CDE90223D7E90C23B3
:1009B000CDE90423084622462B4603F09BFBD7E9EA
:1009C0000023C7E91023D7E90223C7E91223D7E997
:1009D0001023C7E90A23D7E91223C7E908237B6D4F
:1009E0001B01BA69D418D7F8B4301B01BA69134493
:1009F000D3E90001D3E902ABD7E90A2302F0E4FE10
:100A000002460B469046994650465946D7E9082378
:100A100002F0DAFE02460B46C4E90089C4E902236B
:100A2000D7F8B4301B01BA69D418D7F8B4301B0119
:100A3000BA691344D3E90001D3E902ABD7E90A2329
:100A400002F0C4FE02460B4690469946504659466F
:100A5000D7E9082302F0BAFE02460B46C4E9008932
:100A6000C4E90223D7F8B420D7F884301344C7F878
:100A7000B4307B695A1ED7F8B4309A4281D83946CF
:100A8000D7E90C23CDE90023D7E91C23CDE90223C4
:100A9000D7E91A23CDE904230846D7E90E2303F04A
:100AA00029FBD7E90023C7E92223D7E90223C7E9B5
:100AB0002423D7E92223C7E90E23D7E92423C7E952
:100AC0000C23D7F8B0300133C7F8B030D7F8B020D6
:100AD000D7F880309A42FFF44FAFBC37BD46BDE82F
:100AE000F08F00BFAFF30080182D4454FB21094064
:100AF0000000F03FAFF300802DE9904389B000AFD4
:100B0000F860B9607A60BB68BB610023FB6119E0E3
:100B1000FB69DB00BA68D418FB691B01FA6813444F
:100B2000D3E90001FB691B010833FA681344D3E9D8
:100B3000002302F04BFE02460B46C4E90023FB698A
:100B40000133FB61FA697B689A42E1D3B868B969FD
:100B50007A68FFF755FD0023FB6126E0FB69DB00A7
:100B6000BA68D418FB691B01BA691344D3E90001C0
:100B7000FB691B010833BA691344D3E9002302F06F
:100B800025FE02460B4690469946786802F05AFFC9
:100B900002460B464046494603F0F4F802460B462F
:100BA000C4E90023FB690133FB61FA697B689A425F
:100BB000D4D37B68FB617B685B007B610CE0FB69E5
:100BC000DB00BA68D1184FF000024FF00003C1E912
:100BD0000023FB690133FB61FA697B699A42EED31A
:100BE0002437BD46BDE8908380B582B002AF00F0E7
:100BF00007FF00F057FE0346002B26D14FF440407C
:100C000000F026F805230093002008217822032312
:100C100000F0FEFD012000F019FE00BF392000F0B9
:100C200051FE0346012BF9D1022000F085FE012080
:100C300000F092FE012000F0C7FE012000F0A8FEA7
:100C4000022000F013FE00F0DBFEBD4680BD00BFB9
:100C500080B485B000AF78600023FB60094B1B684F
:100C6000FB60FB6823F44043FB60FA687B68134336
:100C7000FB60044AFB6813601437BD465DF8047BD3
:100C8000704700BF0070004080B582B000AF0F4BCE
:100C90007B600F4B3B6007E03B681A1D3A607A6847
:100CA000111D796012681A603B680A4A9342F3D3B7
:100CB00009480A494FF000028842B8BF40F8042BA7
:100CC000FADB00F00DFC0837BD4680BD0452000879
:100CD0000000002054080020580800201C2D00208F
:100CE00080B400AFFEE700BFB0B586B000AFC7E983
:100CF00002017A60D7E9020119A3D3E9002302F0C7
:100D000017FF02460B46C7E904237B68002B02D17C
:100D1000D7E904231DE0786802F0A4FE02460B46E2
:100D200010461946D7E9042302F002FF02460B469B
:100D30001046194601F044F804460D46786802F062
:100D400091FE02460B462046294603F01BF8024658
:100D50000B46104619461837BD46B0BDAFF30080AC
:100D6000182D4454FB211940B0B584B000AF786011
:100D70003960786802F066FE02460B461046194656
:100D800027A3D3E9002302F0D3FE02460B46144604
:100D90001D46386802F056FE02460B46204629469C
:100DA00002F0F0FF02460B46C7E90223D7E9020131
:100DB00000F092FF02460B46104619464FF0000223
:100DC0001D4B02F0B5FE02460B4617A1D1E900010A
:100DD00002F0FAFC02460B4614461D46D7E90223F0
:100DE0001046194602F0F2FC02460B461046194620
:100DF00000F072FF02460B46104619460CA3D3E9D9
:100E0000002302F095FE02460B462046294602F0DA
:100E1000DDFC02460B46104619461037BD46B0BDF4
:100E2000182D4454FB211940E17A14AE47E1DA3F12
:100E30007B14AE47E17AB43F0000E03FAFF300809F
:100E4000B0B582B000AF78603960786802F0FAFD22
:100E500002460B461046194617A3D3E9002302F0B9
:100E600067FE02460B4614461D46386802F0EAFD4E
:100E700002460B462046294602F084FF02460B46F6
:100E80001046194600F028FF02460B461046194648
:100E90000BA3D3E9002302F04BFE02460B460AA146
:100EA000D1E9000102F090FC02460B4610461946BB
:100EB0000837BD46B0BD00BF182D4454FB21194072
:100EC000713D0AD7A370DD3F48E17A14AE47E13F98
:100ED000B0B582B000AF786039603B685B087A6873
:100EE000D31A184602F0AEFD02460B4610461946CC
:100EF00002F06CFC02460B4614461D46386802F0B0
:100F0000A1FD02460B462046294602F03BFF024661
:100F10000B464FF00000054902F056FC02460B4616
:100F2000104619460837BD46B0BD00BF0000F03F6F
:100F3000B0B582B000AF78603960786802F082FDA9
:100F400002460B461046194617A3D3E9002302F0C8
:100F5000EFFD02460B4614461D46386802F072FD4E
:100F600002460B462046294602F00CFF02460B467D
:100F70001046194600F0B0FE02460B4610461946D0
:100F80004FF000020A4B02F0D3FD02460B464FF031
:100F90000000074902F018FC02460B4610461946AD
:100FA0000837BD46B0BD00BF182D4454FB21194081
:100FB0000000E03FAFF300802DE9904389B000AF1F
:100FC000786039607B689B685B08FB600023FB618D
:100FD0004FF000024FF00003C7E9042359E0FA691B
:100FE000FB68D31ABB607B681A68FB69DB00D41806
:100FF000386802F037FD804689467B68D3E90623CE
:1010000010461946BA68FFF76FFE02460B46404687
:10101000494602F08DFD02460B46904699467B6894
:101020005B697A689268F8691146984702460B46F0
:101030004046494602F07CFD02460B46C4E90023C7
:101040007B681A687B689968FB69CB1ADB00D1184A
:101050007B681A68FB69DB001344D3E90023C1E90C
:1010600000237B681A68FB69DB001344D3E9002383
:101070001046194602F0AAFB02460B46D7E90401C6
:1010800002F0A4FB02460B46C7E90423FB690133C7
:10109000FB61FA69FB689A42A1D97B681A68FB6810
:1010A000DB001344D3E90023D7E9040102F08CFBF1
:1010B00002460B46C7E904234FF000002549D7E953
:1010C000042302F05FFE02460B46C7E90423002317
:1010D000FB6118E07B681A68FB69DB00D4187B6849
:1010E0001A68FB69DB001344D3E900231046194654
:1010F000D7E9042302F01CFD02460B46C4E9002395
:10110000FB690133FB617B689A68FB699A42E1D213
:101110007B681A68FB68DB00D4187B681A68FB6878
:10112000DB001344D3E900013B68B3F1FF3F03D177
:101130004FF00002074B03E04FF000024FF00003B6
:1011400002F044FB02460B46C4E900232437BD46A7
:10115000BDE890830000F03F2DE9904F8BB000AFC9
:10116000F860B960FB689B685B087B6100237B6269
:101170004FF000024FF00003C7E9062378E07A6AD7
:101180007B69D31A3B61FB681A687B6ADB00D41861
:10119000B86802F067FC80468946FB68D3E90623FD
:1011A000104619463A69FFF79FFD82468B46FB6859
:1011B0005B69FA689268786A1146984702460B465E
:1011C0005046594602F0B4FC02460B4692469B46F6
:1011D000FB68D3E90823104619463A69FFF784FDF6
:1011E000C7E90001FB685B69FA689268786A114692
:1011F000984702460B46D7E9000102F099FC0246E7
:101200000B465046594602F0E1FA02460B4640466C
:10121000494602F08DFC02460B46C4E90023FB68F8
:101220001A68FB6899687B6ACB1ADB00D118FB68E7
:101230001A687B6ADB001344D3E90023C1E9002369
:10124000FB681A687B6ADB001344D3E9002310466D
:10125000194602F0BBFA02460B46D7E9060102F036
:10126000B5FA02460B46C7E906237B6A01337B6267
:101270007A6A7B699A4282D9FB681A687B69DB00CB
:101280001344D3E90023D7E9060102F09DFA024690
:101290000B46C7E906234FF000002649D7E906238D
:1012A00002F070FD02460B46C7E9062300237B626D
:1012B00018E0FB681A687B6ADB00D418FB681A68C0
:1012C0007B6ADB001344D3E9002310461946D7E9B3
:1012D000062302F02DFC02460B46C4E900237B6A7C
:1012E00001337B62FB689A687B6A9A42E1D2FB68B1
:1012F0001A687B69DB00D418FB681A687B69DB001D
:101300001344D3E90001BB68B3F1FF3F03D14FF0B1
:101310000002084B03E04FF000024FF0000302F020
:1013200055FA02460B46C4E900232C37BD46BDE8FA
:10133000908F00BF0000F03F80B483B000AF7860B2
:101340000B46FB70FB78032B01D90023FB707B68F5
:10135000FA781A740C37BD465DF8047B704700BFFD
:1013600080B483B000AF78600B46FB70FB78022B33
:101370000BD0032B0DD0012B03D07B68094A5A6197
:101380000BE07B68084A5A6107E07B68074A5A61AC
:1013900003E07B68064A5A6100BF0C37BD465DF822
:1013A000047B7047690D0008410E0008D10E00084B
:1013B000310F000880B485B000AFF860C7E90023A2
:1013C000F968D7E90023C1E90623F968D7E90623BC
:1013D000C1E908231437BD465DF8047B704700BFA0
:1013E00080B584B000AFF860C7E900234FF000007B
:1013F0000B49D7E9002302F0C5FC02460B46104614
:10140000194602F057FE0246FB689A60FB689B682B
:1014100023F00102FB689A601037BD4680BD00BF13
:101420000000104080B584B000AF78607B689B6896
:10143000002B01D1002344E00123FB6009E07B681D
:101440009B685A1CFB689A4200D806E0FB685B0068
:10145000FB60FB68B3F1FF3FF1D17B68FA68DA60AB
:101460007B68DB685B001846082103F063F90346DC
:101470001A467B681A607B681B68002B20D07B684B
:101480001B7C022B13D0032B0CD0012B04D07868CB
:101490000121FFF791FD10E078684FF0FF31FFF771
:1014A0008BFD0AE078680121FFF756FE05E07868B9
:1014B0004FF0FF31FFF750FE00BF7B689B6800E0F4
:1014C000002318461037BD4680BD00BF80B500AF71
:1014D000FFF78AFB4FF47A7000F074FB80BD00BF09
:1014E000B0B584B002AFFFF7F1FFC1480121FFF7AB
:1014F00023FFBF480021FFF733FFA5A3D3E9002353
:10150000CDE90023BA48A4A3D3E90023FFF752FF93
:10151000B748A3A3D3E90023FFF762FFB448FFF75E
:1015200081FF00237B60B6E0786802F09BFA0246F8
:101530000B46104619469CA3D3E9002302F0F8FAA3
:1015400002460B461046194699A3D3E9002302F040
:10155000EFFA02460B461046194697A3D3E900233B
:1015600002F034F902460B461046194600F028FCFA
:1015700004460D46786802F075FA02460B4610469E
:10158000194689A3D3E9002302F0D2FA02460B469A
:10159000104619468AA3D3E9002302F0C9FA02468D
:1015A0000B461046194688A3D3E9002302F00EF932
:1015B00002460B461046194600F002FC02460B4656
:1015C0002046294602F002F902460B4614461D4603
:1015D000786802F047FA02460B461046194672A395
:1015E000D3E9002302F0A4FA02460B46104619463E
:1015F00077A3D3E9002302F09BFA02460B4610467C
:10160000194675A3D3E9002302F0E0F802460B4621
:101610001046194600F0D4FB02460B4620462946E8
:1016200002F0D4F802460B4614461D46786802F0D4
:1016300019FA02460B46104619465BA3D3E900236C
:1016400002F076FA02460B461046194664A3D3E927
:10165000002302F06DFA02460B461046194662A3BB
:10166000D3E9002302F0B2F802460B4610461946B1
:1016700000F0A6FB02460B462046294602F0A6F8DB
:1016800002460B465B487968C9000144C1E9002362
:101690007B6801337B607B687F2B7FF745AF5548C4
:1016A00055498022FEF7ACFF534852498022FFF78C
:1016B00023FA4F4B19684E4B9B685A1C80230093AA
:1016C0004E484C4B00F09EFA4C484D498022FEF7A4
:1016D00097FF00237B602CE07B681B01464A9C1827
:1016E000454A7B681B011344D3E90001D3E9022377
:1016F0001D4601951346009302460B462046FEF711
:1017000043FD7B681B013E4A9C183D4A7B681B01D8
:101710001344D3E90001D3E902231D460195134682
:10172000009302460B462046FEF72EFD7B680133F0
:101730007B607B687F2BCFDD00237B600EE02E4A31
:101740007B681B011344D3E900232E487968C90044
:101750000144C1E900237B6801337B607B687F2BF8
:10176000EDDD00237B600EE0254A7B681B011344FE
:10177000D3E9002324487968C9000144C1E9002362
:101780007B6801337B607B687F2BEDDDFEE700BF6C
:10179000666666666666D63F9A9999999999C93F31
:1017A0007B14AE47E17AB43F182D4454FB21194015
:1017B0002D431CEBE2368A3FE0F09C762F1BE43F82
:1017C000295C8FC2F528BC3F40A1BB3B1FB9DC3F61
:1017D000713D0AD7A370CD3F65732D3852C1F03FDC
:1017E000713D0AD7A370DD3FFF694649C4DAF53F72
:1017F000E81000201025002010110020E80800202B
:10180000101900201029002010210020AFF30080C3
:1018100080B485B000AFF860B9607A603B600A4977
:101820007B689A01BB681A433B685B08013B1B0459
:101830001A43FB681A43BB691B0613434B601437FA
:10184000BD465DF8047B70470038024080B483B029
:1018500000AF0346FB71044AFB7913600C37BD46A9
:101860005DF8047B704700BF6000474280B485B0DC
:1018700000AF78600023FB60094B9B68FB60FB684E
:1018800023F00303FB60FA687B681343FB60044AA0
:10189000FB6893601437BD465DF8047B704700BF5A
:1018A0000038024080B400AF054B9B68DBB203F008
:1018B0000C03DBB21846BD465DF8047B704700BFE1
:1018C0000038024080B487B000AF0346FB710023AC
:1018D000FB6000237B610023FB74FB795B09DBB2B7
:1018E000FB60FB68012B03D1124B1B687B6109E095
:1018F000FB68022B03D10F4B1B6F7B6102E00D4B8A
:101900005B6F7B61FB7903F01F03FB60FB687A6907
:1019100022FA03F303F00103002B02D00123FB742E
:1019200001E00023FB74FB7C18461C37BD465DF8C4
:10193000047B70470038024080B483B000AF786009
:10194000044B7A68D2B21A700C37BD465DF8047B3E
:10195000704700BF003C024080B483B000AF034634
:10196000FB71FB79002B06D0084A084B1B6843F437
:101970008073136005E0054A044B1B6823F48073F1
:1019800013600C37BD465DF8047B7047003C024095
:1019900080B483B000AF0346FB71FB79002B06D007
:1019A000084A084B1B6843F40073136005E0054ABE
:1019B000044B1B6823F4007313600C37BD465DF8BD
:1019C000047B7047003C024080B483B000AF034604
:1019D000FB71FB79002B06D0084A084B1B6843F4C7
:1019E0008063136005E0054A044B1B6823F48063A1
:1019F00013600C37BD465DF8047B7047003C024025
:101A000080B487B000AF00233B6100237B610223D9
:101A1000FB600023BB6002237B60324B9B6803F0BA
:101A20000C033B613B69042B07D0082B09D0002B2A
:101A30003FD12D4B2D4A1A603FE02B4B2C4A1A60A8
:101A40003BE0284B5B6803F480039B0DBB60254B98
:101A50005B6803F03F037B60BB68002B0DD0244A1A
:101A60007B68B2FBF3F21F4B596847F6C0730B401B
:101A70009B0903FB02F37B610CE01C4A7B68B2FB11
:101A8000F3F2184B596847F6C0730B409B0903FBF0
:101A900002F37B61134B5B6803F440331B0C01338F
:101AA0005B00FB607A69FB68B2FBF3F30E4A1360DC
:101AB00003E00D4B0D4A1A6000BF0A4B9B6803F010
:101AC000F0031B090B4AD35CDBB23B61064B1A687F
:101AD0003B6922FA03F3044A13601C37BD465DF8E4
:101AE000047B704700380240000000200024F4000E
:101AF00040787D010400002080B485B000AF78609C
:101B00000B4B1B68002B02D1094B0A4A1A60084B89
:101B10001B68FB60064B1A687B681344044A136019
:101B2000FB6818461437BD465DF8047B704700BF5C
:101B3000580800201C2D002080B582B000AF1D4B3E
:101B40001B6801331B4A13601A4B1B681A4A126840
:101B5000B3FBF2F102FB01F29B1A002B04D1174BED
:101B60001B680133154A136000237B601BE0144A95
:101B70007B6852F83330002B12D00E4B1A68104994
:101B80007B68DB000B445B68B2FBF3F103FB01F302
:101B9000D31A002B04D10A4A7B6852F83330984795
:101BA0007B6801337B607B68092BE0DD0837BD462D
:101BB00080BD00BF102D00205C080020142D0020E7
:101BC0006008002080B582B000AF7860FFF718FF92
:101BD000094A7B6813600949094B1B68DA087B686E
:101BE000B2FBF3F34B60054A044B1B6843F003035D
:101BF00013600837BD4680BD5C08002010E000E09F
:101C000000000020B0B58CB000AFF860B9607A6019
:101C10003B603A6C7B681344013BFB6100237B62B1
:101C200052E0F9684FF000024FF00003C1E90023D1
:101C30007A6A7B68D31A01333B623B6A002B01DD71
:101C40003B6A00E00023BB617A6A3B6C013B934234
:101C500028BF13467B617A6ABB69D31ADB00BA6876
:101C60001344FB62BB69DB003A681344BB627A69C8
:101C7000BB69D31A3B621EE0FB68D3E90045BB6A2F
:101C8000D3E90001FB6AD3E9002301F051FF0246CA
:101C90000B462046294601F099FD02460B46F9689D
:101CA000C1E90023BB6A0833BB62FB6A083BFB62E5
:101CB0003B6A013B3B623B6A002BDDDA7B6A013306
:101CC0007B62FB680833FB607A6AFB699A42A8DB97
:101CD0003037BD46B0BD00BF30B51F4A21F00043CC
:101CE000934287B01BDD1D4A934205DD02460B4639
:101CF00001F06AFD07B030BD02AA00F0E1F900F082
:101D00000303012BDDE9020116D0022B0DD0EBB14C
:101D10000124DDE90423009401F0E2F9EAE700225E
:101D2000002300F0B5FC07B030BDDDE9042300F06E
:101D3000AFFC01F10041DDE7DDE9044500932246F7
:101D40002B4601F0CDF901F10041D3E7DDE9042391
:101D500000F09EFCCEE700BFFB21E93FFFFFEF7FD5
:101D600021F00041704700BF10B431F0004408D0AA
:101D7000114BA1F580129A4208D804205DF8044B5B
:101D8000704718B902205DF8044B704701F1FF411C
:101D9000094B01F5E0019942EFD9B4F5801F01D25A
:101DA0000320EBE7054B9C4201D00020E6E7B0FAA8
:101DB00080F04009E2E700BFFFFFDF7F0000F07F17
:101DC00030B5224A21F00043934287B01BDD204A00
:101DD000934205DD02460B4601F0F6FC07B030BD2C
:101DE00002AA00F06DF900F0030001281ED00228BD
:101DF00011D010B3DDE90201DDE9042300F048FC55
:101E000001F10041EAE7002300930022002301F0E2
:101E100067F907B030BD0124DDE90201DDE90423E3
:101E2000009401F05DF901F10041D7E7DDE902011D
:101E3000DDE9042300F02CFCD0E70124DDE90201F8
:101E4000DDE90423009401F04BF9C7E7FB21E93FEA
:101E5000FFFFEF7F00F058B82DE9F047DFF8A0A0B2
:101E60008AB006460F4600F04FFB9AF90030013366
:101E700004460D460FD030463946FFF775FF50B186
:101E80004FF000084FF0000942464B4630463946B5
:101E900002F0C0F820B9204629460AB0BDE8F08714
:101EA000164B9AF80040019301220023CDE9046704
:101EB000CDE902670092089364B9CDE906896846C6
:101EC00001F0EEFB80B1089B9BB9DDE906010AB089
:101ED000BDE8F0874046494642464B4601F052FF76
:101EE000022CCDE90601EAD102F05CFC212303605B
:101EF000E9E702F057FC089B0360E6E7E04F0008C3
:101F000014000020000000002DE9F84F5442144353
:101F100023F00049DFF878C149EAD47464451746D4
:101F20009E4606460D4641D84442044321F0004BEC
:101F30004BEAD47464458A4638D803F1404404F52A
:101F40008014144349D09C1704F0020444EAD1746D
:101F50005BEA000132D059EA070138D04C49894583
:101F600048D04B498B4532D0C9EB0B094FEA295970
:101F7000B9F13C0F3ADCBEF1000F64DB3046294674
:101F800001F000FFFFF7ECFE01F062F9012C57D0E1
:101F9000022C48D084B138A3D3E9002301F014FC0B
:101FA00037A3D3E9002301F00FFC05E010461946E2
:101FB00032462B4601F00AFCBDE8F88F032CCAD844
:101FC000DFE804F01212020F32483349F4E7BAF1A5
:101FD000000F304825DB3149EEE7BDE8F84F01F04E
:101FE00037B92C482E49E7E72946E5E726A1D1E98C
:101FF0000001CBE7CB452CD0032CB2D801A151F87E
:1020000024F000BF152000081B200008C91F00088D
:10201000E31F000800200146CEE700204FF00041FA
:10202000CAE72049C8E714A3D3E9002301F0CCFB99
:1020300002460B4612A1D1E9000101F0C5FBBBE746
:1020400001F10041B8E719F13C0F97DA00200021B7
:102050009CE7032CBBD8DFE804F0020B08050D4811
:102060001149A9E711481249A6E710481149A3E709
:1020700008481149A0E700BF075C143326A6A13C1D
:10208000182D4454FB210940182D4454FB21F93FDD
:102090000000F07F182D4454FB210940FB21F93F3B
:1020A000FB2109C0FB21F9BFFB21E93FD221337F8E
:1020B0007CD902C07CD90240FB21E9BFAFF300808C
:1020C0002DE9F04F964E21F0004BB3458FB00C46F2
:1020D00040F381809246934A934526DC002986A3EB
:1020E000D3E9002340F3A88101F06EFB8E4B9B45A2
:1020F00004460D4600F0848081A3D3E9002301F05B
:1021000063FB02460B46CAE900232046294601F03C
:102110005BFB7BA3D3E9002301F056FB0125CAE951
:10212000020128460FB0BDE8F08F804A934540F386
:1021300084807F4A934559DC4FEA2B55A5F216451A
:10214000ABEB05573946064601F08CFF01F08AFCDF
:102150008046894602460B4630463946CDE9088915
:1021600001F032FB0022734B01F0E2FC0F46064601
:1021700001F078FF01F076FC02460B468046894666
:1021800030463946CDE90A8901F01EFB0022694B31
:1021900001F0CEFC00220023CDE90C0101F030FF5C
:1021A000002800F07581002340464946002201F0D6
:1021B00027FF002814BF0123022302225E49009258
:1021C00001912A4608A8514600F086FB002CC0F277
:1021D0005181054606E0C2E9000100250024C2E95C
:1021E0000245002528460FB0BDE8F08F02460B4699
:1021F00001F0EAFA0025CAE90201CAE90001F1E7A3
:1022000041A3D3E9002301F0DFFA41A3D3E900237E
:102210000D46044601F0D8FA02460B46CAE90023EF
:102220002946204601F0D0FA39A3D3E9002301F072
:10223000CBFA0125CAE90201D4E7FFF791FD36A3E5
:10224000D3E9002306460F4601F072FC00223B4B07
:1022500001F0BCFA01F006FF054601F003FC26A3DD
:10226000D3E90023CDE9040101F062FC02460B46EC
:102270003046394601F0A8FA21A3D3E9002380466D
:102280008946DDE9040101F053FC1F2DCDE902016F
:102290004046494656DC2A4B6A1E53F822305B45BD
:1022A00050D0DDE9022301F08FFA02460B46CAE95D
:1022B000002307460E463A4633464046494601F05B
:1022C00083FADDE9022301F07FFA002C02460B4677
:1022D000CAE9022386DA06F1004601F10041CAF894
:1022E0000070CAF80460CAF80C10CAF808006D4201
:1022F00078E700BFAFF3008000004054FB21F93FB6
:102300003163621A61B4D03D0000601A61B4D03DFF
:102310007370032E8A19A33B83C8C96D305FE43FF5
:10232000FB21E93F7BD90240FB21F93FFB213941E9
:10233000FFFFEF7F00007041685000080000E03FA1
:10234000E84F0008DDE9022301F03EFA0E464FEAAD
:102350002B5BC6F30A53C3EB0B03102B0746CAE9EA
:102360000001A8DD5CA3D3E90023DDE9040101F04D
:10237000DFFB06460F4632463B464046494601F0E3
:1023800023FACDE90601DDE906234046494601F07E
:102390001BFA32463B4601F017FA51A3D3E900235A
:1023A00006460F46DDE9040101F0C2FB32463B461A
:1023B00001F00AFACDE90201DDE90223DDE90601B7
:1023C00001F002FA0E46C1F30A51C1EB0B0B0246B3
:1023D0003346BBF1310F0746CAE9002378DD42A33B
:1023E000D3E90023DDE9040101F0A2FB06460F4614
:1023F00032463B46DDE9060101F0E6F980468946B2
:1024000042464B46DDE9060101F0DEF932463B4625
:1024100001F0DAF936A3D3E9002306460F46DDE9D9
:10242000040101F085FB32463B4601F0CDF9CDE9D0
:1024300002014046494634E701F0C8F9304B9B455C
:1024400004460D4626D02CA3D3E9002301F0BEF9A3
:1024500002460B46CAE900232946204601F0B4F99A
:1024600025A3D3E9002301F0B1F94FF0FF35CAE904
:102470000201B7E6DAF80420DAF80C3002F1004283
:1024800003F100434542CAF80420CAF80C30A9E61B
:10249000032392E610A3D3E9002301F097F910A3D8
:1024A000D3E900230D46044601F090F902460B469D
:1024B000CAE900232946204601F086F908A3D3E99A
:1024C000002301F083F94FF0FF35CAE9020189E6E4
:1024D000DDE90689EFE600BF0000601A61B4D03D77
:1024E0007370032E8A19A33B0000002E8A19A33BA8
:1024F000C14920259A837B393163621A61B4D03D8A
:10250000FB21F93FAFF300802DE9F8435F4EB6465B
:102510000E4076450C460B46054600F09780002994
:10252000024676DD0F1500F08180A7F2FF37C3F376
:102530001303F80743F4801360D4D10F002601EB96
:1025400043037F105200B64616204FF400110EEBE5
:1025500001049C424FEAD2754FEA420203DC1B1B86
:1025600004EB010E0E44013805EB43034FEA510121
:10257000EDD1844620254FF000410AE0734521D07B
:10258000D40F013D4FEA510104EB43034FEA4202ED
:1025900021D09E450CEB0104F0DA002C04EB010C79
:1025A0000ADBF046CEEB0303944288BF03F1FF330E
:1025B000121B0844C646E3E7BCF1000FF1DB0EF145
:1025C0000108EFE7944217D8002C04EB010C47DB1D
:1025D00098460023ECE7134315D14008731003F12C
:1025E0007F5303F50013F20703EB075948BF40F090
:1025F00000404946BDE8F8839E46C1E7D10F01EB94
:102600004303520099E7411C30D000F00103184405
:10261000E3E721F000460643ECD071BB0F46D30A36
:10262000153F5205002BFAD0DD0222D400215B00B9
:10263000DC0201F10101FAD5C1F10100C1F1200470
:1026400022FA04F4234307448A406EE702460B460D
:1026500001F06EFA2A46234601F0B8F8BDE8F88387
:10266000BCF1000FABDAF0460023A1E701362846A3
:10267000B4E7202401200021E2E702460B4601F0E6
:10268000A3F802460B4601F07DFBB3E70000F07FA4
:102690002DE9F04F21F00047B7F1795F85B00C4686
:1026A00092469B4605466BDA01F0DCFC002800F000
:1026B000E8802A4623462846214601F039FA74A3C9
:1026C000D3E900238046894601F032FA72A3D3E9A8
:1026D000002301F07BF842464B4601F029FA70A333
:1026E000D3E9002301F070F842464B4601F020FA8E
:1026F0006DA3D3E9002301F069F842464B4601F08F
:1027000017FA6BA3D3E9002301F05EF842464B466B
:1027100001F00EFA68A3D3E9002301F057F842460E
:102720004B4601F005FACDE900014046494600223A
:10273000634B01F0FDF9DDE9002306460F464046F4
:10274000494601F0F5F95246804689465B462846DF
:10275000214601F0EDF902460B464046494601F09C
:1027600033F802460B463046394601F02DF8024652
:102770000B460020534901F027F805B0BDE8F08F63
:1027800002460B4601F0D4F941A3D3E90023804669
:10279000894601F0CDF940A3D3E9002301F016F8F2
:1027A00042464B4601F0C4F93DA3D3E9002301F0B2
:1027B0000BF842464B4601F0BBF93BA3D3E900239B
:1027C00001F004F842464B4601F0B2F938A3D3E9D0
:1027D000002300F0F9FF42464B4601F0A9F936A369
:1027E000D3E9002300F0F2FF4B46424601F0A0F986
:1027F000354B9F42CDE9000197DD344B9F424FF0AE
:10280000000238DCA7F5001300202E4916461F46AB
:1028100000F0DAFFCDE90201404649460022284B8C
:1028200001F086F932463B4600F0CEFFDDE9002399
:1028300006460F464046494601F07AF95246804620
:1028400089465B462846214601F072F902460B464E
:102850004046494600F0B8FF02460B46304639462E
:1028600000F0B2FF02460B46DDE9020100F0ACFFCA
:1028700005B0BDE8F08F164B164FCDE902230026B8
:10288000CAE71049002005B0BDE8F08FAFF3008023
:10289000D43888BEE9FAA8BDC4B1B4BD9EEE213ECD
:1028A000AD529C804F7E923E9015CB19A001FA3E0E
:1028B0007751C1166CC1563F4C5555555555A53FDE
:1028C0000000E03F0000F03F3233D33F0000E93F1B
:1028D0000000E73F0000D23F2DE9F04FADF51D7D30
:1028E0007B4CA69E7B4D54F8264009942646D41E68
:1028F00085FB0475E417C4EBA50424EAE4741D46C3
:102900000C93E34303EB4303013D02EBC303089342
:102910002B460D940395651B9C1904900A9116D4BF
:102920002C44013422AEA79F08E057F8250001F09F
:1029300099F80135A542E6E9020108D0002DF4DA44
:10294000013500200021A542E6E90201F6D1099BEC
:10295000002B31DB099A0C9B74A901EBC20BC3EB72
:102960004373039A24A9DB0001EBC20800930DF521
:10297000E479039B002BC0F29981049BA3F1080A20
:10298000009B444608EB030500260027FAE90223D2
:1029900074E8020101F0CCF802460B463046394695
:1029A00000F014FFAC4206460F46EFD1E9E902679A
:1029B000D94508F10808DCD1099901F18043013BB0
:1029C0009B001A1D10A8024403440F920E938B46DD
:1029D0004FEACB039CA91A460693BBF1000F0B44A8
:1029E00053E9284528DD0DF5E87A0AEB02060FAF1A
:1029F0000022394B2046294601F09AF801F032FBBB
:102A000001F030F80022354B8046894601F090F8FD
:102A100002460B462046294600F0D6FE01F022FB76
:102A200076E9022347F8040F4946404600F0CEFEFF
:102A3000564504460D46DBD1DDF820902046294658
:102A40004A4600F031FE00224FF07F5304460D4607
:102A500001F06EF800F098FD0022214B01F068F8BB
:102A600002460B462046294600F0AEFE04460D46BF
:102A700001F0F8FA804600F0F5FF02460B462046CA
:102A8000294600F0A1FE4C46002C06460F4640F3B6
:102A9000F3800BF1FF3110ABC9F1180253F821306C
:102AA00043FA02F000FA02F510AA5D1BC9F1170300
:102AB00042F8215080441D41002D3EDDBBF1000F46
:102AC00008F1010840F38A82002214460FA911E0A0
:102AD00070510008ABAAAA2A0000703E00007041A5
:102AE00000002040C3F180700BB108600124013266
:102AF00093450DDD51F8043F002CF3D0C3F1FF13D3
:102B0000013203F57F4393450B604FF00104F1DC84
:102B1000089B002B0EDD012B00F0B680022B09D1A3
:102B20000BF1FF3210AB10A953F82230C3F3150399
:102B300041F82230022D00F08680304639460022CE
:102B4000002301F05DFA002800F0CC80099B0BF116
:102B5000FF3A53450DDC10AB0F9803EB8B030022BB
:102B600053F8041D834242EA0102F9D1002A40F0E1
:102B70001B82099B10AA013B52F82330002B40F026
:102B80002B820E9A012352F8041D01330029FAD03A
:102B90005B441A460B930BF1010393424DDC0D9AF3
:102BA00003EB02090B9A0C9B09F180495B44CBEBC8
:102BB000020BA79A09F1FF3902EB890200924FEA52
:102BC000CB02DB00059224AA02EB030B0793069BC2
:102BD00074AA02EB030A4FF00008009B53F8040F9D
:102BE000009300F03FFF039B002BEBE8020127DB83
:102BF000079B03EB0804069B08EB030524AB1C446E
:102C00001D44049B0026A3F108090027F9E90223CB
:102C100074E8020100F08CFF02460B46304639464C
:102C200000F0D4FDAC4206460F46EFD1059B08F1FB
:102C300008089845EAE90267CFD1DDF82CB0C7E66D
:102C400000260027F2E732463B460020C04900F04C
:102C5000BBFD06460F46002C3FF46FAF089ABC49F7
:102C6000002000F021FD02460B463046394600F0B8
:102C7000ABFD06460F4660E711D10BF1FF3310AAFA
:102C800052F82350ED1517E70BF1FF3210AB10A9E6
:102C900053F82230C3F3160341F822304AE70022EA
:102CA000AC4B01F0CBF958B9054646E700260027A2
:102CB000E9E90267D94508F108087FF45AAE7BE6D6
:102CC000BBF1000F08F10108C8BF02253FF7FCAEB9
:102CD00032463B4600209E4900F076FD022506461E
:102CE0000F462AE7089B03955A4230463946CDF8ED
:102CF000148000F0D9FC0022974B04460D4601F0E9
:102D00009DF9002800F0E3810022944B20462946DB
:102D100000F00EFF01F0A6F9064600F0A3FE002227
:102D20008D4B00F005FF0B4602462946204600F079
:102D30004BFD01F097F9089B18330BF1010A08933A
:102D400010AB43F82B0043F82A60089A8049002012
:102D500000F0AAFCBAF1000F04460D46C0F2CD8087
:102D60000AF101034FEAC30874AF10AA009302EB03
:102D7000830907EB080659F8040D00F073FE22469C
:102D80002B4600F0D5FE002266E90201734B204677
:102D9000294600F0CDFEBE4204460D46EBD1A8F117
:102DA000080806EB08030DF59879CDF818A0DDF8B2
:102DB00024A0CDF810904FF000089B46BAF1000F08
:102DC000C0F29880B8F1000FC0F29480DFF89091C3
:102DD0005D4600260027002401E0444510DCF9E9A7
:102DE0000223F5E8020100F0A3FE02460B4630463E
:102DF000394600F0EBFC0134A24506460F46ECDAFA
:102E0000049B03EBC803C3E90067009B08F10108BA
:102E10009845ABF1080BD1D1A69BDDF818A0DDF8E1
:102E20001090032B3DD8DFE813F0430004000400AA
:102E3000DB00009B002409EBC306254620462946FB
:102E400076E9022300F0C2FC4E4504460D46F5D15A
:102E5000039B002B00F08E800A982B4605F100455D
:102E6000224680E83000D9E9000100F0ADFCBAF15B
:102E7000000F02460B460DDD012410461946F9E904
:102E8000022300F0A3FC0134A24502460B46F4DA0B
:102E9000039909B103F1004319460A9B1046C3E99F
:102EA0000201059B03F007000DF51D7DBDE8F08FC5
:102EB000009B002209EBC30913461046194679E925
:102EC000022300F083FC0AF1FF3ABAF1FF3F024609
:102ED0000B46F2D1039909B103F1004319460A9B4D
:102EE0001046C3E90001059B03F007000DF51D7DA9
:102EF000BDE8F08F0026002782E7A69B032BD0D8E1
:102F0000DFE803F04F3030020DF59879039B00277E
:102F10003E46002B00F0C780D9F80C300A9DD9F846
:102F20000400D9F80020D9F808102F6103F10043FC
:102F3000EB60059B2A6000F1004006F100466860E6
:102F400003F007006E61A9600DF51D7DBDE8F08FEF
:102F50000000F03F0000E03F000070410000703EC4
:102F600078510008039B002425460DF59879002B25
:102F70007FF472AF204622460A9C29462B46C4E9BC
:102F80000001D9E9000100F01FFCBAF1000F024670
:102F90000B463FF771AF19460A9B1046C3E9020181
:102FA0007FE70022134695E710AB089A53F82A30C2
:102FB0000395183ACDF814800892002B7FF4C5AE23
:102FC00010AB03EB8A0353F8041D0AF1FF3A183AD9
:102FD0000029F8D00892B8E60123D9E5002497E546
:102FE000BAF1000F92DD4FEACA0809EB080BDBE9E2
:102FF00000677BE9022330463946CDE9002300F023
:10300000E5FB04460D4622462B46DDE9000100F0B3
:10301000DBFB02460B463046394600F0D7FBCB457A
:1030200026462F46CBE90201CBE90045E1D1BAF1B2
:10303000010F7FF76BAF09EB080ADAE900670DF5BE
:103040009C7B7AE902231046194632463B46CDE97D
:10305000000100F0BBFB04460D4622462B46DDE98D
:10306000000100F0B1FB32463B4600F0AFFBDA4511
:1030700026462F46CAE90201CAE90045E1D108F116
:10308000080400274C443E4650AD3846314674E9AA
:10309000022300F09BFBAC4207460E46F5D1039B92
:1030A000002B7FF439AFD9E900233C460A9FD9E9C8
:1030B0000201C7E90023059B3546C7E9020103F079
:1030C0000700C7E904450DF51D7DBDE8F08F2046DA
:1030D000294600F0C7FF10ABDA4643F82B0034E670
:1030E0002DE9F04F21F00046B6F1795F85B00C462E
:1030F00090469946054604DA00F0B4FF002800F037
:1031000083802A4623462846214600F011FD2A46A0
:10311000234606460F4600F00BFD3FA3D3E90023EC
:1031200082468B463046394600F002FD3CA3D3E987
:10313000002300F049FB32463B4600F0F9FC3AA37D
:10314000D3E9002300F042FB32463B4600F0F0FC9E
:1031500037A3D3E9002300F037FB32463B4600F0AB
:10316000E7FC35A3D3E9002300F030FB0E9BCDE94B
:1031700000019BB3404649460022334B00F0D8FC87
:10318000DDE90023CDE902015046594600F0D0FCAC
:1031900002460B46DDE9020100F016FB32463B46D3
:1031A00000F0C6FC42464B4600F00EFB24A3D3E9D8
:1031B000002306460F465046594600F0B9FC024629
:1031C0000B463046394600F001FB02460B462846C6
:1031D000214600F0F9FA05B0BDE8F08FDDE90023E3
:1031E0003046394600F0A4FC15A3D3E9002300F0D3
:1031F000EBFA52465B4600F09BFC2A46234600F061
:10320000E5FA05B0BDE8F08F2846214605B0BDE8D7
:10321000F08F00BFAFF300807CD5CF5A3AD9E53D9F
:10322000EB9C2B8AE6E55A3E7DFEB157E31DC73E77
:10323000D561C119A0012A3FA6F810111111813FD3
:10324000495555555555C53F0000E03FAFF3008047
:103250002DE9F84FBE4B21F000469E420D468A46AE
:1032600004460FDDBB4B9E4200F3B08000F0AB8004
:10327000B94BBA49BA4CBAF1000FC8BF194620463B
:10328000BDE8F88FB74B9E4200F3BA80A3F1DE731E
:103290009E4240F3A5804FF0FF3B22462B4620463E
:1032A000294600F045FC02460B468046894600F060
:1032B0003FFC8FA3D3E9002306460F4600F038FCFD
:1032C0008DA3D3E9002300F081FA32463B4600F09B
:1032D0002FFC8BA3D3E9002300F078FA32463B465B
:1032E00000F026FC88A3D3E9002300F06FFA3246F1
:1032F0003B4600F01DFC86A3D3E9002300F066FAEC
:1033000032463B4600F014FC83A3D3E9002300F0CF
:103310005DFA42464B4600F00BFC81A3D3E9002343
:10332000804689463046394600F002FC7EA3D3E948
:10333000002300F049FA32463B4600F0F9FB7CA33B
:10334000D3E9002300F040FA32463B4600F0F0FBA0
:1033500079A3D3E9002300F037FA32463B4600F068
:10336000E7FB77A3D3E9002300F02EFA32463B4671
:1033700000F0DEFBBBF1FF3F02460B4667D0404644
:10338000494600F023FA22462B4600F0D1FB764E48
:10339000764B4FEACB0B5E449B44DBE9002300F005
:1033A00013FA22462B4600F00FFA02460B46D6E9E6
:1033B000000100F009FABAF1000F0446BFF65FAF52
:1033C00001F100415BE700283FF452AF224620465E
:1033D00029462B4600F0FAF904462046BDE8F88F4E
:1033E00059A3D3E9002300F0F1F90022604B00F06B
:1033F0002FFE00283FF44FAF29462046BDE8F88F46
:10340000FEF7AEFC5B4B9E4204460D462FDCA3F557
:1034100050239E4254DC02460B4600F0D7F90022AE
:10342000534B00F0D1F9002206460F4620462946AC
:103430004FF0804300F0CAF902460B463046394649
:1034400000F0A0FC4FF0000B04460D4625E7404677
:10345000494600F0BBF922462B4600F069FB0246C4
:103460000B462046294600F0AFF9044607E7424BD9
:103470009E421ADC0022414B00F0A6F900220646CB
:103480000F46204629463D4B00F052FB0022384BA8
:1034900000F09CF902460B463046394600F072FCBB
:1034A0004FF0020B04460D46F7E602460B4600209D
:1034B000334900F067FC4FF0030B04460D46ECE681
:1034C00000222B4B00F080F9002206460F462046D2
:1034D0002946274B00F07AF902460B46304639461A
:1034E00000F050FC4FF0010B04460D46D5E600BF3E
:1034F00011DA22E33AAD903FEB0D76244B7BA93FE6
:10350000513DD0A0660DB13F6E204CC5CD45B73FB3
:10351000FF8300922449C23F0D5555555555D53F5F
:103520002F6C6A2C44B4A2BF9AFDDE522DDEAD3F53
:103530006D9A74AFF2B0B33F711623FEC671BC3FF3
:10354000C4EB98999999C93F9C7500883CE4377EF3
:10355000FFFF0F440000F07FFB21F93FFB21F9BF83
:10356000182D4454FFFFDB3FE0510008C051000814
:103570000000F03FFFFFF23FFF7F03400000F83FF5
:103580000000F0BFAFF300802DE9F047C1F30A5807
:10359000A8F2FF36132E0B460D4604460246894616
:1035A00007461DDC002E40DBDFF8F08048FA06F805
:1035B00008EA010E5EEA020217D035A3D3E9002320
:1035C00000F004F90022002300F042FD20B1002D9C
:1035D00040DB29EA0805002738462946BDE8F08780
:1035E000332E06DDB6F5806F2FD020461946BDE894
:1035F000F087A8F213424FF0FF3A2AFA02FA1AEAC9
:10360000000FF2D022A3D3E9002300F0DFF800225C
:10361000002300F01DFD0028DED0002D1FDB4D46ED
:1036200027EA0A0738462946D8E719A3D3E9002331
:1036300000F0CCF80022002300F00AFD0028CBD0D7
:10364000002D1ADB00273D46C6E702460B4600F078
:10365000BDF8CCE74FF4801333419944B9E7142EF9
:1036600008D0C8F5866808F10308012303FA08F3B7
:103670001F19D4D309F10109D1E725F00042064B07
:10368000224318BF1D460027A6E700BFAFF3008006
:103690009C7500883CE4377E0000F0BFFFFF0F0000
:1036A0000020704700000000F8B5C1F30A56044638
:1036B0000D460B46174616BB21F00043034332D09C
:1036C0000022374B00F034FA364A974204460D4642
:1036D0000B4637DBC1F30A56363E3E4440F2FE72DB
:1036E000964215DD22462B4629A1D1E9000100F0C2
:1036F0005FF827A3D3E9002300F01AFAF8BD40F2DF
:10370000FF72964224D03E4440F2FE729642E9DCBB
:10371000002E09DD23F0FF4323F4E00343EA0655BE
:1037200020462946F8BDF8BD16F1350F15DA4CF2E2
:1037300050339F4222462B461DDC17A1D1E90001E0
:1037400000F036F814A3D3E9002300F0F1F9F8BD36
:1037500002460B4600F03AF8F8BD23F0FF4323F48D
:10376000E003363643EA06552046294600220E4B32
:1037700000F0DEF9F8BD06A1D1E9000100F018F86B
:1037800003A3D3E9002300F0D3F9F8BDAFF3008021
:103790009C7500883CE4377E59F3F8C21F6EA50182
:1037A00000005043B03CFFFF0000903CAFF30080AE
:1037B00003F0004321F0004243EA0201704700BFDA
:1037C00081F0004102E000BF83F0004330B54FEAD2
:1037D00041044FEA430594EA050F08BF90EA020F3F
:1037E0001FBF54EA000C55EA020C7FEA645C7FEAD2
:1037F000655C00F0E2804FEA5454D4EB5555B8BFF5
:103800006D420CDD2C4480EA020281EA030382EA65
:10381000000083EA010180EA020281EA0303362DF7
:1038200088BF30BD11F0004F4FEA01314FF4801CCA
:103830004CEA113102D0404261EB410113F0004FDC
:103840004FEA03334CEA133302D0524263EB430393
:1038500094EA050F00F0A780A4F10104D5F1200E31
:103860000DDB02FA0EFC22FA05F2801841F100018C
:1038700003FA0EF2801843FA05F359410EE0A5F160
:1038800020050EF1200E012A03FA0EFC28BF4CF091
:10389000020C43FA05F3C01851EBE37101F0004547
:1038A00007D54FF0000EDCF1000C7EEB00006EEB54
:1038B0000101B1F5801F1BD3B1F5001F0CD34908DE
:1038C0005FEA30004FEA3C0C04F101044FEA445235
:1038D00012F5800F80F09A80BCF1004F08BF5FEABC
:1038E000500C50F1000041EB045141EA050130BD9C
:1038F0005FEA4C0C404141EB010111F4801FA4F13F
:103900000104E9D191F0000F04BF01460020B1FA93
:1039100081F308BF2033A3F10B03B3F120020CDACB
:103920000C3208DD02F1140CC2F10C0201FA0CF0A9
:1039300021FA02F10CE002F11402D8BFC2F1200C0E
:1039400001FA02F120FA0CFCDCBF41EA0C019040C4
:10395000E41AA2BF01EB0451294330BD6FEA04040D
:103960001F3C1CDA0C340EDC04F11404C4F12002F8
:1039700020FA04F001FA02F340EA030021FA04F30A
:1039800045EA030130BDC4F10C04C4F1200220FA61
:1039900002F001FA04F340EA0300294630BD21FA9F
:1039A00004F0294630BD94F0000F83F4801306BF65
:1039B00081F480110134013D4EE77FEA645C18BF59
:1039C0007FEA655C29D094EA050F08BF90EA020FF0
:1039D00005D054EA000C04BF1946104630BD91EAE8
:1039E000030F1EBF0021002030BD5FEA545C05D1EB
:1039F0004000494128BF41F0004130BD14F580042A
:103A00003CBF01F5801130BD01F0004545F0FE419D
:103A100041F470014FF0000030BD7FEA645C1ABFD2
:103A2000194610467FEA655C1CBF0B46024650EA09
:103A3000013406BF52EA033591EA030F41F4002135
:103A400030BD00BF90F0000F04BF0021704730B5BB
:103A50004FF4806404F132044FF000054FF0000190
:103A600050E700BF90F0000F04BF0021704730B551
:103A70004FF4806404F1320410F0004548BF404226
:103A80004FF000013EE700BF42004FEAE2014FEA7B
:103A900031014FEA02701FBF12F07F4393F07F4F56
:103AA00081F06051704792F0000F14BF93F07F4F88
:103AB000704730B54FF4607401F0004521F00041CB
:103AC00020E700BF50EA010208BF704730B54FF051
:103AD00000050AE050EA010208BF704730B511F056
:103AE000004502D5404261EB41014FF4806404F18E
:103AF00032045FEA915C3FF4DCAE4FF003025FEA10
:103B0000DC0C18BF03325FEADC0C18BF033202EB97
:103B1000DC02C2F1200300FA03FC20FA02F001FAF1
:103B200003FE40EA0E0021FA02F11444C1E600BF90
:103B300070B54FF0FF0C4CF4E06C1CEA11541DBF43
:103B40001CEA135594EA0C0F95EA0C0F00F0DEF80E
:103B50002C4481EA030621EA4C5123EA4C5350EAF3
:103B6000013518BF52EA033541F4801143F4801344
:103B700038D0A0FB02CE4FF00005E1FB02E506F0D5
:103B80000042E0FB03E54FF00006E1FB03569CF02A
:103B9000000F18BF4EF0010EA4F1FF04B6F5007F30
:103BA00064F5407404D25FEA4E0E6D4146EB0606A2
:103BB00042EAC62141EA55514FEAC52040EA5E502B
:103BC0004FEACE2EB4F1FD0C88BFBCF5E06F1ED8D5
:103BD000BEF1004F08BF5FEA500E50F1000041EB0C
:103BE000045170BD06F0004646EA010140EA0200B9
:103BF00081EA0301B4EB5C04C2BFD4EB0C0541EADB
:103C0000045170BD41F480114FF0000E013C00F3EF
:103C1000AB8014F1360FDEBF002001F0004170BD13
:103C2000C4F10004203C35DA0C341BDC04F114042C
:103C3000C4F1200500FA05F320FA04F001FA05F2B8
:103C400040EA020001F0004221F0004110EBD37085
:103C500021FA04F642EB06015EEA430E08BF20EAB1
:103C6000D37070BDC4F10C04C4F1200500FA04F354
:103C700020FA05F001FA04F240EA020001F00041E6
:103C800010EBD37041F100015EEA430E08BF20EA59
:103C9000D37070BDC4F1200500FA05F24EEA020EA1
:103CA00020FA04F301FA05F243EA020321FA04F0D0
:103CB00001F0004121FA04F220EA020000EBD37087
:103CC0005EEA430E08BF20EAD37070BD94F0000F87
:103CD0000FD101F00046400041EB010111F4801FBB
:103CE00008BF013CF7D041EA060195F0000F18BF6C
:103CF000704703F00046520043EB030313F4801FA8
:103D000008BF013DF7D043EA0603704794EA0C0F61
:103D10000CEA135518BF95EA0C0F0CD050EA410677
:103D200018BF52EA4306D1D181EA030101F00041F4
:103D30004FF0000070BD50EA410606BF104619461C
:103D400052EA430619D094EA0C0F02D150EA013628
:103D500013D195EA0C0F05D152EA03361CBF104669
:103D600019460AD181EA030101F0004141F0FE4108
:103D700041F470014FF0000070BD41F0FE4141F48C
:103D8000780170BD70B54FF0FF0C4CF4E06C1CEA8C
:103D900011541DBF1CEA135594EA0C0F95EA0C0F41
:103DA00000F0A7F8A4EB050481EA030E52EA0335FC
:103DB0004FEA013100F088804FEA03334FF080551D
:103DC00045EA131343EA12634FEA022245EA11154A
:103DD00045EA10654FEA00260EF000419D4208BFFB
:103DE000964244F1FD0404F5407402D25B084FEAA8
:103DF0003202B61A65EB03055B084FEA32024FF454
:103E000080104FF4002CB6EB020E75EB030E22BFB0
:103E1000B61A754640EA0C005B084FEA3202B6EB70
:103E2000020E75EB030E22BFB61A754640EA5C001F
:103E30005B084FEA3202B6EB020E75EB030E22BFAF
:103E4000B61A754640EA9C005B084FEA3202B6EBB0
:103E5000020E75EB030E22BFB61A754640EADC006F
:103E600055EA060E18D04FEA051545EA16754FEAD1
:103E700006164FEAC30343EA52734FEAC2025FEAEF
:103E80001C1CC0D111F4801F0BD141EA00014FF07E
:103E900000004FF0004CB6E711F4801F04BF01434F
:103EA0000020B4F1FD0C88BFBCF5E06F3FF6AFAE6B
:103EB000B5EB030C04BFB6EB020C5FEA500C50F1FB
:103EC000000041EB045170BD0EF0004E4EEA11317E
:103ED00014EB5C04C2BFD4EB0C0541EA045170BD85
:103EE00041F480114FF0000E013C90E645EA060EC9
:103EF0008DE60CEA135594EA0C0F08BF95EA0C0FF7
:103F00003FF43BAF94EA0C0F0AD150EA01347FF43E
:103F100034AF95EA0C0F7FF425AF104619462CE715
:103F200095EA0C0F06D152EA03353FF4FDAE104678
:103F3000194622E750EA410618BF52EA43067FF4C9
:103F4000C5AE50EA41047FF40DAF52EA43057FF459
:103F5000EBAE12E74FF0FF3C06E000BF4FF0010C64
:103F600002E000BF4FF0010C4DF804CD4FEA410CC8
:103F70007FEA6C5C4FEA430C18BF7FEA6C5C1BD095
:103F800001B050EA410C0CBF52EA430C91EA030F16
:103F900002BF90EA020F0020704710F1000F91EA73
:103FA000030F58BF994208BF90422CBFD8176FEA41
:103FB000E37040F0010070474FEA410C7FEA6C5C0F
:103FC00002D150EA013C07D14FEA430C7FEA6C5C16
:103FD000D6D152EA033CD3D05DF8040B704700BF42
:103FE0008446104662468C461946634600E000BF90
:103FF00001B5FFF7B7FF002848BF10F1000F01BD62
:104000004DF808EDFFF7F4FF0CBF012000205DF82C
:1040100008FB00BF4DF808EDFFF7EAFF34BF0120B1
:1040200000205DF808FB00BF4DF808EDFFF7E0FF4A
:1040300094BF012000205DF808FB00BF4DF808ED9B
:10404000FFF7CEFF94BF012000205DF808FB00BF02
:104050004DF808EDFFF7C4FF34BF012000205DF8E4
:1040600008FB00BF4FEA410212F5001215D211D52C
:104070006FF47873B3EB625212D94FEAC12343F065
:10408000004343EA505311F0004F23FA02F018BFE7
:10409000404270474FF00000704750EA013005D1B0
:1040A00011F0004008BF6FF0004070474FF0000073
:1040B000704700BF4A0011D212F5001211D20DD57F
:1040C0006FF47873B3EB62520ED44FEAC12343F01E
:1040D000004343EA505323FA02F070474FF00000C8
:1040E000704750EA013002D14FF0FF3070474FF077
:1040F000000070472DE9F04F93B090461E99DDF80F
:104100007CA01D9C04949B460A461C9D209C059106
:104110000B9053464046594601950A94FFF708FD17
:10412000DDF884900A9D049CCDE906012A462146CB
:104130004B460198FFF7FCFC2A4606460F464B46C5
:1041400040465946CDE90C67FFF7F2FC059ACDE9E8
:104150000801534621460198FFF7EAFC324604461F
:104160000D463B46DDE90601CDE90E45FFF72CFB88
:10417000224606460F462B46DDE90801FFF726FBDF
:104180003246CDE902013B4630463946FFF738FF5B
:10419000DDF82CC048B1DDE902236046CCE90067B8
:1041A000CCE9022313B0BDE8F08FDDE9022310460D
:1041B0001946FFF725FFDDF82CC00028EBD1424659
:1041C0005B4640465946FFF7FFFA02460B46FFF7AB
:1041D00017FF4FF00104DDF82CC010B14FF00003C1
:1041E0001C4614F0FF0F11D05B464046424659462C
:1041F000CDF82CC0FFF704FF4FF00103DDF82CC011
:1042000000B9034613F0FF0F40F0F081019CCDF898
:104210002CC022462046049C23462146FFF7D4FAB0
:1042200002460B46FFF7ECFE4FF00104DDF82CC010
:1042300010B14FF000031C4614F0FF0F13D0019C87
:10424000CDF82CC020462246049C23462146FFF789
:10425000D7FE4FF00103DDF82CC000B9034613F080
:10426000FF0F40F01B8200231093059CCDF82CC05B
:104270002046224651465346FFF7C2FE4FF0010446
:104280002546DDF82CC010B14FF000031D46059CFB
:10429000CDF844C02246204653465146FFF794FAD3
:1042A000ECB202460B460B94FFF7AAFE4FF0010456
:1042B000DDF844C010B14FF000031C460B9AE3B286
:1042C000934200F239810A9CCDF844C02046224630
:1042D00049464B46FFF794FE4FF001042546DDF8B2
:1042E00044C010B14FF000031D460A9CCDF844C0F5
:1042F000224620464B464946FFF766FA02460B46E1
:10430000FFF77EFEECB22546DDF844C04FF0010415
:1043100010B14FF000031C46E3B2AB4288BF00244B
:1043200000F20B81109B002B40F0C480DDE90623D6
:1043300010461946CDF844C0FFF746FA02460B4630
:10434000FFF75EFE4FF00104DDF844C010B19DF8A8
:1043500040301C4614F0FF0F10D0DDE906010B467B
:104360000246CDF840C0FFF74BFE4FF00103DDF8E9
:1043700040C000B9034613F0FF0F79D1DDE90C23EB
:1043800010461946CDF818C0FFF71EFA02460B4634
:10439000FFF736FE4FF00104DDF818C010B14FF002
:1043A00000031C4614F0FF0F10D0DDE90C010B4692
:1043B0000246CDF818C0FFF723FE4FF00103DDF8E9
:1043C00018C000B9034613F0FF0F51D1DDE90823EF
:1043D00010461946CDF818C0FFF7F6F902460B460D
:1043E000FFF70EFE4FF00104DDF818C010B14FF0DA
:1043F00000031C4614F0FF0F10D0DDE908010B4646
:104400000246CDF818C0FFF7FBFD4FF00103DDF8C1
:1044100018C000B9034613F0FF0F29D1DDE90E23C0
:1044200010461946CDF818C0FFF7CEF902460B46E4
:10443000FFF7E6FD4FF00104DDF818C010B14FF0B2
:1044400000031C4614F0FF0F3FF4A5AEDDE90E019A
:104450000B460246CDF818C0FFF7D2FD4FF001031E
:10446000DDF818C000B9034613F0FF0F3FF493AE18
:104470004046424659465B46CDF808C0FFF7C0FDAE
:10448000DDF808C0002800F04281019CCDF808C08A
:1044900020462246049C21462346FFF7B1FDDDF865
:1044A00008C0002800F005810B9B002B3BD1002D9C
:1044B00040F02481059ACDF818C05346404659462D
:1044C000FFF736FB0A9A04460D464B4601980499BD
:1044D000FFF72EFB02460B4620462946FFF774F9EC
:1044E0000022924BFFF724FB0A9A4B4606460F46E2
:1044F00040465946FFF71CFB059A04460D465346B5
:1045000001980499FFF714FB02460B462046294602
:10451000FFF75CF90022854BFFF70AFBDDF818C0B6
:10452000CDE9020137E6002292451346B8BF4FF0AD
:10453000004305929A46BAE77D4C0A9DCDF808C023
:104540002A464B4628464946FFF73EF964F31E0AC1
:10455000024600240B460594FFF752FD4FF001047C
:10456000DDF808C008B19DF8144014F0FF0F12D018
:104570000A9CCDF808C04B46204622464946FFF724
:104580003FFD4FF00103DDF808C000B9034613F00A
:10459000FF0F40F0C58000244046424659465B4626
:1045A00064F31E090024CDF808C00A94FFF728FD23
:1045B000DDF808C0002800F08680019CCDF808C016
:1045C00020462246049C21462346FFF719FDDDF8CC
:1045D00008C000287FF46EAF049900229142134670
:1045E000B8BF4FF000430192049363E7019CDFF8EA
:1045F00040E1CDF82CC0224620464FF00008049C34
:10460000C345B8BF0EF1004E23462146F346FFF7DF
:10461000DBF802460B46FFF7F3FC4FF00104DDF830
:104620002CC010B14FF000031C4614F0FF0F12D045
:10463000019CCDF82CC020462246049C23462146EE
:10464000FFF7DEFC4FF00103DDF82CC000B9034694
:1046500013F0FF0F66D14FF0000E059CCDF82CC073
:1046600020462246049C6EF31E0404945146534691
:1046700000240194FFF7C4FCDDF82CC0B0B30A9C01
:10468000CDF82CC02046224649464B46FFF7B8FCE1
:10469000DDF82CC0F8B101231093E6E54FF00008D7
:1046A000C3454346B8BF4FF000439B46DFF880E068
:1046B000D3E70499002291421346B8BF4FF000435C
:1046C00001920493F0E6A3452346B8BF4FF00043A0
:1046D000A0469B4671E7002291451346B8BF4FF0B4
:1046E0000043994601230A921093BEE5A245234652
:1046F000B8BF4FF0004305949A46C0E700229145A9
:104700001346B8BF4FF000430A929946D2E64FF0E5
:104710000008C3454346B8BF4FF000439B46B4E68C
:10472000034C39E7DFF808E097E700BF0000F07FAF
:104730000000F03F024B0A460146186800F002B83C
:104740004004002010B502FB01F100F031F80446EE
:1047500068B150F8042C22F00302043A242A18D835
:10476000132A06D8034600221A605A609A6020462F
:1047700010BD00231B2A036043600FD9242A8360E5
:10478000C36005BF0361436100F1100300F118032A
:10479000E9E7002100F09AFA204610BD00F1080375
:1047A000E1E700BF014B1868704700BF40040020DC
:1047B0002DE9F04F01F10B05162D83B0064627D9E0
:1047C00035F0070500F1B680A94200F2B38000F091
:1047D000CBFAB5F5FC7F22D2C24FE80807EBC00345
:1047E000DC689C4200F0C9816368E168A56823F039
:1047F0000303234430465A68E96042F001028D60A9
:104800005A6000F0B3FA0834204603B0BDE8F08FD8
:10481000102900F28F8000F0A7FA1025DCE7680A63
:1048200000F08F80042800F25481A809383041003C
:10483000AC4F07EB8101CC68A14206D10CE0002A05
:1048400080F28280E468A14206D0636823F003030B
:104850005A1B0F2AF3DD01380130A2493C6901F1EE
:10486000080E744500F07E81636823F003035A1B31
:104870000F2A00F36481002AC1F814E0C1F810E0A7
:1048800073DAB3F5007F80F03981DB0801EBC308F0
:104890004FEAA30C4A68D8F80890C4F8089001239E
:1048A00003FA0CF31343C4F80C804B60C8F80840BB
:1048B000C9F80C408210012494409C4262D82342E3
:1048C00006D120F003006400234200F10400FAD076
:1048D00007EBC008C4468146DCF80C309C4507D184
:1048E00042E1002980F25281DB689C4500F03C8166
:1048F0005A6822F00302511B0F29F2DD1C46D3F83F
:104900000CC054F8088F5A1945F0010941F001050F
:10491000C3F804903046C8F80CC0CCF808807A611F
:104920003A61C2F80CE0C2F808E05560515000F05E
:104930001DFA69E700240C232046336003B0BDE86C
:10494000F08F7E213F2073E72344E1685A68A56811
:1049500042F00102E96030468D605A6000F006FACC
:104960000834204603B0BDE8F08F234430465A682F
:1049700042F001025A6000F0F9F90834204603B011
:10498000BDE8F08FBC68636823F00308454504D890
:10499000C5EB08030F2B00F38C80534BDFF858A1B5
:1049A0001A68DAF8003001332A4404EB080B00F0EF
:1049B000508102F580520F3222F47F6222F00F0202
:1049C00011463046019200F0D3F9B0F1FF3F814625
:1049D000019A00F0F580834500F2EF80434B19689F
:1049E000CB451144196000F03D81DAF80000DFF892
:1049F00008E101301BBFCBEB090B5944CEF8009006
:104A0000196019F0070100F00781C1F10800C1F534
:104A10008051814408314A44C2F30B02C2EB010ABF
:104A200051463046019300F0A3F9431C019B00F06E
:104A30002781C9EB0002524442F001021968C7F80D
:104A400008905144BC42C9F804201960DFF89CA0CA
:104A500016D0B8F10F0F40F2E2806268A8F10C03A3
:104A600023F00703E01802F001024FF0050E1A438D
:104A70000F2B6260C0F804E0C0F808E000F2048187
:104A80001B4BBC681A68914288BF1960194B1A68A1
:104A90009142626888BF196022F003029542A2EB3E
:104AA000050301D80F2B04DC304600F05FF9002429
:104AB000AAE6621943F0010345F00105656030463E
:104AC000BA60536000F052F90834204603B0BDE8E4
:104AD000F08F142869D9542800F29780280B6E3083
:104AE0004100A5E644040020B8080020BC080020CE
:104AF000B4080020B0080020500800205A0A042AF8
:104B000056D9142A00F2A7805B324FEA420C07EB19
:104B10008C0CDFF8B481DCF80810614500F085806A
:104B20004A6822F00302934202D289688C45F7D189
:104B3000CA687B68E260A1609460CC60BAE66319E1
:104B400042F0010745F00105656030464B610B619D
:104B5000C3F80CE0C3F808E05F609A50083400F036
:104B600005F951E64B68A5E609F1010919F0030FB3
:104B70000CF1080C7FF4B0AE2BE004F1080364697B
:104B8000A34208BF02303FF468AE2DE61A441C462B
:104B90005168DB6854F8085F41F00101516030460C
:104BA000EB609D6000F0E2F82EE65B3041003FE6EE
:104BB0009A0938324FEA420CA9E7BC423FF40EAFE3
:104BC000BC68626822F0030268E7D8F80080984564
:104BD00077D110F0030FA8F1080300F1FF30F4D1F2
:104BE0007B6823EA04037B6064009C423FF6CAAE04
:104BF000002C3FF4C7AE234248467FF469AE640000
:104C0000234200F10400FAD062E6B0F5AA7F18D87A
:104C1000E80B773041000BE64FF48051FBE60123AF
:104C2000C9F804304C46002238E7D8F80430921016
:104C30004FF0010C0CFA02F21343C8F804300A4694
:104C400078E740F25453984217D8A80C7C304100C2
:104C5000EEE51032B4E6542A1ED81A0B6E324FEA33
:104C6000420C54E7CBF30B0000287FF4BEAE424465
:104C7000BB6842F001025A6002E7FC217E20D7E5C2
:104C800001224FF0000AD9E604F10801304600F095
:104C9000CFF8DAF80010F3E6B2F5AA7F04D8DA0B01
:104CA00077324FEA420C32E740F254518A4204D83C
:104CB0009A0C7C324FEA420C29E74FF0FC0C7E2222
:104CC00025E77B6890E700BF4404002070B48407A8
:104CD00046D0541E002A41D0CDB2034602E0621EE7
:104CE000E4B3144603F8015B9A07F8D1032C2ED9DC
:104CF000CDB245EA05250F2C45EA054519D903F142
:104D000010022646103E0F2E42F8105C42F80C5C52
:104D100042F8085C42F8045C02F11002F2D8A4F1F7
:104D2000100222F00F0204F00F041032032C13447F
:104D30000DD91E462246043A032A46F8045BFAD8E7
:104D4000221F22F003020432134404F003042CB1A6
:104D5000C9B21C4403F8011BA342FBD170BC7047CD
:104D600014460346C2E700BF704700BF704700BF4C
:104D700038B5074C0023054608462360FCF7BCFE07
:104D8000431C00D038BD2368002BFBD02B6038BDFE
:104D9000182D0020F8B5234F0C460646FFF7E4FF18
:104DA000BB685D6825F00305291B01F6EF7121F44E
:104DB0007F6121F00F01A1F58054B4F5805F07DB1E
:104DC00030460021FFF7D4FFBB682B44984204D043
:104DD0003046FFF7CBFF0020F8BD30466142FFF7B9
:104DE000C7FF01300DD0104BBA6819682D1B45F074
:104DF00001053046091B55601960FFF7B7FF012018
:104E0000F8BD30460021FFF7B3FFBA68831A0F2BB5
:104E1000DEDD064C0449246843F00103001B5360A7
:104E20000860D5E744040020BC080020500800209A
:104E300000294ED02DE9F0410C468046FFF794FF43
:104E400054F8047C624927F00102A4F10805AB186C
:104E50008E6858689E4220F003005AD0FE075860C2
:104E60000BD454F8087CED1B01F1080EAC687445B6
:104E70003A4467D0EF68E760BC601C186468E407D8
:104E80000CD4544F9C68BC4202447CD0D868E0608B
:104E900042F0010384606B60AA5003E042F001031A
:104EA0006B60AA50B2F5007F14D2D20801EBC203A6
:104EB00048689F68AF609210012404FA02F2104320
:104EC000EB6048609D60FD604046BDE8F041FFF743
:104ED0004DBF7047530A042B47D8930903F1380498
:104EE000600001EB80003A498368834243D05968EF
:104EF00021F00301914202D99B689842F7D1DA6808
:104F0000EA60AB6040469560DD60BDE8F041FFF7C8
:104F10002DBFFF07024407D454F8083CED1A1A4489
:104F2000A868EB68C36098602B4B1B6842F00100D7
:104F30009A4268608D60C7D3284B40461968FFF7D6
:104F400029FFC1E719184968C90709D4D9689B68BE
:104F5000024442F00100D9608B606860AA50B3E758
:104F600042F001036B60AA50AEE7142B14D803F192
:104F70005B046000B5E74A68A4100120A04002432A
:104F80004A601A46BCE742F001034D610D61EC60D6
:104F9000AC606B60AA5097E7542B04D8130B03F155
:104FA0006E0460009DE7B3F5AA7F04D8D30B03F12C
:104FB0007704600095E740F25450834204D8930C84
:104FC00003F17C0460008CE7FC207E2489E700BFAD
:104FD000440400204C0400204C080020B8080020A5
:104FE0007371727400000000FB21F93FFB2109403E
:104FF0007CD91240FB2119407A6A1F407CD922409B
:10500000BBFD2540FB2129403A462C407A6A2F40BF
:105010005C4731407CD932409C6B3440BBFD35400D
:10502000DB8F3740FB2139401BB43A403A463C40C5
:105030005AD83D407A6A3F404C7E40405C474140F0
:105040006C1042407CD942408CA243409C6B44404F
:10505000AC344540BBFD4540CBC64640DB8F4740A6
:10506000EB584840FB21494083F9A200444E6E00B2
:10507000FC291500D1572700DD34F50062DBC000A4
:105080003C999500419043006351FE00BBDEAB00AC
:10509000B761C5003A6E2400D24D42004906E000D7
:1050A00009EA2E001C92D100EB1DFE0029B11C0064
:1050B000E83EA700F535820044BB2E009CE9840041
:1050C000B4267000417E5F00D691390053833900C9
:1050D0009CF439008B5F840028F9BD00F81F3B0069
:1050E000DEFF97000F980500112FEF000A5A8B0082
:1050F0006D1F6D00CF7E360009CB2700464FB700ED
:105100009E663F002DEA5F00BA277500E5EBC700F9
:105110003D7BF100F739070092528A00FB6BEA00F1
:105120001FB15F00085D8D00300356007BFC460018
:10513000F0AB6B0020BCCF0036F49A00E3A91D0051
:105140005E619100081BE60085996500A0145F0070
:105150008D40680080D8FF0027734D00060631009F
:10516000CA561500C9A873007BE260006B8CC000B2
:105170000200000003000000040000000600000020
:1051800000000040FB21F93F000000002D44743E68
:10519000000000809846F83C0000006051CC783B4D
:1051A00000000080831BF0390000004020257A3881
:1051B000000000802282E336000000001DF3693504
:1051C000E2652F227F2B7A3C075C143326A6813CB4
:1051D000BDCBF07A8807703C075C143326A6913C5F
:1051E0004FBB610567ACDD3F182D4454FB21E93FFF
:1051F0009BF681D20B73EF3F182D4454FB21F93FEE
:045200004300000067
:10520400007A030A00000000000000000102030409
:105214000607080901000000000000000403002044
:105224006C030020D40300200000000000000000F4
:10523400000000000000000000000000000000006A
:105244000000000000000000000000000052000800
:10525400000000000000000000000000000000004A
:10526400000000000000000000000000000000003A
:10527400000000000000000000000000000000002A
:10528400000000000000000000000000000000001A
:10529400000000000000000000000000000000000A
:1052A40000000000000000000000000000000000FA
:1052B40000000000000000000000000000000000EA
:1052C40001000000000000000E33CDAB34126DE687
:1052D400ECDE05000B0000000000000000000000F0
:1052E40000000000000000000000000000000000BA
:1052F40000000000000000000000000000000000AA
:105304000000000000000000000000000000000099
:105314000000000000000000000000000000000089
:1056440018000020000000000000000044040020B6
:10565400440400204C0400204C0400205404002086
:10566400540400205C0400205C0400206404002036
:10567400640400206C0400206C04002074040020E6
:10568400740400207C0400207C0400208404002096
:10569400840400208C0400208C0400209404002046
:1056A400940400209C0400209C040020A4040020F6
:1056B400A4040020AC040020AC040020B4040020A6
:1056C400B4040020BC040020BC040020C404002056
:1056D400C4040020CC040020CC040020D404002006
:1056E400D4040020DC040020DC040020E4040020B6
:1056F400E4040020EC040020EC040020F404002066
:10570400F4040020FC040020FC0400200405002014
:10571400040500200C0500200C05002014050020C1
:10572400140500201C0500201C0500202405002071
:10573400240500202C0500202C0500203405002021
:10574400340500203C0500203C05002044050020D1
:10575400440500204C0500204C0500205405002081
:10576400540500205C0500205C0500206405002031
:10577400640500206C0500206C05002074050020E1
:10578400740500207C0500207C0500208405002091
:10579400840500208C0500208C0500209405002041
:1057A400940500209C0500209C050020A4050020F1
:1057B400A4050020AC050020AC050020B4050020A1
:1057C400B4050020BC050020BC050020C405002051
:1057D400C4050020CC050020CC050020D405002001
:1057E400D4050020DC050020DC050020E4050020B1
:1057F400E4050020EC050020EC050020F405002061
:10580400F4050020FC050020FC050020040600200F
:10581400040600200C0600200C06002014060020BC
:10582400140600201C0600201C060020240600206C
:10583400240600202C0600202C060020340600201C
:10584400340600203C0600203C06002044060020CC
:10585400440600204C0600204C060020540600207C
:10586400540600205C0600205C060020640600202C
:10587400640600206C0600206C06002074060020DC
:10588400740600207C0600207C060020840600208C
:10589400840600208C0600208C060020940600203C
:1058A400940600209C0600209C060020A4060020EC
:1058B400A4060020AC060020AC060020B40600209C
:1058C400B4060020BC060020BC060020C40600204C
:1058D400C4060020CC060020CC060020D4060020FC
:1058E400D4060020DC060020DC060020E4060020AC
:1058F400E4060020EC060020EC060020F40600205C
:10590400F4060020FC060020FC060020040700200A
:10591400040700200C0700200C07002014070020B7
:10592400140700201C0700201C0700202407002067
:10593400240700202C0700202C0700203407002017
:10594400340700203C0700203C07002044070020C7
:10595400440700204C0700204C0700205407002077
:10596400540700205C0700205C0700206407002027
:10597400640700206C0700206C07002074070020D7
:10598400740700207C0700207C0700208407002087
:10599400840700208C0700208C0700209407002037
:1059A400940700209C0700209C070020A4070020E7
:1059B400A4070020AC070020AC070020B407002097
:1059C400B4070020BC070020BC070020C407002047
:1059D400C4070020CC070020CC070020D4070020F7
:1059E400D4070020DC070020DC070020E4070020A7
:1059F400E4070020EC070020EC070020F407002057
:105A0400F4070020FC070020FC0700200408002005
:105A1400040800200C0800200C08002014080020B2
:105A2400140800201C0800201C0800202408002062
:105A3400240800202C0800202C0800203408002012
:105A4400340800203C0800203C080020000002002C
:045A5400FFFFFFFF52
:0400000508000000EF
:00000001FF
